:020000040800F2
:100000006807002089010008390500084904000834
:1000100035050008650200082315000800000000EF
:10002000000000000000000000000000550900086A
:100030006902000800000000FD070008050B000829
:10004000A3010008A3010008A3010008A301000800
:10005000A3010008A3010008A3010008A3010008F0
:10006000A3010008A3010008A3010008A3010008E0
:10007000A3010008A3010008A3010008A3010008D0
:10008000A3010008A3010008A3010008A3010008C0
:10009000A3010008A3010008A3010008A3010008B0
:1000A000A3010008D10B0008A3010008A301000868
:1000B000450C0008A3010008A3010008A3010008E3
:1000C000A3010008A3010008A3010008A301000880
:1000D000A301000835120008A3010008A3010008CD
:1000E000A3010008A3010008A301000800F002F822
:1000F00000F03AF80AA090E8000C82448344AAF188
:100100000107DA4501D100F02FF8AFF2090EBAE885
:100110000F0013F0010F18BFFB1A43F0010318473B
:100120004816000068160000103A24BF78C878C14D
:10013000FAD8520724BF30C830C144BF04680C60ED
:10014000704700000023002400250026103A28BF35
:1001500078C1FBD8520728BF30C148BF0B60704739
:100160001FB51FBD10B510BD00F038F81146FFF7E0
:10017000F7FF01F047FA00F056F803B4FFF7F2FF7B
:1001800003BC01F0D0F90000094880470948004746
:10019000FEE7FEE7FEE7FEE7FEE7FEE7FEE7FEE737
:1001A000FEE7FEE704480549054A064B7047000094
:1001B000090B0008ED000008680100206807002016
:1001C000680300206803002070477047704770473D
:1001D0007047000000487047080100207546FFF78F
:1001E000F9FFAE4605006946534620F007008546F4
:1001F00018B020B5FFF7D6FFBDE820404FF000064D
:100200004FF000074FF000084FF0000B21F00701FE
:10021000AC46ACE8C009ACE8C009ACE8C009ACE841
:10022000C0098D46704710B50446AFF300802046E4
:10023000BDE81040FFF7A1BF0021084A1180121D40
:100240001080121D1080121D1180054A1080121D91
:100250001180121D1180121D10807047340400405F
:100260003408004000BFFEE770470000084A1080D5
:100270000021121D1180121D1180121D1080054ACF
:100280001180121D1080121D1080121D11807047E8
:1002900034040040340800402DE9F04102460025B6
:1002A0000026002000230024002791F803C00CF052
:1002B0000F0591F803C00CF0100CBCF1000F03D037
:1002C00091F802C04CEA050591F800C0BCF1000F9E
:1002D00031D0146800202BE04FF0010C0CFA00F331
:1002E000B1F800C00CEA03069E4220D183004FF013
:1002F0000F0C0CFA03F7BC4305FA03FC4CEA0404A8
:1003000091F803C0BCF1280F06D14FF0010C0CFA94
:1003100000FCC2F814C00AE091F803C0BCF1480F19
:1003200005D14FF0010C0CFA00FCC2F810C0401CC3
:100330000828D1D31460B1F800C0BCF1FF0F34DD40
:10034000546800202EE000F1080C4FF0010808FA74
:100350000CF3B1F800C00CEA03069E4221D18300E1
:100360004FF00F0C0CFA03F7BC4305FA03FC4CEA00
:10037000040491F803C0BCF1280F05D100F1080C6A
:1003800008FA0CF8C2F8148091F803C0BCF1480FC9
:1003900007D100F1080C4FF0010808FA0CF8C2F878
:1003A0001080401C0828CED35460BDE8F0810000C6
:1003B000F0B50A46002300240021002500F0004685
:1003C000B6F1004F02D11D4EF16901E01B4E71687C
:1003D000C0F3034583B200F44016B6F5401F08D1C0
:1003E00021F07061154E766826F07066134F7E60BE
:1003F00012E000F48016B6F5801F06D1032606FA37
:1004000005F4A14341F0706106E0460D360103FAA0
:1004100006F6B14341F0706122B1460D360103FA90
:1004200006F6314300F00046B6F1004F02D1034E0C
:10043000F16101E0014E7160F0BD0000000001407B
:10044000416170470161704700BFFEE708B50121B7
:10045000082000F0F5F91020ADF8000048208DF8D4
:10046000030003208DF8020069460A48FFF714FFD5
:100470000121082000F0E4F92020ADF80000482018
:100480008DF8030003208DF8020069460148FFF74C
:1004900003FF08BD000C014008B50121102000F049
:1004A000CFF94FF48040ADF8000048208DF80300EC
:1004B00003208DF8020069461C48FFF7EDFE01217C
:1004C000102000F0BDF94FF40050ADF800004820B6
:1004D0008DF8030003208DF8020069461348FFF7EA
:1004E000DBFE0121102000F0ABF94FF40040ADF825
:1004F000000048208DF8030003208DF802006946B3
:100500000A48FFF7C9FE0121082000F099F94FF4CD
:100510008050ADF8000048208DF8030003208DF8CE
:10052000020069460248FFF7B7FE08BD001001400F
:10053000000C014000BFFEE77047000070B50021CD
:1005400000230F22C47804B3154C246804F4E0643B
:10055000C4F5E064210AC1F10403CA40447804FAF6
:1005600003F184781440214309010E4C0678A1550B
:10057000047804F01F050124AC4005786D11AD002E
:1005800005F1E025C5F8004109E0047804F01F05F5
:100590000124AC40044D0678761145F8264070BD24
:1005A0000CED00E000E400E080E100E002490143DE
:1005B000024A1160704700000000FA050CED00E0EF
:1005C00008B501210C2000F03BF94FF4C040ADF814
:1005D000000010208DF8030003208DF8020069460A
:1005E0001348FFF759FE4FF48070ADF8000010205B
:1005F0008DF8030003208DF8020069460D48FFF7CF
:100600004BFE4FF40040ADF8000048208DF8030089
:1006100003208DF8020069460548FFF73DFE0120E2
:10062000054908600549C1F8B4010549086008BDDD
:10063000000C014000080140B881214200802142A5
:10064000A0012142F0B589B007460C4615461E466A
:1006500001210C2000F0F4F80121022000F0D0F874
:1006600018208DF82300C020ADF8200002208DF85E
:10067000220008A95D48FFF70FFE18208DF823001F
:100680000320ADF8200002208DF8220008A9584868
:10069000FFF702FEADF81870ADF814400020ADF879
:1006A0001A00ADF8160005A9524800F071FD60204F
:1006B000ADF804000020ADF80A00ADF80C000120F0
:1006C000ADF8060001A94B4800F006FC01A9494815
:1006D00000F058FC01A9474800F0B4FC01A94548C6
:1006E00000F00AFD0121434800F0D9FA08214148F1
:1006F00000F03EFC08213F4800F096FC08213D48F0
:1007000000F0F0FC08213B4800F034FD012139489D
:1007100000F0AAFA0121374800F0B5FA01210820BB
:1007200000F08EF80121042000F06AF818208DF8FE
:100730002300C020ADF8200002208DF8220008A977
:100740002B48FFF7A9FD18208DF823004001ADF8D4
:10075000200002208DF8220008A92548FFF79CFD03
:10076000ADF81850ADF814600020ADF81A00ADF8DF
:10077000160005A9204800F00BFD6020ADF804002C
:100780000020ADF80A00ADF80C000120ADF806001D
:1007900001A9194800F0A0FB01A9174800F0F2FBDD
:1007A00001A9154800F04EFC01A9134800F0A4FC73
:1007B0000121114800F073FA08210F4800F0D8FB1E
:1007C00008210D4800F030FC08210B4800F08AFC9D
:1007D0000821094800F0CEFC0121074800F044FA46
:1007E0000121054800F04FFA09B0F0BD00080140B2
:1007F000000C014000040040000800407047000069
:1008000029B1064AD2690243044BDA6104E0034A83
:10081000D2698243014BDA61704700000010024048
:1008200029B1064A12690243044B1A6104E0034AE3
:1008300012698243014B1A617047000000100240A8
:1008400029B1064A92690243044B9A6104E0034AC3
:1008500092698243014B9A61704700000010024088
:1008600029B1064AD2680243044BDA6004E0034A25
:10087000D2688243014BDA607047000000100240EA
:1008800030B500210022002400232D4D6D6805F0B5
:100890000C0121B1042905D0082923D105E0294DF7
:1008A000056022E0274D05601FE0254D6D6805F4C9
:1008B0007012234D6D6805F48034022505EB9242D9
:1008C0001CB9214D554305600BE01D4D6D6805F4C5
:1008D00000351DB11C4D5543056002E0194D5543CF
:1008E000056002E0174D056000BF00BF144D6D6844
:1008F00005F0F0010909154D6B5C0568DD404560A8
:100900000F4D6D6805F4E061090A104D6B5C456898
:10091000DD4085600A4D6D6805F46051C90A0B4DD4
:100920006B5C4568DD40C560054D6D6805F4404170
:10093000890B074D6B5CC568B5FBF3F5056130BDF0
:100940000010024000127A0000093D00140000204F
:1009500024000020704708B54FF40060ADF8000097
:1009600010208DF8030003208DF8020008BD10B59B
:1009700000F002F810BD00000CB5002001900090BE
:100980003348006840F480303149086000BF304887
:10099000006800F4003000900198401C019000981D
:1009A00018B90198B0F5A06FF1D12948006800F49A
:1009B000003010B10120009001E00020009000986C
:1009C000012843D12348006840F010002149086005
:1009D0000846006820F0030008600846006840F000
:1009E000020008601A484068194948600846406893
:1009F00048600846406840F48060486008464068A7
:100A000020F47C1048600846406840F4E8104860D4
:100A10000846006840F08070086000BF0C4800681D
:100A200000F000700028F9D00948406820F0030069
:100A3000074948600846406840F00200486000BF2F
:100A40000348406800F00C000828F9D10CBD0000F4
:100A500000100240002002400021084A1180121DAF
:100A60001080121D1180121D1080054A1180121D68
:100A70001080121D1180121D108070473404004038
:100A800034080040084A10800021121D1180121DF8
:100A90001080121D1180054A1080121D1180121D38
:100AA0001080121D1180704734040040340800404B
:100AB000002008490880091D0880091D0880091DBB
:100AC000088005490880091D0880091D0880091D46
:100AD000088070473404004034080040042808D1DE
:100AE0004FF0E021096941F004014FF0E02211616B
:100AF00007E04FF0E021096921F004014FF0E02206
:100B0000116170477047000010B51348006840F04D
:100B100001001149086008464068104908400E4924
:100B20004860084600680E4908400B4908600846BE
:100B3000006820F4802008600846406820F4FE0029
:100B400048604FF41F008860FFF711FF4FF000600E
:100B50000449086010BD0000001002400000FFF8CA
:100B6000FFFFF6FE08ED00E07FB504460D460121CB
:100B7000C802FFF765FEADF80840681E80B2ADF808
:100B800004000020ADF80A00ADF806008DF80C0056
:100B900001A90E4800F0FCFA012211460B4800F0B2
:100BA00092F919208DF8000000208DF80100032033
:100BB0008DF8020001208DF803006846FFF7BEFCA7
:100BC0000121024800F05FF87FBD0000002C0140C9
:100BD00010B50121174800F065F950B301211548FF
:100BE00000F04EF814480068401C13490860134890
:100BF000006800EB400101EBC00000F5FA700A212B
:100C000090FBF1F00C490968884205DB4FF4006164
:100C10000B48FFF717FC04E04FF400610848FFF7AA
:100C20000FFC05480068B0F5FA6F02D100200249B8
:100C3000086010BD002C0140380000203400002066
:100C40000008014010B50121880700F02BF940B1E0
:100C50000121880700F014F802480068401C01498F
:100C6000086010BD3C00002021B1028842F08002E3
:100C7000028004E002884FF67F731A4002807047BA
:100C8000CA430282704721B1028842F00102028009
:100C900004E002884FF6FE731A400280704731B1BB
:100CA000B0F8442042F40042A0F8442005E0B0F837
:100CB0004420C2F30E02A0F84420704710B5044649
:100CC0006848844208D10121C014FFF7C9FD002102
:100CD000E014FFF7C5FDC4E0B4F1804F08D1012155
:100CE0000846FFF79DFD00210120FFF799FDB8E0C0
:100CF0005D48844208D101210220FFF791FD0021C7
:100D00000220FFF78DFDACE05848844208D1012154
:100D10000420FFF785FD00210420FFF781FDA0E0FE
:100D20005348844208D101210820FFF779FD0021B2
:100D30000820FFF775FD94E04E48844208D1012158
:100D40001020FFF76DFD00211020FFF769FD88E0FE
:100D50004948844208D101212020FFF761FD00218C
:100D60002020FFF75DFD7CE04448844208D101214A
:100D70004014FFF775FD00216014FFF771FD70E06E
:100D80003F48844209D10121C804FFF769FD0021D1
:100D90004FF40020FFF764FD63E03A48844209D134
:100DA00001210805FFF75CFD00214FF48010FFF7DB
:100DB00057FD56E03448844209D101214805FFF728
:100DC0004FFD00214FF40010FFF74AFD49E02F4886
:100DD000844208D101214020FFF722FD002140205C
:100DE000FFF71EFD3DE02A48844208D10121802002
:100DF000FFF716FD00218020FFF712FD31E02548A6
:100E0000844208D101218015FFF70AFD0021A015B9
:100E1000FFF706FD25E02048844209D1012108049E
:100E2000FFF71EFD00214FF48030FFF719FD18E099
:100E30001A48844209D101214804FFF711FD00211D
:100E40004FF40030FFF70CFD0BE01548844208D149
:100E500001218804FFF704FD00214FF48020FFF7F3
:100E6000FFFC10BD002C01400004004000080040C1
:100E7000000C00400010004000140040003401400D
:100E8000004C014000500140005401400018004057
:100E9000001C004000200040004001400044014090
:100EA0000048014030B50246002000230024158A86
:100EB00005EA0103958905EA010413B10CB101208B
:100EC00000E0002030BD1AB183890B43838102E02A
:100ED00083898B438381704770B5002400220023EF
:100EE000058C4FF6FE7635400584028C8388048B92
:100EF0004FF68F752C40B51E2C400D882C43751E67
:100F00002A400D892A434D882A43144DA8420BD00C
:100F1000134DA84208D0134DA84205D0124DA84247
:100F200002D0124DA84213D14FF6F7752A404D89D1
:100F30002A434FF6FB752A408D882A434FF6FF65FA
:100F40002B404FF6FF552B408D892B43CD892B43EA
:100F500083800483CD888586028470BD002C014087
:100F6000003401400040014000440140004801407D
:100F70000A460021018B4FF6F77319401143018394
:100F80007047000070B5002400220023058C4FF646
:100F9000EF7635400584028C8388048B48F6FF7514
:100FA0002C404FF6FF452C400D884FF6FF7606EAA1
:100FB00005252C434FF6DF752A400D8906EA0515F5
:100FC0002A434D8806EA05152A43154DA84202D04A
:100FD000144DA8421DD14FF67F752A404D894FF61A
:100FE000FF7606EA05152A434FF6BF752A408D881D
:100FF00006EA05152A434FF6FF352B404FF2FF75E1
:101000002B408D8906EA85052B43CD8906EA8505A7
:101010002B4383800483CD880587028470BD000044
:10102000002C0140003401400A460021018B4FF2A0
:10103000FF7319404FF6FF7303EA0223194301833C
:101040007047000070B5002400220023058C4FF685
:10105000FF6635400584028C8388848B4FF68F753C
:101060002C404FF6FC752C400D882C434FF6FF5555
:101070002A400D894FF6FF7606EA05252A434D885A
:1010800006EA05252A43154DA84202D0144DA84270
:101090001DD14FF2FF752A404D894FF6FF7606EAC3
:1010A00005252A434FF6FF352A408D8806EA052597
:1010B0002A434EF6FF752B404DF6FF752B408D8968
:1010C00006EA05152B43CD8906EA05152B438380D7
:1010D0008483CD888587028470BD0000002C014088
:1010E000003401400A460021818B4FF6F773194006
:1010F000114381837047000070B500220023002453
:10110000058C4EF6FF7635400584038C8488828BEF
:1011100048F6FF752A404FF6FF452A400D884FF6E6
:10112000FF7606EA05252A434DF6FF752B400D890B
:1011300006EA05352B434D8806EA05352B430B4D52
:10114000A84202D00A4DA84208D14BF6FF752C40A8
:101150008D894FF6FF7606EA85152C4384808283BD
:10116000CD88A0F84050038470BD0000002C0140E1
:10117000003401400A460021818B4FF2FF73194071
:101180004FF6FF7303EA022319438183704700007F
:10119000002202881D4B98420ED01D4B98420BD066
:1011A000B0F1804F08D01B4B984205D01A4B9842A3
:1011B00002D01A4B984204D14FF68F731A404B88D5
:1011C0001A43174B984207D0164B984204D04FF65B
:1011D000FF431A40CB881A4302808B8883850B8893
:1011E00003850A4B98420BD0094B984208D00E4B0E
:1011F000984205D00D4B984202D00D4B984201D138
:101200000B7A03860123838270470000002C014083
:10121000003401400004004000080040000C004081
:101220000010004000140040004001400044014014
:101230000048014010B540F225511D4800F04AF821
:1012400010B31B4800F002F9C4B21A48008800F439
:101250000040C8B91748008800F4804060B10A2CEB
:1012600003D000201349088020E01248008840F491
:1012700000401049088019E00D2C06D10D48008867
:1012800040F480400B49088010E00A480088C0F311
:101290000D0009490C5407480088401C0549088086
:1012A00008460088C72801DD0020088010BD000026
:1012B00000380140300000204000002021B1828928
:1012C00042F40052828104E082894DF6FF731A4095
:1012D0008281704770B5024600240023002500205B
:1012E00040F66A16B14200D100BFC1F3421501F0C9
:1012F0001F03012606FA03F3012D02D1968933401C
:1013000006E0022D02D1168A334001E0968A33406E
:101310000C12012606FA04F41688344013B10CB1FD
:10132000012000E0002070BDF0B503460024002637
:101330000025002040F66A17B94200D100BF1846C8
:10134000C1F3421401F01F06012707FA06F5012C2C
:1013500001D10C3004E0022C01D1103000E0143037
:101360001AB107682F43076002E00768AF430760C0
:10137000F0BD00002DE9F04786B005460E4600247A
:10138000A24600BFA1460027B08900B100BF2F468A
:101390002C8A4CF6FF700440F08804432C82AC8900
:1013A0004EF6F3100440B088318908437189084330
:1013B0000443AC81AC8A4FF6FF400440B08904433B
:1013C000AC8201A8FFF75CFA1F48874202D1DDF822
:1013D00010A001E0DDF80CA0A88900F4004040B1A5
:1013E0000AEBCA0000EB0A1031684900B0FBF1F8C3
:1013F00007E00AEBCA0000EB0A1031688900B0FB75
:10140000F1F86420B8FBF0F004012009642101FB2D
:101410001089A88900F4004040B1322000EBC900D7
:10142000B0FBF1F000F00700044308E0322000EBCD
:1014300009106421B0FBF1F000F00F0004432C818F
:1014400006B0BDE8F08700000038014001468888FA
:10145000C0F308007047000008B501210520FFF720
:10146000EFF901211148FEF7A3FF4FF40040ADF85A
:10147000000010208DF8030003208DF8020069465B
:101480000B48FEF709FF01210420FFF7D9F94FF4BB
:101490008050ADF8000004208DF8030003208DF883
:1014A000020069460248FEF7F7FE08BD0002300060
:1014B000000801401FB501210846FFF7A1F94FF0D0
:1014C0008040FFF7FBFB40F2E730ADF80800472013
:1014D000ADF804000020ADF80A00ADF8060001A93F
:1014E0004FF08040FFF754FE012211469007FFF7AE
:1014F000EAFC4FF4A060FFF759F800208DF80100D6
:101500008DF802001C208DF8000001208DF80300EA
:101510006846FFF713F800214FF08040FFF7B3FB58
:101520001FBD00BFFEE7014600BF704710B5FFF7C3
:10153000EBFA00F01FF84FF4165000F0C5F8002346
:1015400041F61F4219461046FFF77CF8FFF703FAF1
:1015500048210920FFF708FBFFF77EFFFFF7AAFFEE
:10156000FEF79AFFFEF772FFFFF72AF800F074F813
:1015700010BD000010B56FF00400FFF7AFFA0A4885
:1015800000680A49B0FBF1F0094908700846007884
:1015900000EB4001C1EBC0104FF6FF7101EAC00043
:1015A0000449088010BD00000000002000127A00ED
:1015B000280000202A0000200146114A12884A43D0
:1015C0004FF0E0235A6100229A611A46126942F0F4
:1015D00001021A6100BF4FF0E022106900F0010221
:1015E0001AB100F48032002AF5D04FF0E0221269DF
:1015F00022F001024FF0E0231A6100229A61704745
:101600002A000020FFF792FF25E041F27070FEF7FC
:101610002DFE4FF47A70FFF7CFFF41F27070FEF7A6
:101620000BFE4FF47A70FFF7C7FF41F65830FFF713
:1016300013FA4FF47A70FFF7BFFF41F65830FFF707
:1016400021FA4FF47A70FFF7B7FFFFF731FA4FF442
:101650007A70FFF7B1FFD8E708B501210420FFF742
:10166000EFF82020ADF8000048208DF8030003209B
:101670008DF8020069461348FEF70EFE0121042092
:10168000FFF7DEF81020ADF8000048208DF80300C9
:1016900003208DF8020069460A48FEF7FDFD01218E
:1016A0000420FFF7CDF80820ADF8000048208DF8A1
:1016B000030003208DF8020069460248FEF7ECFDA6
:1016C00008BD00000008014010B586B004460121A5
:1016D00044F20400FFF7B4F84FF40070ADF81400C2
:1016E00003208DF8160018208DF8170005A91C4856
:1016F000FEF7D2FD4FF48060ADF8140004208DF8A1
:10170000170005A91648FEF7C7FD25208DF8000033
:1017100003208DF801008DF8020001208DF80300F0
:101720006846FEF70BFF01940020ADF80800ADF805
:101730000A00ADF80C00ADF810000C20ADF80E005A
:1017400001A90848FFF716FE012240F2255105487D
:10175000FFF7EAFD01210348FFF7B0FD06B010BD19
:1017600000080140003801408817000800000020F0
:101770004000000028010008C817000840000020B1
:10178000280700004401000800A24A0400000000ED
:101790000000000001020304060708090000000021
:1017A00001020304010203040607080902040608F3
:1017B0000000000000000000000000000000000029
:0817C000000000000000000021
:04000005080000ED02
:00000001FF
