:020000040800F2
:10000000F00D002001010008513A0008D126000837
:100010004D3A000875040008314200080000000055
:10002000000000000000000000000000B13A0008DD
:10003000E504000800000000813A0008E53A0008E5
:100040001B0100081B0100081B0100081B01000820
:100050001B0100081B0100081B0100081B01000810
:100060001B0100081B0100081B010008790400089F
:100070001B010008890400081B01000899040008FE
:100080001B010008A90400081B0100081B0100084F
:100090001B0100081B0100081B0100081B010008D0
:1000A0001B0100081B0100081B0100081B010008C0
:1000B0001B010008E53B00081B010008D5260008CD
:1000C0001B0100081B0100081B0100081B010008A0
:1000D0001B0100087D4100088D41000821420008F5
:1000E0001B0100081B0100081B010008DFF80CD0F1
:1000F00000F0FAF80048004715450008F00D002010
:100100000648804706480047FEE7FEE7FEE7FEE7B1
:10011000FEE7FEE7FEE7FEE7FEE7FEE7E13B00085D
:10012000ED000008D2B201E000F8012B491EFBD21D
:1001300070470022F6E710B513460A4604461946F2
:10014000FFF7F0FF204610BD80EA010210B502F073
:100150000043400022D04A001FD0010E01EB126183
:10016000C0F35600C2F3560240F4000042F400020D
:10017000A0FB022000047F39140400D0401C50EA88
:10018000124001D44000491EC2B20C0604EBD0104C
:10019000401C4008802A02D003E0002010BD20F05F
:1001A0000100002900DA0020184310BD30B480EAB5
:1001B000010202F0004530F0004221F0004013D06F
:1001C00090B1C30DD40DC2F31601C0F31600E41AAA
:1001D00041F4000140F400027D34914201D3641CDB
:1001E00000E04900002C02DA30BC002070474FF4D8
:1001F00000000023914201D3891A034340084FEACB
:100200004101F7D151B1914202D14FF0004105E0D7
:1002100002D24FF0010101E06FF0010103EBC45085
:10022000284430BC00F029B8002801DBC0F10040B0
:10023000002901DBC1F10041814201D30120704757
:100240000020704796230022114600F01FB830B5F9
:100250000B46014600202022012409E021FA02F584
:100260009D4205D303FA02F5491B04FA02F528441E
:10027000151EA2F10102F1DC30BD0029A8BF7047B4
:10028000401C490008BF20F00100704710B4B0FACC
:1002900080FC00FA0CF050EA010404BF10BC704767
:1002A00049B1CCF1200421FA04F411FA0CF118BF81
:1002B000012121430843A3EB0C01CB1D4FEA006150
:1002C0004FEA102042BF002010BC704700EBC35023
:1002D00010440029A4BF10BC7047401C490008BF4F
:1002E00020F0010010BC7047064C074D06E0E068A6
:1002F00040F0010394E8070098471034AC42F6D36D
:10030000FFF7F8FEE047000800480008B0B50446D3
:1003100000688168C90709D0816821F00101816006
:1003200000F04EFE21688968C90701D10020B0BDE8
:10033000054603E020688068C007F7D000F040FE63
:10034000401B0328F6D320688068C007F2D0A06A5B
:1003500040F01000A062E06A40F00100E06201207D
:10036000B0BD000080B50146406A826A12F0500FAD
:1003700004D0006A026B0846904780BD0168826A1B
:1003800042F400728262896801F46021B1F5602F45
:1003900001D1017B11B100F0ADF980BD816A21F47A
:1003A00080718162816AC904F5D4816A41F00101DA
:1003B000816200F09FF980BD80B5406A816A41F09A
:1003C00040018162C16A41F00401C16200F096F906
:1003D00080BD000080B5406A00F08EF980BD00004D
:1003E000B0B582B004460020019021688A68D20727
:1003F0003DD1886840F00100886040F20400C2F2FC
:10040000000000684DF68361C4F21B31A0FB0101BE
:10041000880C00BF0190019810B101980138F9E7EC
:1004200000F0CEFD21688968C9071CD1054603E0AC
:1004300020688068C00719D100F0C2FD401B032866
:10044000F6D320688068C007F2D1A06A40F010009F
:10045000A062E06A40F00100E062002084F824001D
:10046000012002B0B0BD002002B0B0BD002002B03B
:10047000B0BD0000FEE7000080B540F24C10C2F2B3
:10048000000000F049FB80BD80B540F21820C2F2A8
:10049000000000F041FB80BD80B540F2D410C2F2F4
:1004A000000000F039FB80BD80B540F29010C2F230
:1004B000000000F031FB80BDB0B5D0E900CED0E93E
:1004C0000F40012505FA00F060600846CCF80430C2
:1004D000BEF1100F04BF10460A46CCF80800CCF855
:1004E0000C20B0BD70470000EFF3108072B600BF63
:1004F000FEE7000070B582B004460020019094F839
:100500002400012801D1022568E0012084F824009C
:100510002046FFF7FBFE2046FFF762FF0546002856
:1005200059D1A06A41F2021188430230A06240F220
:100530000400C2F200000668022000F0D1FFB6FB02
:10054000F0F040000190019810B101980138F9E7EE
:100550002068816841F00801816000F031FD216868
:1005600051F8082F120711D5064603E0206881686C
:10057000090709D500F024FD801B0B28F6D320685D
:1005800080680007F2D51EE000F10801086840F01D
:100590000400086000F014FD21688968490703D44D
:1005A00001206FF0030112E0064603E02068806836
:1005B0004007F5D500F004FD801B0B28F6D320681A
:1005C00080684007F2D5012510206FF01201A26A61
:1005D00011400843A062002084F82400284602B09D
:1005E00070BD0000B0B581B00022009290F82420C8
:1005F000012A01D1022179E04A680123062A80F804
:10060000243005D803686FF0040C03F1340E0AE0BF
:1006100003680C2A87BF03F12C0E6FF0400C03F126
:10062000300E6FF0220C02EB8202DEF800506244C2
:100630001F230C68934025EA030304FA02F21A43CD
:10064000CEF80020D1F800E002680EEB4E05102431
:10065000BEF1090F88BF1E3D88BF0C2452F804C0AC
:1006600007238968AB402CEA0303A94019431151C1
:100670002EF001014FF0000C10294FF0000133D192
:10068000016842F20042C4F20102914205D0816A3F
:1006900041F020018162012126E09268120222D4F9
:1006A0008A68BEF1100F42F400028A601BD140F24A
:1006B0000401C2F2000109684DF68362C4F21B32E4
:1006C000A1FB0212910C01EB8101490000910099FC
:1006D00049B100BF009901390091009900294FF0FC
:1006E0000001F7D100E0002180F824C0084601B0E5
:1006F000B0BD000070470000704700007047000068
:10070000002804BF01207047F0B581B007460446B9
:1007100057F8280F30B90020E06284F82400204602
:1007200000F07AF82046FFF7F1FDA26AA16A0028DE
:1007300008BF12F0100205D041F01001012039600D
:1007400001B0F0BD41F2021291430231A162E169B0
:10075000D4E9013241EA0305511EB1FA81F1490998
:100760001346B2F5807F18BF0B02267D217B012E38
:1007700045EA410C11D141B1A16A41F02001A162C9
:10078000E16A41F00101E16207E0A1694EF600066D
:10079000CFF6FF7606EB41310B432168B2F5807F3F
:1007A0004E6826F4694643EA06034B608B684FF2B5
:1007B000FD76CFF6E17603EA060343EA0C038B608D
:1007C00001D0012A06D122690023CFF6F07303EB92
:1007D000025200E00022CB6A23F470031A43CA627B
:1007E000896840F6FE62CFF61F721140614506D15E
:1007F0000021E162A16A012262F301019FE7A06A80
:1008000040F0100020F00200A06254F82C0F40F0DD
:1008100001010120274692E72DE9F04186B040F61C
:1008200000050446C4F20105006805F5E051002703
:1008300088420597CDE90377029702D006B0BDE85C
:10084000F08141F21800C4F20200016802AE41F4E6
:100850000071016001684FF0030801F4007101911B
:100860000199016841F010010160016801F0100177
:1008700001910199016841F004010160006831466D
:1008800000F00400019001980920029005F5006035
:10089000CDF80C8000F090FA1020CDE9020828462F
:1008A000314600F089FA40F24C150820C2F20005EA
:1008B000C4F202004FF48072C5E9000705F1100090
:1008C00080214FF480632026CCC02846C5E9027100
:1008D00000F0E2F9002818BFFFF706FE25626C62FF
:1008E00006B0BDE8F08100002DE9F0410546006842
:1008F00042F60006C4F201069046B0420F4605D00B
:1009000042F20041C4F2010188420AD142F204409D
:10091000C4F20100006810F4702F1CBF0120BDE874
:10092000F08195F82400012804BF0220BDE8F08181
:10093000012085F824002846FFF752FD044628B11F
:10094000002085F824002046BDE8F08142F20440F2
:100950002968AA6AC4F2010040F601739A4300F5BF
:100960007F7302F580729942AA6207D0A86A20F4C8
:100970008010A8624868400518D512E0026812F499
:10098000702FF3D0AA6AB14242F48012AA6205D055
:1009900042F20042C4F20102914207D100684005D0
:1009A00004D5A86A012262F30D30A862AA6A002069
:1009B000D2044FF0000244BFEA6A22F00602EA6263
:1009C00085F82400286A40F26532C0F6000240F241
:1009D000D53340F2B93600F1280CC0F60003C0F65A
:1009E00000068CE84C006FF002020A608A684346F9
:1009F00042F480728A604C313A4600F091F92868DE
:100A0000816801F460228168B2F5602F0CBF41F467
:100A1000A00141F4801181602046BDE8F081000012
:100A2000014690F82100022813D10868D1E90FC3CC
:100A3000026822F00E020260026822F001020260E7
:100A4000012000FA03F2CCF8042081F821000020F4
:100A500002E0042088630120002281F820207047F2
:100A600080B590F82110022923D10268116821F085
:100A70000E0111602F211368C4F202018A4240F274
:100A80000401C4F2020123F00103136016DD3023D8
:100A9000C4F202039A421DD04423C4F202039A42D4
:100AA0001BD05823C4F202039A421BD14FF4803367
:100AB00020E0042181630121084680BD0823C4F29F
:100AC00002039A420CD01C23C4F202039A4209D1B9
:100AD00010230FE04FF480730CE04FF4805309E0D3
:100AE000012307E001F1680C4FF08073624508BFF5
:100AF0004FF480130B60012180F82110426B00211C
:100B000080F820100AB190470021084680BD0000FF
:100B100090F821007047000010B50168D0E90FCEB1
:100B2000DCF800200B685C0726D5042404FA0EF4D8
:100B3000144021D00A68920603D40A6822F0040205
:100B40000A602F22C4F20202914240F20402C4F26F
:100B5000020259DD3023C4F2020399426CD04423CF
:100B6000C4F2020399426AD05823C4F202039942A4
:100B70006AD14FF480236FE09C0729D5022404FA40
:100B80000EF4144024D00A68920606D40A6822F0B3
:100B90000A020A60012280F821202F22C4F20202F8
:100BA000914240F20402C4F2020239DD3023C4F261
:100BB0000203994256D04423C4F20203994254D00E
:100BC0005823C4F20203994254D14FF4003359E040
:100BD0001B0758BF10BD082303FA0EF31A4012D0AA
:100BE0000A6822F00E020A60012101FA0EF2CCF826
:100BF0000420816380F82110016B0022002980F815
:100C0000202018BF884710BD0823C4F20203994270
:100C100018D01C23C4F20203994215D140231BE0D3
:100C20000823C4F20203994222D01C23C4F2020317
:100C300099421FD1202325E04FF480630CE04FF44C
:100C4000804309E0042307E002F168044FF0806369
:100C5000A14208BF4FF480031360C16A0029D2D0BB
:100C6000884710BD4FF400730CE04FF4005309E0C7
:100C7000022307E002F168044FF00073A14208BFAD
:100C80004FF400131360816A0022002980F82020AD
:100C9000B9D0884710BD0000014600284FF0010080
:100CA00008BF70472DE9F043D1F800C04FF6F87344
:100CB000CBF6FD734CF6CD426344CCF6CC42A3FB9D
:100CC00002236FF0030707EA93030027C4F2020729
:100CD00001F10C09C1E90F730223D1E9012E99E852
:100CE0007002D1F81C8081F82130DCF8003043F626
:100CF000F077BB431A4342EA0E0222432A433243AF
:100D000042EA090242EA0802CCF8002000228A6383
:100D100081F8210081F820200020BDE8F0437047D1
:100D200010B5044690F82000012820D0012084F856
:100D3000200094F82100012816D1022084F8210017
:100D40000020A063D4F800C0DCF8000020F001000F
:100D5000CCF800002046FFF7AFFB2068E26A01688C
:100D60003AB141F00E010AE0002084F82000022090
:100D700010BD21F004010160016841F00A01016029
:100D80002068016841F001010160002010BD0000F1
:100D9000B0B5044600F014F9054640F20800C2F26E
:100DA00000000078611C18BF044400BF00F008F97F
:100DB000401BA042FAD3B0BD2DE9F04F82B00E68BF
:100DC000002E00F0F38041F20042C4F2010204233D
:100DD00040F2004E904208BF03234FF6FF7CC4F25E
:100DE000010E009300240123C1F2100C4FF0000A01
:100DF0004FF0000941E0012504F00C030F279F404C
:100E00002BEA070705FA03F33B4342F826304E6806
:100E100040F20C45F202DEF8082054BF22EA080234
:100E200042EA0802C4F20105CEF808202A68B3029B
:100E300054BF22EA080242EA08022A60B303DEF83D
:100E4000042054BF22EA080242EA0802F303CEF863
:100E50000420DEF800204FF0010354BF22EA08020C
:100E600042EA0802CEF800200E680AF1010A36FABA
:100E70000AF204F1040400F0998003FA0AFB16EA6E
:100E80000B08F1D04A68624510DC122A50D8DFE81E
:100E900002F0330A41454F4F4F4F4F4F4F4F4F4F87
:100EA0004F4F4F484C00D1F80C9041E04FF6FF7582
:100EB000C1F22105AA420FDC0025C1F21105AA42A8
:100EC0001AD00025C1F21205AA4215D00025C1F2A0
:100ED0002105AA4210D02BE00025C1F22205AA422A
:100EE0000AD00025C1F23105AA4205D00025C1F281
:100EF0003205AA421CD100BF8A6842B1012A14BF40
:100F0000C0F814B0C0F810B04FF0080910E04FF06E
:100F100004090DE0CA6802F1080909E04FF0000970
:100F200006E0CA6802F1040902E0CA6802F10C098D
:100F300022460546B8F5807F24BF203A04352E6846
:100F40000F279740BE4309FA02F232432A60CA795A
:100F5000D2067FF589AF41F21803C4F202031A6882
:100F60004FEA9A0642F001021A601A6840F600033E
:100F700002F001020192019AAEF57E7252F826B09B
:100F8000C4F2010398420FD040F60043C4F20103BB
:100F900098423FF430AF41F20003C4F20103009DD8
:100FA000984208BF022527E7002525E702B0BDE8E3
:100FB000F08F0000002A08BF09040161704700009B
:100FC00040F6EC10C2F20000006870477047000065
:100FD00070470000F0B581B0036804465A68C56ADE
:100FE00090F83E1090F83DC0402901D010290BD157
:100FF0009F695869C60728D1B5F12A4F02D0B5F5C7
:101000002A0F24D101B0F0BD206C00280CBF9969D3
:101010000021586912F4007E18BF10F002053CD17F
:10102000BEF1000F18BF10F010013FD14CF00801C5
:10103000292957D1510560D500F0840180295CD160
:10104000204601F0E7FF01B0F0BD96051DD412F473
:10105000007E18BF10F008052DD1BEF1000F18BF9B
:1010600010F002052CD15B687D0703F400632CD4DB
:10107000002BC7D1510558D500F04401402954D167
:10108000204601F0DBFC01B0F0BD204601F02AFB58
:10109000204601F0E3FE01B0F0BD206C00282046A0
:1010A00018BF996901F0DAFF01B0F0BD204601F0E8
:1010B000FFFF01B0F0BD204601F0D2FD01B0F0BD50
:1010C000204601F0E1FD01B0F0BD002B9AD15205A0
:1010D00037D500F08402802A33D1204601F064FD28
:1010E00001B0F0BD510514D500F04401402910D1E4
:1010F000204601F05BFF01B0F0BDBEF1000F18BF4C
:1011000010F004003FF47EAF204601F075FF01B0FF
:10111000F0BDBEF1000F18BF10F004003FF472AF35
:10112000204601F033FF01B0F0BDBEF1000F18BF43
:1011300010F004003FF466AF204601F003FC01B05C
:10114000F0BDBEF1000F18BF10F004003FF45AAF1D
:10115000BCF1210F04D1204601F0E2FC01B0F0BD4A
:1011600040297FF44FAF204601F0BCFE01B0F0BD36
:1011700070470000F0B581B0B0B3044690F83D0070
:1011800028B9002084F83C00204600F0C9F824204B
:1011900084F83D002068016821F0010101600168C8
:1011A00041F400410160016821F40041016000F058
:1011B00057FB48F28041C0F21E0140F600126568FC
:1011C00088424FF00001C0F23D0248F2A16C4FF09E
:1011D000000338BF01219042C0F2010C38BF012347
:1011E000654538BF0B4613B1012001B0F0BD4DF687
:1011F0008361C4F21B31A0FB011221684FEA924EB9
:101200004B684FF4967623F03F0343EA92434B60DA
:1012100044F6D3530F6A0EFB06F6C1F26203A6FB37
:10122000033627F03F03B709654538BF970C7A1C92
:101230001A430A62CA6948F2A0674CF6FF73C0F20B
:101240000107BD4222EA030C0AD801386A00B0FB4C
:10125000F2F001306FF31F30042898BF04202BE018
:10126000A368A0F1010E9BB119206843BEFBF0F00A
:101270000422013062F31F30000512D09BB1192007
:101280006843BEFBF0F00422013062F31F3011E02E
:1012900005EB4500BEFBF0F001306FF31F30000599
:1012A000ECD1012008E005EB4500BEFBF0F0013079
:1012B0006FF31F3040F4004040EA0C00C86108683A
:1012C000D4E9072320F0C000104318430860886861
:1012D00048F2FF3204F10C0790438CCF18431043BF
:1012E000A6698860C86820F0FF0038433043C860B2
:1012F000086840F00100086000202021206484F884
:101300003D10206384F83E0001B0F0BD704700003E
:1013100070470000704700007047000070470000F1
:1013200070B586B0044645F200402168C4F2000062
:1013300000268142CDE904660396029601D006B0EC
:1013400070BD41F21805C4F20205296800F5384065
:1013500041F008012960296801F008010191019913
:10136000C0210291122103910321059102A9FFF7E7
:1013700023FD6868802140F400106860686840F2CE
:10138000901500F40010019001988020C2F2000531
:10139000C4F202004FF44052C5E900062846C5E9F0
:1013A0000261C5E90466C5E90662FFF775FC00281D
:1013B00018BFFFF799F81F2000210022A5636C6277
:1013C00000F07AF81F2000F073F806B070BD00003E
:1013D000704700007047000040F2080040F6EC1132
:1013E000C2F20000C2F2000100780A6810440860EE
:1013F0007047000080B542F20000C4F202000168AC
:1014000041F010010160032000F066F80F2000F0A9
:1014100005F800F02BF8002080BD0000B0B540F2C8
:101420000802C2F2000240F204011278C2F2000186
:101430004FF47A730968B3FBF2F20446B1FBF2F1A0
:10144000084600F081FC0F2C4FF001050CD858B96C
:101450004FF0FF3021460022002500F02DF840F229
:101460000C00C2F2000004602846B0BD82B041F218
:101470001800C4F202000168022241F0010101607B
:10148000016801F0010101910199416841F0805129
:101490004160406800F08050009000980420C4F241
:1014A0000100016862F31A61016002B07047000038
:1014B00080B502F0BFFE80BD70B514460D460646ED
:1014C00002F0C8FE2946224602F0C4FA0146304620
:1014D00002F0C8FE70BD000080B502F0D5FE80BDF0
:1014E00080B5012818D0022843D010283FD141F2FE
:1014F0000401C4F202010A6851F8040CC00136D597
:10150000C2F383402FA3185CD20341D440F60012EB
:10151000C0F23D02504347E041F20400C4F2020031
:10152000C16940F202320A40B2F5817F04BF4FF434
:10153000004080BD01F44071B1F5407F0DD0B1F5A0
:10154000007F14D1026A920744BF49F6404080BD33
:10155000B1F5407F1CBF002080BD50F8040C4EF652
:1015600048018003C0F2010101EAE07080BD002063
:1015700080BD00F087F941F20401C4F2020109685C
:101580000222C1F3813102EB4101B0FBF1F080BDD9
:101590000A6810A3C2F340429A5C42F20043C0F2D0
:1015A000F403B3FBF2F250430968490248BF80BD1F
:1015B0004AF6AB214000CAF6AA21A0FB0101480867
:1015C00080BD00BF02030405060708090A0B0C0DC5
:1015D0000E0F1010010200002DE9F04182B0044608
:1015E000007841F21C06C007C4F202064AD03068F7
:1015F00010F0805808D1306840F08050306030687A
:1016000000F080500190019847F20007C4F20007F3
:101610003868C00512D4386840F480703860FFF72D
:10162000CFFC05463868C00508D4FFF7C9FC401B4D
:101630006428F7D9032002B0BDE8F081706810F487
:10164000407012D0616801F4407188420DD070681A
:1016500040F24042C4F24222012320F44071136060
:101660000023C0071360716029D17068616820F49D
:1016700040700843B8F1000F706003D1306820F06B
:10168000805030602068810707D556F8181CA26882
:1016900021F44041114346F8181CC00603D4002031
:1016A00002B0BDE8F08156F8180CE16820F4800023
:1016B000084346F8180C002002B0BDE8F081FFF79F
:1016C0007FFC054641F2883770688007CDD4FFF76C
:1016D00077FC401BB8424FF00300F5D9ECE700005F
:1016E0002DE9F04381B0002800F0898042F2000823
:1016F000C4F202080446D8F800000D4600F00700C6
:1017000088420CD2D8F8000020F007002843C8F81F
:101710000000D8F8000000F00700A8426FD1206850
:1017200041F204098107C4F2020917D5410705D522
:10173000D9F8001041F4E061C9F80010010705D59F
:10174000D9F8001041F46051C9F80010D9F8001020
:10175000A26821F0F0011143C9F80010C00745D17B
:10176000D8F8000000F00700A8420CD9D8F8000013
:1017700020F007002843C8F80000D8F8000000F067
:101780000700A8423BD12068410707D5D9F80010CF
:10179000E26821F4E0611143C9F80010000708D5A0
:1017A000D9F80000216920F4605040EAC100C9F86E
:1017B000000000F079F8D9F8001044F25472C1F337
:1017C0000311C0F60002515C40F2040220FA01F15C
:1017D00040F20C00C2F200000068C2F20002116088
:1017E000FFF71CFE002001B0BDE8F083606802280E
:1017F00009D0012829D159F8041C890307D40120F4
:1018000001B0BDE8F08359F8041C8901F7D5D9F877
:10181000001021F003010843C9F80000FFF7D0FBD6
:10182000064641F2883700BFD9F80000616800F031
:101830000C00B0EB810F93D0FFF7C2FB801BB842C6
:10184000F2D9032001B0BDE8F08359F8041C8907E0
:10185000D5D5DCE740F20400C2F200000068704712
:1018600080B5FFF7F7FF41F20401C4F202010968F5
:1018700044F26472C1F30221C0F60002515CC84018
:1018800080BD000080B5FFF7E5FF41F20401C4F21E
:101890000201096844F26472C1F3C221C0F6000279
:1018A000515CC84080BD000041F20401C4F2020155
:1018B0000B6842F2004003F00C02042AC0F2F4006C
:1018C00008BF7047082A0CD1C3F3834C0CA212F84E
:1018D0000C20DB030AD440F60010C0F23D00504358
:1018E000704741F20020C0F27A007047096808A3EF
:1018F000C1F34041595C5043B0FBF1F0704700BF69
:1019000002030405060708090A0B0C0D0E0F101040
:10191000010200002DE9F04182B0002800F0C480EF
:101920000446007841F20006C007C4F2020643D024
:10193000706800F00C00042817D0706800F00C00EC
:10194000082802D17068C0030FD465682DB1B5F5C1
:10195000A02F10D0B5F5803F11D0306820F4803032
:101960003060306820F480200CE03068800323D59C
:10197000606808BB98E0306840F4802030603068D0
:1019800040F480303060FFF71BFB002D054610D07F
:101990003068800310D4FFF713FB401B6428F7D98D
:1019A00004E100BFFFF70CFB401B64284FF003006D
:1019B00077D830688003F5D42078800718D5706810
:1019C00010F00C0F07D0706800F00C00082826D12A
:1019D0007068C00323D43068800702D520690128CD
:1019E00062D13068616920F0F80040EAC1003060DF
:1019F000207800073DD5A06938B30020C4F242200A
:101A00000121C0F88014FFF7DBFA0546706A8007F1
:101A10002DD4FFF7D5FA401B0228F7D9C6E020697C
:101A2000002840F20000C4F2422000F0968001211C
:101A30000160FFF7C5FA054630688007D1D4FFF78B
:101A4000BFFA401B0228F7D9B0E00020C4F24220C0
:101A50000021C0F88014FFF7B3FA0546706A8007CA
:101A600007D5FFF7ADFA401B0228F7D99EE002F038
:101A700009F8207840071BD4E5698DB1706800F043
:101A80000C00082847D1012D0ED07068216A00F49F
:101A900080328A4208D1616A00F47010884203D112
:101AA000002002B0BDE8F081012002B0BDE8F08165
:101AB000F06910F0805808D1F06940F08050F06172
:101AC000F06900F080500190019847F20007C4F2DD
:101AD00000073868C00510D4386840F4807038605A
:101AE000FFF76EFA054600BF3868C00505D4FFF75A
:101AF00067FA401B6428F7D958E0E5681DB1052D49
:101B00003CD0012D3ED0306A20F001003062306AB6
:101B100020F0040039E00027C4F242270020386694
:101B2000FFF74EFA022D05460CD100BF3068800148
:101B300054D5FFF745FA401B02284FF00300F5D9B2
:101B4000AFE700BF30688001AAD5FFF739FA401B24
:101B500002284FF00300F5D9A3E700210160FFF749
:101B60002FFA0546306880077FF542AFFFF728FA65
:101B7000401B02284FF00300F4D992E7306A40F08E
:101B800004003062306A40F001003062FFF718FA5A
:101B9000002D054641F2883714D000BF306A800717
:101BA00013D4FFF70DFA401BB842F7D9032002B057
:101BB000BDE8F081FFF704FA401BB8424FF0030084
:101BC0003FF66FAF306A8007F4D4B8F1000F7FF4AE
:101BD00053AFF06920F08050F0614DE7206AB0F516
:101BE000803F05D17168A26821F400311143716012
:101BF0007168626A21F47411104308437060012017
:101C00003866FFF7DDF90446306880013FF548AFDC
:101C1000FFF7D6F9001B02284FF00300F4D940E784
:101C200070B538B10446406A30B10020206104F13B
:101C3000140007E0012070BD6068B0F5827F03D01A
:101C400004F11C00002101600026A66294F85100F6
:101C500020B9204684F8506000F038F8022084F85B
:101C6000510094E8071001F48271036802F4044201
:101C700023F040030360236911440CF40062114413
:101C800003F002026369114403F00102A369E569EC
:101C9000114403F40072114405F03802256A11441E
:101CA00005F08002A56A114305F40052114301605A
:101CB000042101EA13414160C16921F40061C1615D
:101CC0000120666584F85100304670BD70B586B05D
:101CD00040F60004C4F20104006804F52051002617
:101CE00088420596CDE90366029601D006B070BD24
:101CF00041F21800C4F20200016802AD41F48051C3
:101D00000160016801F4805101910199016841F07D
:101D1000040101600068294600F004000190019868
:101D2000A020029002200390032005902046FFF798
:101D300043F84020CDE90206204629460496FFF7E5
:101D40003BF806B070BD000080B501F0B3FE80BD69
:101D500010B590F83C20012A4FF0020231D0012347
:101D600080F83C3080F83D200268D2F804E0D2F8D8
:101D700008C00C682EF07003234340F2FF74C4F2D5
:101D80000004A242536005DCB2F1804F0ED040F255
:101D9000004307E042F60043C4F201039A4205D033
:101DA00040F60003C4F200039A4204D149682CF0C3
:101DB0008003194391600121002280F83D1080F8D2
:101DC0003C20104610BD0000002804BF01207047D1
:101DD00010B5044690F83D0028B9002084F83C0076
:101DE000204600F01FF8022084F83D002068211DE5
:101DF00001F0FAFE012084F8460084F83E0084F8E1
:101E00003F0084F8400084F8410084F8420084F8E0
:101E1000430084F8440084F8450084F83D00002025
:101E200010BD000080B582B0006840F20041C4F2ED
:101E30000001884201D002B080BD41F21C00C4F212
:101E400002000168002241F00201016000680021E7
:101E500000F00200019001981D20FFF72DFB1D20CE
:101E6000FFF726FB02B080BD10B5044690F83C0099
:101E700001284FF0020008BF10BD012284F83C2069
:101E800084F83D0020684FF6777382689A43826039
:101E90000A684F2A0FDC1F2A22DD202A23D0302A8D
:101EA00021D0402A4DD14B68CA68194601F0BAFFCB
:101EB000206840213BE06F2A17DDB2F5005F20D09B
:101EC000B2F5805F2AD0702A3BD1D1E9012CCB68D2
:101ED000614601F0D7FE2068816841F077011AE081
:101EE0000AB1102A2DD1114621E0502A18D0602ABB
:101EF00027D14B68CA68194601F0A6FF2068602107
:101F000015E0D1E9012CCB68614601F0BBFE2068E9
:101F1000816841F48041816000200BE0002009E0ED
:101F20004B68CA68194601F07DFF2068502101F016
:101F3000B5FE0020012184F83D10002184F83C10FA
:101F400010BD0120F6E7000080B586B0016840F6BC
:101F50000000C4F2000081424FF00001CDE90411FD
:101F6000CDE9021101D006B080BD41F21801C4F2E2
:101F700002010A6800F5823042F008020A6009682E
:101F800001F00801019101994FF480710291022141
:101F90000391059102A9FEF70FFF06B080BD000076
:101FA00010B5044690F83C00012804BF022010BD83
:101FB0004FEAB2020120032A84F83C0013D8DFE87C
:101FC00002F002060A0E206801F070FE0AE02068A6
:101FD00001F09CFE06E0206801F0CCFE02E02068E3
:101FE00001F0FAFE0020002184F83C1010BD000032
:101FF000002804BF0120704710B5044690F83D004A
:1020000028B9002084F83C00204600F01FF8022088
:1020100084F83D002068211D01F0E6FD012084F8D0
:10202000460084F83E0084F83F0084F8400084F8BD
:10203000410084F8420084F8430084F8440084F8A6
:10204000450084F83D00002010BD000070470000EE
:10205000B0B5044690F83C00012804BF0220B0BD92
:102060000D464FEAB2010120032984F83C0037D81D
:10207000DFE801F0020A12222068294601F016FE6C
:10208000206850F8181F0EE02068294601F03EFE37
:10209000206850F8181F16E02068294601F06AFEF3
:1020A000206850F81C1F41F008010160016821F010
:1020B0000401016029690FE02068294601F08CFEC7
:1020C000206850F81C1F41F400610160016821F490
:1020D00080610160296909020268114301600020E2
:1020E000002184F83C10B0BD002804BF01207047D7
:1020F00010B5044690F83D0028B9002084F83C0053
:10210000204600F01FF8022084F83D002068211DC1
:1021100001F06AFD012084F8460084F83E0084F84E
:102120003F0084F8400084F8410084F8420084F8BD
:10213000430084F8440084F8450084F83D00002002
:1021400010BD000081B0006840F60001C4F200013B
:10215000884201D001B0704741F21C00C4F2020075
:10216000016841F004010160006800F00400009083
:10217000009801B0704700007047000070470000F1
:10218000704700007047000070470000B0B582B093
:10219000036804461868D9685A6900F02F05202D95
:1021A00001F0200505D125B1204601F0CDFE02B099
:1021B000B0BD5FEA007C1EBF02F0010E01F4907218
:1021C00012EB0E024BD1226B0840C1063ED5012A0C
:1021D0003CD1002001901868019058680190019846
:1021E0005869400643D4A08DE18DE28D002A1CBFC2
:1021F000401A5FEA004101D102B0B0BD216851E848
:10220000031F226821F4907142E80313002BF5D1DB
:10221000216851E8051F226821F0010142E80513F9
:10222000002BF5D1202184F842100021216300BF4A
:10223000216851E8031F226821F0100142E80313CE
:10224000002BF5D102216163E26E54E0010657D400
:102250004006D1D5204601F039FE02B0B0BDC2071C
:1022600018BF11F4807250D1420754D45AE0E06B89
:10227000016849688AB2002ABED0A38D9A42BBD2B7
:10228000E1858069202830D0206850E8030F21685C
:1022900020F4807041E80302002AF5D1206850E85C
:1022A000050F216820F0010041E80502002AF5D160
:1022B000206850E8050F216820F0400041E8050241
:1022C000002AF5D1202084F842000020206300BFBE
:1022D000206850E8030F216820F0100041E8030255
:1022E000002AF5D1E06BFEF79BFB02206063E26EF3
:1022F000A08DE18D401A81B22046904702B0B0BD5A
:10230000204601F0CDFE02B0B0BD626C42F0010289
:102310006264420706D5BEF1000F03D0626C42F042
:1023200002026264820706D5BEF1000F03D0626C20
:1023300042F004026264BCF1000F06D55EEA0502B9
:1023400003D0626C42F008026264626C002A3FF4BF
:1023500053AF0840800602D5204601F0F5FD206805
:102360004069616C00F0400001F00801401825D080
:10237000204601F083FD20684069400619D500BF62
:10238000206850E8050F216820F0400041E8050270
:10239000002AF5D1E06B60B143F66D61C0F6000133
:1023A0004163FEF75DFB00283FF426AFE06B416B15
:1023B00001E0A16D2046884702B0B0BDA16D204666
:1023C00088470020606402B0B0BD0000002804BF50
:1023D0000120704710B5044690F8410078B90020FC
:1023E00084F84000204601F07DFD206F20B942F2C4
:1023F0004140C0F600002067216F20468847242016
:1024000084F841002068C16821F40051C160204671
:1024100001F0FEFD2068016921F4904101614169EC
:1024200021F02A014161C16841F40051C1600020DE
:102430002021606484F8411084F84210606310BD6C
:10244000F0B585B00446006844F20041C4F20001D2
:10245000002688420496CDE90266019659D044F6DA
:102460000001C4F20001884200F0828043F60001BE
:10247000C4F20101884240F0C68041F21800C4F263
:102480000200016840F6000541F4804101600168E6
:10249000C4F2010501F4804100910099016801AE88
:1024A00041F0040101600068314600F00400009032
:1024B00000984FF4007001900220029003200490D5
:1024C0002846FEF779FC4FF48060019000272846EB
:1024D0003146CDE90277FEF76FFC3020C4F20200EE
:1024E00040F2D4152830C2F200058021C5E900076A
:1024F0002846C5E90271C5E90477C5E90677FEF704
:10250000CBFB002818BFFDF7EFFFE5636C6205B059
:10251000F0BD41F21800C4F20200416840F6000428
:1025200041F4003141604168C4F2010401F400311A
:1025300000910099016801AD41F00401016000685B
:10254000294600F004000090009804200190022029
:102550000290032004902046FEF72EFC0820CDE9CF
:102560000106204629460396FEF726FC05B0F0BD7D
:1025700041F21800C4F20200416801AE41F480212A
:102580004160416801F4802100910099016841F0A7
:10259000080101600068314600F0080000900098D2
:1025A0004FF480600190022002900320049040F6D6
:1025B0000000C4F2010000F580652846FEF7FCFB30
:1025C0004FF400600190002728463146CDE902779C
:1025D000FEF7F2FB40F218253020C2F20005C4F2EB
:1025E00002008021C5E900072846C5E90271C5E956
:1025F0000477C5E90677FEF74FFB002818BFFDF703
:1026000073FFE5636C6205B0F0BD00007047000029
:10261000704700002DE9F041044690F84100202861
:102620001CBF0220BDE8F0810E4600294FF00100DA
:1026300042D01746002A08BFBDE8F0814FF00008DD
:1026400021201D46C4F8448084F84100FEF7B8FC00
:10265000A784E784A1680746B1F5805F0DD12069A2
:10266000002814BF3046B046064606E016F8010BB7
:1026700021684860E08C0138E084E08C80B120461D
:1026800080213A462B4601F035FDB8B9002EEDD138
:1026900038F8020B21686FF35F2048600026E9E7F5
:1026A000204640213A462B4601F024FD202184F8A3
:1026B0004110002818BF0320BDE8F081202084F8D5
:1026C00041000320BDE8F081704700007047000022
:1026D000FEE7000080B540F25C20C2F20000FEF789
:1026E00079FC80BDC16AB1F52A0F02D10121C16216
:1026F0007047C16AB1F12A4F18BF70470821C16203
:102700007047000010B582B000210191406A40F28C
:102710000401C2F2000190F83DC009684BF28952F1
:10272000C908C1F2F842A1FB0212110A2322514347
:10273000019100BF019939B10199013901910168F5
:1027400009688905F6D403E0016C41F020010164B9
:10275000446B4FF0000E002C1CBF0021A162816B66
:1027600000291CBF00228A620268002C136823F42F
:1027700080631360A0F82AE018BFC4F834E0002991
:102780001CBF00234B63116821F00101116090F818
:102790003D1060290AD1202180F83D10002180F8E9
:1027A0003E100164FEF712FC02B010BD0CF02801CF
:1027B00028290DD1116841F001011160116841F41F
:1027C0008061116000210163282180F83D1005E03F
:1027D000202180F83D10002180F83E10FEF7C8FC53
:1027E00002B010BD00684169090644BF00210161C3
:1027F0007047000010B5044690F83D0094F83E1074
:10280000402901D0102906D1222804D121680A6864
:1028100022F400620A6000F02801282905D1002076
:102820002063282084F83D000EE021686028496874
:1028300008D011F4006005D1202084F83D0000206C
:1028400084F83E00002020632068416809051AD4FE
:1028500094F83D10602935D1202184F83D100021E5
:1028600021644169490605D50069616A0870606A9A
:10287000013060622068016821F00101016020469A
:10288000FEF7A4FB3EE0416821F400614160606B0B
:1028900090F82110012922D1A06B42F20571C0F6F7
:1028A00000014163FEF7DCF860B320684169490626
:1028B00005D50069616A0870606A0130606221684C
:1028C000A06B16E04169490605D50069616A087088
:1028D000606A013060622046FEF74AFC12E042F274
:1028E0000571C0F600014163FEF7BAF850B12168E6
:1028F000606B0A6822F001020A60202184F83D1012
:10290000416B8847206C000704D02068416821F49F
:10291000E061416094F83D10206C282911D110F03D
:10292000040008BF10BD0020CFF6FF70E062002059
:102930002021206384F83D1084F83E002046FEF7F5
:10294000E5FC10BD80B5C16A428D042A07D101683B
:10295000426A4B6823F480634B60096911E0428D41
:10296000032A16D102680229536823F48063536056
:1029700005D0042903D0116821F480611160116928
:10298000426A1170416A01314162418D01394185CC
:1029900080BD428D022A11D14A1E0F2A16D8DFE8C7
:1029A00002F0081015101515151515151515151526
:1029B00015080268136823F480630BE00168426A1B
:1029C000CBE70268136843F4806303E0026813688E
:1029D00043F4007313600268436A12691A70426A12
:1029E000D0F800C0531C4362438D013B4385DCF8A3
:1029F00010305370426A036801324262428D013ADC
:102A000042855A6822F440725A60202280F83D20A4
:102A100090F83E300022402B80F83E2003D1026324
:102A2000FEF77AFC80BD08294FF0000202D0202971
:102A300018BF12220263FEF76BFC80BDB0B50446DE
:102A400090F83D0022283DD1E56A608D042813D31B
:102A50002068616A00690870606A01306062608D98
:102A600001386085608D032818BFB0BD20684168BB
:102A700021F480614160B0BDE16A01281DD80229BE
:102A80001BD0204600F0C6FB2168E0B1486820F466
:102A9000E06048600869616A0870606A01306062DD
:102AA000608D01386085202084F83D00002084F886
:102AB0003E002046FEF75CFBB0BD2068416821F473
:102AC00080614160B0BD086820F48060086048689B
:102AD00020F4E06048600869616A0870606A01304B
:102AE0006062608D01386085202084F83D0094F894
:102AF0003E100020402984F83E0004D12063204687
:102B0000FEF70AFCB0BD082D4FF0000002D0202DCA
:102B100018BF122020632046FEF7FAFBB0BD00006C
:102B200080B5C16A90F83D20212A18BF80BD428D32
:102B30004AB1416A026811F8013B13614162418D5B
:102B40000139418580BD11F5803F18BF082919D191
:102B500001684A6822F4E0624A600A6842F400723E
:102B60000A6000212022016380F83D2090F83E2079
:102B700080F83E10402A02D1FEF7D0FB80BDFEF760
:102B8000C9FB80BD2029E3D001684A6822F4E062D5
:102B90004A6011210163002180F83E10202180F855
:102BA0003D10FEF7B7FB80BD80B590F83D3090F842
:102BB0003EC0C26A212B1DD1018DD9B912F5803FCB
:102BC00018BF082A2AD101684A6822F4E0624A60E4
:102BD0000A6842F400720A6000212022016380F832
:102BE0003D2090F83E2080F83E10402A13D1FEF799
:102BF00095FB80BD212B05D0222B08BFBCF1400FD7
:102C000000D080BD418DD9B190F83E1040291DD132
:102C100000F068F980BDFEF77DFB80BD202AD2D090
:102C200001684A6822F4E0624A60112101630021D0
:102C300080F83E10202180F83D10FEF76BFB80BD30
:102C40000068416821F48061416080BD416A02688A
:102C500011F8013B13614162418D0139418580BD0D
:102C60000168426B436CDBB20B610AB1926A2AB90C
:102C7000806B38B1806A002808BF7047486840F40C
:102C8000006048607047000081B090F83E30D0F896
:102C90002CC0026B90F83D10222919D1402B016DF8
:102CA00008BF002914D0016DE1B90169B1F5404FA9
:102CB00018D10021009101684A6900928A69009246
:102CC000009A0A6842F480720A60016D0131C2E024
:102CD000002100910068416900918069009000988E
:102CE00001B07047418D81B1418D01291AD1BCF1EC
:102CF000200F18BFBCF1080F50D101680A6822F4F8
:102D000080620A600022009202E0002100910168C6
:102D10004A6900928A690092009A0A6842F4007235
:102D20000A6097E0418D022917D1BCF1100F5CD8E1
:102D30000121142201FA0CF1C0F20102114254D017
:102D400001680A6842F480620A60002200924A69BF
:102D5000009289690091009957E00268116841F476
:102D6000806111605168090512D5ACF101031F2B78
:102D700007D80121994048F28103C8F200031942A3
:102D800002D11CF5803F03D1516841F4805151605C
:102D90000021009151690091916959E01CF5803F33
:102DA0000ED101680A6822F480620A604A6812053E
:102DB000A8D50A6822F480620A600022009244E0EA
:102DC000BCF1010F01D0122A97D0BCF1100F34D8FA
:102DD0000121142201FA0CF1C0F2010211422CD09F
:102DE00001680A6842F480622BE001680A6842F4D4
:102DF00000620A60002200924A6900928A69009289
:102E0000009A0A6822F480620A6002685168090523
:102E100020D5ACF101031F2B07D80121994048F2BE
:102E20008103C8F20003194202D11CF5803F11D181
:102E3000516841F4805151600CE001680A6822F445
:102E400080620A600021009101684A6900928969E4
:102E5000009100990021016501B0704790F83E1083
:102E600040290AD1016D426C002902F0FE012ED0EA
:102E7000006841F00101016170470169B1F5804FBF
:102E800017D190F83D10426C212902F0FE0218BFC4
:102E90000132416B03681A6109B1896A19B9816B02
:102EA000A1B1896A91B10068416841F40061416053
:102EB0007047016D71B1016D012918BF704701683C
:102EC000406C062202EAD010F130086170470068B9
:102ED000016170470168406C062202EAD010F030B0
:102EE0000861704780B590F83D10026D3AB1026DEF
:102EF000012A0FD10168826CD2B20A6119E0C26C5A
:102F0000816C012A11D10268C9B21161016D0231CF
:102F1000016580BD026D022A0FD1222910D10168FE
:102F20000A6842F480720A6003E00268C1F3072174
:102F30001161016D0131016580BDFFF753FC80BD5A
:102F4000428D21290AD14AB1416A026811F8013B38
:102F500013614162418D0139418580BD2129428D36
:102F600008BF002AEBD101684A6822F4E0624A6097
:102F70000A6842F400720A6000212022016380F88E
:102F80003D2080F83E10FEF7C9F980BD418D002933
:102F900008BF70470168426A09691170416A0131CE
:102FA0004162418D013941857047000080B590F83C
:102FB0003D10428D002A08BF80BD0268436A126935
:102FC0002A291A70426A02F101024262428DA2F17C
:102FD00001024285428D08BF002A00D080BD0168F1
:102FE0004A6822F480624A6022210163282180F825
:102FF0003D10FEF7EDF980BD418D002908BF7047F7
:10300000416A026811F8013B13614162418D013947
:103010004185704780B590F83DC0418D002908BFBB
:1030200080BD436A016813F8012BBCF1290F0A61C6
:103030004362428DA2F101024285438D08BF002BFD
:1030400000D080BD4A6822F480624A602121016379
:10305000282180F83D10FEF7BDF980BD80B582B013
:1030600090F83D2002F02802282A15D10268536802
:1030700023F480635360012222EA910309064FF092
:10308000180158BF0C21425A002180F83C10194603
:10309000FDF79EFF02B080BD0021019102685369D7
:1030A000019392690192019A80F83C1002B080BDB0
:1030B000B0B582B090F83D5001680446486820F4ED
:1030C000E06048600020019048690190086840F085
:1030D000010008600198086820F480600860486872
:1030E00000053ED545F008002A281CD1A06B0268D7
:1030F00052686285628D1AB1226C42F00402226429
:103100004A6822F400624A60FDF702FD012828D0D7
:10311000A06B42F20571C0F600014163FDF7A0FC0F
:10312000F8B1A06B1BE0606B026852686285628D2B
:103130001AB1226C42F0040222644A6822F400624E
:103140004A60FDF7E5FC01280BD0606B42F2057187
:10315000C0F600014163FDF783FC10B1606B416B69
:103160008847608DF8B120684169490708D5006932
:10317000616A0870606A01306062608D0138608544
:1031800020684169490608D50069616A0870606A6B
:1031900001306062608D01386085608D18B1206CEF
:1031A00040F004002064206C20B12046FFF722FB91
:1031B00002B0B0BD2A2D07D100202063282084F85A
:1031C0003D002046FEF704F994F83D0028280FD171
:1031D0000020CFF6FF70E06200202021206384F8F9
:1031E0003D1084F83E002046FEF790F802B0B0BDD6
:1031F000222D206B18BF222809D100202021206316
:1032000084F83D1084F83E002046FEF7E1F802B055
:10321000B0BD000081B00021009140F20401C2F273
:10322000000109684BF28952C908C1F2F842A1FBBA
:103230000212110A01EB8101009100BF00990139CE
:103240000091009931B1016809688905F6D4002020
:1032500001B07047016C41F020010164012001B010
:103260007047000070B540F24006C2F2000696F8C2
:103270005110044639B100200021002500F0FAF871
:10328000E0B1284670BD012086F8520001200021DF
:10329000002500F0EFF80028F3D104F1120000211E
:1032A000B278CA4002F0010220F811200131102941
:1032B000F6D1002086F82C00012070BD04F1120028
:1032C000002100BFB278CA4002F0010220F81120AC
:1032D00001311029F6D10020012586F82C0028465E
:1032E00070BD0000B0B540F24005C2F200050446D2
:1032F00028465821FCF71DFF40F21040C2F20000A2
:1033000000686FF0800101606FF0400101606FF0B4
:10331000200101602046012185F8514000F0AAF803
:10332000002085F82C00B0BD40F24000C2F2000041
:1033300090F831102F300231002200BF10F8013F09
:10334000013913449AB2F9D1D843C0B27047000092
:10335000B0B540F24005C2F2000595F851100446A0
:10336000012923D095F8520080F001000843B0FAFB
:1033700080F040091AD195F82D00052868D8DFE8BB
:1033800000F0031A2A333A4CB4F15500B0FA80F039
:103390004FEA501085F82D001CBF052085F82C0041
:1033A000552085F82E004FF0FF30B0BD0020AC70E6
:1033B00085F85200B0BD0120AA2C08BF022085F874
:1033C0002D001CBF052085F82C00AA2085F82F00B1
:1033D0006FF00100B0BD00206864032085F82D0067
:1033E000012085F83040B0BD112C36D30520A885CA
:1033F0006FF00200B0BD686C411C2844696480F81D
:103400003240686C95F8311088421CBF0320B0BD73
:10341000052085F82D000320B0BDFFF785FF01468C
:103420000020A14285F82D001ED1D5F83210D5F824
:103430003620D5F83E30D5F83A40C5F80E30C5F8FC
:103440000A40C5F80620C5F8021085F85200B0BD44
:103450000520A8856FF06300B0BD042085F82D001D
:10346000022085F83140B0BD052085F82C006FF0B2
:103470006200B0BD40F24002C2F2000292F82C306D
:10348000052B27D0042B2BD03BBB002808BF0029DD
:103490002BD082F848000020D06482F82D0040F242
:1034A0001040C2F20000006882F850106FF0200156
:1034B00001606FF0400101606FF080010160C16840
:1034C00041F08001C160C16841F04001C16001214B
:1034D00048B27047002082F82C00FF2148B27047A4
:1034E000002148B282F82C10704782F8480040F260
:1034F0001040C2F2000001210068D164C26842F0AD
:103500002002C26048B2704780B584B040F21C10FF
:1035100042F200420021C2F20000C4F20102039113
:10352000CDE901114FF4807C017301754FF46023E4
:10353000C0E900210321C361C0F808C00161FDF7A3
:10354000DFF8002818BFFCF7CFFF0D200190012005
:1035500002900720039040F21C10C2F2000001A963
:10356000FDF740F8002818BFFCF7BEFF0A200190C5
:103570000220029040F21C10C2F2000001A9FDF7E7
:1035800031F8002818BFFCF7AFFF0420019003209A
:10359000029040F21C10C2F2000001A9FDF722F8CF
:1035A000002818BFFCF7A0FF40F21C10C2F2000078
:1035B000FCF7A0FF04B080BD80B582B041F21400DA
:1035C000C4F202000168002241F0010101600068BC
:1035D000002100F00100019001980B20FDF76CFF25
:1035E0000B20FDF765FF0D2000210022FDF764FF91
:1035F0000D20FDF75DFF0F2000210022FDF75CFF8D
:103600000F20FDF755FF02B080BD00002DE9F04FFF
:1036100087B0002441F21800CDE90544CDE9034408
:10362000C4F20200016840F6004941F02001016047
:103630000168C4F2010901F02001029102990168B8
:1036400009F5806541F0100101600168012201F077
:1036500010010291029901684FF0010A41F0040142
:103660000160016801F0040102910299016841F0D2
:10367000080101600068022100F008000290029831
:103680002846FDF797FCA9F5806630460221012205
:10369000FDF790FC48464FF442410122FDF78AFCB9
:1036A00028464FF4C0510022FDF784FC09F5006064
:1036B000042100220190FDF77DFC484638210022BC
:1036C000FDF778FC022003AFCDE9030ACDE9054000
:1036D000284639464FF00208FDF76EFB4FF0030B0A
:1036E00030463946CDE9038A0594CDF818B0FDF788
:1036F00063FB4FF40050CDE9030448463946059476
:10370000FDF75AFB4FF48440CDE9030A4846394699
:10371000CDE905A8FDF750FB4FF40040CDE9030AC1
:1037200048463946CDE90548FDF746FB4FF4C05001
:10373000CDE9030A28463946CDE9054BFDF73CFBA8
:103740000420CDE9030A01983946CDE9054BFDF780
:1037500033FB3820CDE9030A48463946CDE9054B0D
:10376000FDF72AFB07B0BDE8F08F000080B540F2FE
:103770005C2045F20041C2F20000C4F2000148F2B0
:10378000A06200234FF4804CC0F2010280E80E00DA
:10379000C0E9033CC0E90533C0E90733FDF7EAFCA3
:1037A000002818BFFCF7A0FE80BD000080B52520D2
:1037B00003210022FDF780FE2520FDF779FE26205B
:1037C00002210022FDF778FE2620FDF771FE27205A
:1037D00001210022FDF770FE2720FDF769FE112070
:1037E00000210022FDF768FE1120FDF761FE80BD7B
:1037F00080B540F2B02043F20001C2F20000C4F2F2
:1038000001014FF48272002380E80E0000F11401E0
:103810004FF4007C4FF0380E81E808500A21C0E9CF
:103820000333C0E90833C0E90A31FEF7F9F900288B
:1038300018BFFCF759FE80BD10B58EB040F20830BD
:103840000021C2F2000040F2004241F287340D91A3
:10385000CDE90B11CDE90911CDE90711CDE905112C
:10386000CDE90311CDE90111C4F200024723C0E9FB
:10387000021401618021C0E900238161FEF7A4FAEE
:10388000002818BFFCF730FE4FF480500A9040F239
:103890000830C2F200000AA9FEF7E6FA002818BFB5
:1038A000FCF722FE40F20830C2F20000FEF7A0FB57
:1038B000002818BFFCF718FE40F208300024C2F2BE
:1038C000000008A9CDE90844FEF742FA002818BF15
:1038D000FCF70AFE40F20830C2F2000001A9002203
:1038E000CDE9014403940594FEF75AFB002818BF64
:1038F000FCF7FAFD40F20830C2F2000001A90422F0
:10390000FEF74EFB002818BFFCF7EEFD0EB010BD11
:1039100010B58AB040F2503040F60001C2F200000B
:10392000C4F200010024472241F2873380E81600E8
:1039300080210994CDE90744CDE90544CDE903444C
:10394000CDE90144C0E903348161FEF7CDFB0028D5
:1039500018BFFCF7C9FD40F25030C2F2000008A9C0
:10396000CDE90844FEF7F4F9002818BFFCF7BCFDC8
:10397000602001900020CDE90200059040F2503017
:10398000C2F2000001A90822FEF762FB002818BF5E
:10399000FCF7AAFD40F25030C2F20000FEF7D4FA64
:1039A0000AB010BD80B540F2983043F60001C2F273
:1039B0000000C4F2010100234FF00C0C4FF416522A
:1039C00080E80E00C0E90333C0E905C3C361FEF718
:1039D000FDFC002818BFFCF787FD80BD80B540F2D4
:1039E000104044F20041C2F20000C4F20001002382
:1039F0004FF00C0C4FF4E13280E80E00C0E90333C5
:103A0000C0E905C3C361FEF7E1FC002818BFFCF75D
:103A10006BFD80BD80B540F2884044F60001C2F2E3
:103A20000000C4F2000100234FF0040C4FF41652C2
:103A300080E80E00C0E90333C0E905C3C361FEF7A7
:103A4000C5FC002818BFFCF74FFD80BDFEE7000055
:103A5000FEE7000000F0070080F00703042B28BFFA
:103A600004234FF0FF3C03380CFA03F338BF002067
:103A7000994381400CFA00F022EA000008437047A5
:103A80007047000081B040F20400C2F200000068FC
:103A900044F6D351C1F26201A0FB0101480A009033
:103AA00000BF0098411E00280091F9D101B0704775
:103AB00070470000B0B501380024B4EB106F1CBF94
:103AC0000120B0BD4EF21005CEF2000568604FF047
:103AD000FF300F2100F0C6FB0720AC6028602046B5
:103AE000B0BD000010B5FDF777FC40F6E814C2F257
:103AF000000420684CF6CD410130CCF6CC41414366
:103B00004CF6CC424FEAB101C0F6CC429142206063
:103B100005D800F0F1FC00F0D5FB00F0C5FB2068F3
:103B200047F6D501C2F2E961484348F637114FEA3A
:103B3000F000C0F24101884200D910BD00F03CFC09
:103B40000021C4F2D001FCF76FFB002818BF10BDA4
:103B50004FF4C870C821012200F014FC10BD000011
:103B600070B594B00AAC20462821FCF7E2FA012097
:103B70000A900E904FF4E01000254FF480314FF47E
:103B800000320226139020460995CDE90755CDE96C
:103B90000555CDE90355CDE901550B910C92CDE9C1
:103BA0001161FDF7B7FEC0B90F20CDE905064FF44E
:103BB0008060CDE9080505A802210795FDF790FD75
:103BC00058B9022001904FF40040039001A8FDF77E
:103BD00003FD002804BF14B070BDFCF785FC000095
:103BE000704700007047000010B540F2FF7E036888
:103BF000C4F2000E42F6004C7045C4F2010C05DC24
:103C0000B0F1804F0AD040F2004203E0604505D099
:103C100040F60002C4F20002904203D14A6823F049
:103C200070031343704505DCB0F1804F0AD040F2B9
:103C3000004203E0604505D040F60002C4F20002F5
:103C4000904203D1CA6823F44073134323F08002E7
:103C50004B69D1F800E08C681A4360450260C46289
:103C6000C0F828E002D10969CCF830100121416187
:103C70000169C90708BF10BD016921F00101016197
:103C800010BD0000D0F808C011432CF47F4C41EA6D
:103C9000032141EA0C01816070470000826822F034
:103CA0007002114341F0070181607047B0B5026AAC
:103CB000036A42F6004423F001030362D0F804E0F3
:103CC000D0F818C08B6822F00202C4F20104A042AE
:103CD00042EA030205D1CB6822F00C0223F0040370
:103CE0001A430B68A04207D1D1E905452EF4407E66
:103CF00044EA0E0444EA050E2CF073052B43C0F889
:103D000004E08361496841630262B0BDB0B5026AF4
:103D1000036A42F6004423F010030362D0F804E083
:103D2000D0F818C08B6822F02002C4F20104A0422F
:103D300042EA031207D1CB686FF0400522F0C002BF
:103D400005EA03131A430B68A04207D1D1E90545E0
:103D50002EF4406E4EEA840444EA850E2CF4E645C7
:103D600045EA0323C0F804E0836149688163026285
:103D7000B0BD0000B0B5026A036A42F6004423F405
:103D800080730362D0F804E0D0F81CC08B6822F482
:103D90000072C4F20104A04242EA032207D1CB68B8
:103DA00040F2FF451B0222F44062AB431A430B680A
:103DB000A04207D1D1E905452EF4405E4EEA041435
:103DC00044EA051E2CF073052B43C0F804E0C361E0
:103DD0004968C1630262B0BDB0B5D0F820C0026AC4
:103DE00042F6004522F4805202624268C3690C68C0
:103DF000D1F808E0C4F20105A84204D14D6922F4CB
:103E0000804242EA851223F4E64343EA04234260F7
:103E1000C3612CF40055496845EA0E320164026220
:103E2000B0BD0000D0F820C0036A23F00103036294
:103E3000836923F0F00343EA02122CF00A031943CA
:103E40008261016270470000D0F820C0036A23F04D
:103E500010030362836923F4704343EA02322CF0B7
:103E6000A00343EA011182610162704780B5406A94
:103E70000021C185C184816D884780BD016851E8FA
:103E8000031F026821F4907142E80313002BF5D15F
:103E9000016851E8051F026821F0010142E805139D
:103EA000002BF5D1016B01290AD100BF016851E84F
:103EB000031F026821F0100142E80313002BF5D123
:103EC000202180F8421000210163704780B501680D
:103ED000C26CCB6823F04003CB60202180F84110F6
:103EE000904780BD70B542F2CD61C0F6000142F24C
:103EF0007D14C0F6000442F2851542F281168164F9
:103F000000F15C0142F2C96242F2116342F20D6CAF
:103F100042F2891EC0F60005C0F6000670C142F2EA
:103F20007911C0F60002C0F60003C0F6000CC0F61E
:103F3000000EC0F60001C2640365C0F854C0C0F8AA
:103F400058E0C16670BD000080B582B090F84210A4
:103F500022291ED18268B2F5805F02D10169002951
:103F60004AD0816AB2F5805F07D00AB9026922B1EE
:103F70000268526802F07F0201E0026852680A702B
:103F80000121826A11448162C18D01390A04C1850F
:103F900001D002B080BD0168CA6822F02002CA6068
:103FA000CA6822F48072CA604A6922F001024A613A
:103FB000202180F8421000214163026B012A23D1A5
:103FC000016300BF016851E8031F026821F010017E
:103FD00042E80313002BF5D101680A68D20606D522
:103FE000002201920A680192496801910199C26E0A
:103FF000818D904702B080BD0168826A49686FF385
:104000005F2111800221BCE7416D884702B080BD6D
:1040100010B504460068D4E902C22369016921F49D
:10402000405111430161616943EA0C021143C268C6
:1040300041F20C639A431143C1604169A26921F4C2
:104040004071114343F60002C4F201029042416103
:1040500002D0FDF705FC01E0FDF714FC62681921B0
:1040600048439100B0FBF1F048F21F51C5F2EB114B
:10407000A0FB01235A096FF0630302FB0300322304
:1040800003EB0010A0FB0101F02303EA51132068A9
:1040900003EB0212C1F343111144816010BD000013
:1040A00090F84110212923D18168B1F5805F01D1B9
:1040B000016931B1016A02684B1C036209785160E1
:1040C00007E0016A036831F8022B6FF35F225A6040
:1040D0000162C18C01390A04C18418BF70470068AD
:1040E000C16821F08001C160C16841F04001C16038
:1040F000704700002DE9F04182B004460068006876
:104100000840884203D1002002B0BDE8F0811D467E
:104110000E4690465F1C04E0206800683040B042C4
:1041200028D0002FF8D0FCF74BFF01464FF00300DA
:104130000DB3A1EB0801A9421DD82068C168490749
:10414000EAD5402EE8D0802EE6D001680907E3D5F5
:104150000025019501680191406801900198204671
:10416000FFF78CFE0820606484F84050012002B004
:10417000BDE8F081002002B0BDE8F08180B540F2DA
:104180009830C2F20000FEF701F880BD10B540F291
:104190001040C2F20000006840F240040168C2F220
:1041A0000004090612D56FF080010160E16C21B1B5
:1041B000C16821F08001C16008E0012284F82C2050
:1041C0004A1CE264214491F84810416001684906A4
:1041D00014D56FF04001016094F8501019B100211E
:1041E00084F82C1006E0032184F82C10C16841F0FB
:1041F0002001C160C16821F04001C16001688906E9
:1042000058BF10BD6FF0200101604068C0B2FFF7D9
:104210009FF8002804BF042084F82C0010BD000083
:1042200080B540F28840C2F20000FDF7AFFF80BDCC
:10423000FEE70000002848BF704700F01F01012280
:1042400002FA01F14EF200124009CEF2000242F8E9
:10425000201070474EF60C50CEF200000068C0F3FC
:10426000022070474EF6145300F00F02CEF2000306
:1042700009011A4400F16043B0F1FF3FC8BF03F5E4
:1042800064421170704700004EF60C51CEF20001EE
:104290000A684FF6FF031A4060F30A2242F080607A
:1042A00040F0FD700860704780B540F21C1040F28D
:1042B000F001C2F20000C2F200010C22FCF714FB74
:1042C00080BD000040F20810C2F20000017C02290B
:1042D0001AD0012931D0002953D1816819B340F691
:1042E000E41140F25032C2F20001C2F20002097839
:1042F0001268002918BF7D21D163C168D1B10021A6
:104300004160012101747047D0E9011CC36801F1CB
:10431000140263449A42426038BF70470188D21A3F
:104320000129426019D140F25031C2F200010968FE
:104330000022CA63032101747047D0E901121431CD
:10434000914241601DD340F25031C2F20001096830
:104350000022CA6302210174704740F6E412C2F2DF
:10436000000240F250331278C2F200031B68002AA8
:1043700018BF7D22DA63002918BF013901800121AD
:104380000174704740F20813C2F20003C3E902014E
:1043900000201A801874704780B582B0019040F2F6
:1043A0009830C2F2000001A901224FF0FF33FEF75E
:1043B00031F9019802B080BD80B540F2F0020020D2
:1043C0006FF00501C2F200025318DB880631122992
:1043D0001844F9D1FBF736FF4FF07A51FBF7B4FEE2
:1043E00043F23331C4F25301FBF7AEFE0021C4F2B5
:1043F0003011FBF7A9FE4FF20001C4F27F51FBF729
:10440000D5FE80BD80B5024640F60040C4F20100F2
:104410004FF40041FCF7CEFD80BD0000B0B504466E
:10442000007802280ED001281FD098BBA06821690F
:10443000B0B1002000258847E06898B10120656090
:104440002070B0BD221D07CA11441430884260603C
:1044500038BFB0BD6288401A2169012A606010D15E
:104460000120884703202070B0BDD4E90101143039
:10447000884260600ED321690120884702202070A5
:10448000B0BD002088476088002818BF01386080D0
:1044900001202070B0BD0000B0B540F20054C2F25F
:1044A00000042046012100F013F840F21455C2F236
:1044B00000052846022100F00BF844F2E140C0F666
:1044C0000000206144F20540C0F600002861B0BD44
:1044D0000022C0E90022C0E9022202614170704757
:1044E00080B5024640F60040C4F201004FF400716E
:1044F000FCF760FD80BD000080B540F20050C2F2C4
:104500000000FFF78BFF40F21450C2F20000FFF7EB
:1045100085FF80BD88B0FCF76DFFFFF721FB41F2FE
:104520001400C4F20200816841F4001181608168C6
:1045300001F4001107910799016841F00101016040
:10454000006800F0010006900698FFF75FF8FFF79B
:1045500033F8FFF771F9FFF75DFAFFF749F9FFF755
:1045600021FAFEF7D1FFFFF701F9FFF7D1F9FFF7C5
:1045700035FAFFF71BF9FFF78FFF0020FEF7B2FEB9
:1045800040F2980444F28478C2F20004C0F60008B5
:104590002046FEF767FE208B618AA28AE38AB4F880
:1045A00020C0658BA68BE78B8DE8E1004046CDF8F7
:1045B00010C000F005F84FF4C870FCF7E9FBE7E71E
:1045C0000FB4054B10B503A9044A029800F018F87F
:1045D00010BC5DF814FB00009943000800000020A7
:1045E00002E008C8121F08C1002AFAD170477047BC
:1045F000002001E001C1121F002AFBD1704700001A
:104600002DE9FF4F89B09B460446002506E025288A
:104610000BD05A460B999047641C6D1C20780028DB
:10462000F5D10DB02846BDE8F08F0027B84601222D
:10463000474900E0074314F8013F203B02FA03F02A
:104640000842F7D120782E2819D114F8010F47F02D
:1046500004072A280ED06FF02F022078A0F1300135
:1046600009290CD808EB880102EB410100EB010895
:10467000641CF2E70A98641C50F8048B0A902078B6
:104680000028CED0642808D0692806D075281ED00E
:104690005A460B9990476D1C58E00A994FF00A0949
:1046A00001C90A91002802DA40422D2102E03905B1
:1046B00004D52B218DF82010012103E0F90704D047
:1046C0002021F7E78A4608AE0DE00021FAE70A99B3
:1046D0004FF00A0901C90A91F7E74946FBF7B7FD10
:1046E000303106F8011D0028F7D1ADEB060000F1CE
:1046F0002009780701D44FF00108C84502DDA8EB76
:10470000090000E000208046002706E008A85A467D
:10471000C05D0B9990476D1C7F1C5745F6DB04E08C
:1047200030205A460B9990476D1CB8F10001A8F152
:104730000108F5DC05E016F8010B5A460B99904785
:104740006D1CB9F10001A9F10109F4DC641C65E7F5
:10475000092801000000000000000000010203041D
:10476000060708090000000001020304010001011E
:10477000400000004005002040090020C009002042
:10478000000000005374617465313A2564202053A1
:1047900074617465323A2564202053746174653302
:1047A0003A256420205374617465343A25642020CE
:1047B0005374617465353A256420205374617465BF
:1047C000363A256420205374617465373A25642095
:1047D000205374617465383A25640D0A00000000A6
:1047E000004800080000002040000000E0450008EC
:1047F0004048000840000020B00D0000F0450008CF
:104800000000000000127A0001000000100000000B
:104810000000000000000000000000000000000098
:104820000000000000000000000000000000000088
:104830000000000000000000000000000000000078
:04000005080000ED02
:00000001FF
