:020000040800F2
:100000004015002045010008CD120008290800080D
:100010007D100008D5020008E72600080000000057
:10002000000000000000000000000000D5160008DD
:10003000D902000800000000ED130008C11A0008F2
:100040005F0100085F0100085F0100085F01000810
:100050005F0100085F0100085F0100085F01000800
:100060005F0100085F0100085F0100085F010008F0
:100070005F0100085F0100085F0100085F010008E0
:100080005F0100085F0100085F0100085F010008D0
:100090005F0100085F0100085F0100085F010008C0
:1000A0005F0100085F0100085F0100085F010008B0
:1000B0005F0100085F0100085F0100085F010008A0
:1000C0005F0100085F0100085F0100085F01000890
:1000D0005F0100081D2400085F0100085F0100089F
:1000E0005F0100085F0100085F0100085F01000870
:1000F0005F0100085F0100085F0100085F01000860
:100100005F0100085F0100085F0100085F0100084F
:100110005F0100085F0100085F0100085F0100083F
:100120005F0100085F0100085F0100085F0100082F
:10013000DFF80CD000F08CF800480047D52C000800
:10014000401500200648804706480047FEE7FEE7C6
:10015000FEE7FEE7FEE7FEE7FEE7FEE7FEE7FEE777
:10016000C51A00083101000840EA01039B0703D0CB
:1001700009E008C9121F08C0042AFAD203E011F8E6
:10018000013B00F8013B521EF9D27047D2B201E0A8
:1001900000F8012B491EFBD270470022F6E710B58C
:1001A00013460A4604461946FFF7F0FF204610BDE5
:1001B0002DE9F05F0546002092469B46884606469C
:1001C000814640241BE0284641464746224600F02F
:1001D0002FF853465A46C01A914110D3114618467B
:1001E000224600F016F82D1A67EB01084F4622460A
:1001F0000120002100F00DF817EB00094E41201EF0
:10020000A4F10104DFDC484631462A464346BDE8F6
:10021000F09F202A04DB203A00FA02F10020704708
:100220009140C2F1200320FA03F319439040704734
:10023000202A04DB203A21FA02F00021704721FA3B
:1002400002F3D040C2F120029140084319467047A2
:10025000064C074D06E0E06840F0010394E8070013
:1002600098471034AC42F6D3FFF766FF7C62000873
:100270009C62000810B501F025FC4FF4A06001F06D
:100280005FF802F08DFC02F00BFD00F001FB4FF473
:10029000E13002F0E5F800F0AFFB00F0BBFE00211A
:1002A0004FF4616000F02CFF01F054F800F015F8F5
:1002B00000F062FE01F0A8FA02F026FD01210846D6
:1002C00001F0B6F80121024800F034FA10BD000038
:1002D0000002300000BFFEE7704710B500F008F8DC
:1002E00000F0D8F800F038F900F072F810BD000006
:1002F00000B587B00121084601F09AF80121314884
:1003000000F018FA0121084601F072F801210420DA
:1003100001F08EF84FF40040ADF8000004208DF895
:1003200003006946284800F079F90121082001F00E
:100330007FF80820ADF8000004208DF8030069461E
:10034000224800F06BF904A802F05EF80020ADF836
:1003500010004FF6FF70ADF814000020ADF8160045
:10036000ADF8120004A94FF0804001F0FBFF00231C
:100370001A4603214FF0804001F006FE01A801F06B
:100380007BFE0A20ADF80C0001A9400701F01EFE1B
:100390000121880701F0E6FC01221146900701F0D7
:1003A00074FE00214FF0804001F0AEFF47F6FF7071
:1003B0004FF0804188840121880701F0D6FC07B006
:1003C00000BD00000001180000080140000C0140C1
:1003D00000B587B00121022001F00AF801210420B4
:1003E00001F026F88020ADF8000004208DF803000D
:1003F0006946264800F012F90121042001F018F89E
:100400004020ADF8000004208DF8030069461F4825
:1004100000F004F904A801F0F7FF0020ADF8100087
:100420004FF6FF70ADF814000020ADF81600ADF8DF
:10043000120004A9164801F095FF00231A46032173
:10044000134801F0A1FD01A801F016FE0A20ADF845
:100450000C0001A90E4801F0B9FD01210C4801F082
:1004600081FC012211460A4801F00FFE00210848D4
:1004700001F04AFF47F6FF70054924310880012149
:10048000034801F072FC07B000BD00000008014005
:100490000004004000B587B00121042000F0A8FF4F
:1004A0000121082000F0C4FF8020ADF800000420E6
:1004B0008DF803006946264800F0B0F801210820B5
:1004C00000F0B6FF4020ADF8000004208DF80300D6
:1004D00069461F4800F0A2F804A801F095FF00202B
:1004E000ADF810004FF6FF70ADF814000020ADF825
:1004F0001600ADF8120004A9164801F033FF0023DE
:100500001A460321134801F03FFD01A801F0B4FD94
:100510000A20ADF80C0001A90E4801F057FD012199
:100520000C4801F01FFC012211460A4801F0ADFD04
:100530000021084801F0E8FE47F6FF700549243124
:1005400008800121034801F010FC07B000BD000045
:10055000000C01400008004000B587B001210820D0
:1005600000F046FF0121042000F062FF0120ADF8F9
:10057000000004208DF803006946264800F04EF87C
:100580000121042000F054FF0220ADF800000420F7
:100590008DF8030069461F4800F040F804A801F0F8
:1005A00033FF0020ADF810004FF6FF70ADF81400D7
:1005B0000020ADF81600ADF8120004A9164801F0AD
:1005C000D1FE00231A460321134801F0DDFC01A8E7
:1005D00001F052FD0A20ADF80C0001A90E4801F00F
:1005E000F5FC01210C4801F0BDFB012211460A482F
:1005F00001F04BFD0021084801F086FE47F6FF7030
:100600000549243108800121034801F0AEFB07B001
:1006100000BD000000080140000C00402DE9F04141
:10062000024600250026002000230024002791F820
:1006300003C00CF00F0591F803C00CF0100CBCF1D6
:10064000000F03D091F802C04CEA050591F800C0F4
:10065000BCF1000F31D0146800202BE04FF0010CEA
:100660000CFA00F3B1F800C00CEA03069E4220D158
:1006700083004FF00F0C0CFA03F7BC4305FA03FCA0
:100680004CEA040491F803C0BCF1280F06D14FF0E6
:10069000010C0CFA00FCC2F814C00AE091F803C087
:1006A000BCF1480F05D14FF0010C0CFA00FCC2F868
:1006B00010C0401C0828D1D31460B1F800C0BCF1B0
:1006C000FF0F34DD546800202EE000F1080C4FF0DD
:1006D000010808FA0CF3B1F800C00CEA03069E42C8
:1006E00021D183004FF00F0C0CFA03F7BC4305FA3D
:1006F00003FC4CEA040491F803C0BCF1280F05D1B7
:1007000000F1080C08FA0CF8C2F8148091F803C044
:10071000BCF1480F07D100F1080C4FF0010808FAAE
:100720000CF8C2F81080401C0828CED35460BDE8F5
:10073000F0810000F0B50A460023002400210025C6
:1007400000F00046B6F1004F02D11D4EF16901E004
:100750001B4E7168C0F3034583B200F44016B6F532
:10076000401F08D121F07061154E766826F0706642
:10077000134F7E6012E000F48016B6F5801F06D19C
:10078000032606FA05F4A14341F0706106E0460D28
:10079000360103FA06F6B14341F0706122B1460D0D
:1007A000360103FA06F6314300F00046B6F1004F79
:1007B00002D1034EF16101E0014E7160F0BD000015
:1007C000000001400246002093680B400BB101205D
:1007D00000E00020704741617047016170470000F0
:1007E0002DE9F04104460D4616461F464FF4804160
:1007F0000B48FFF7E7FF20604FF400510848FFF770
:10080000E1FF28604FF400410548FFF7DBFF30604F
:100810004FF480510348FFF7D5FF3860BDE8F08101
:10082000001001400008014000BFFEE710B504467B
:1008300000F022F801280BD1601C0D490988B1EBAA
:10084000400F0ADA0A480088401C0949088004E081
:1008500000200749088007490880054800880228C9
:1008600003D101200349088010BD0020FCE70000EF
:10087000320000203000002010B520210348FFF78F
:10088000A1FF08B9012010BD0020FCE7000C0140C9
:1008900008B50121082000F0CBFD2020ADF80000B4
:1008A00048208DF8030069460148FFF7B7FE08BDF0
:1008B000000C01402DE9F04104460D4616461F4646
:1008C0002A2000F0A7FA611C88B200F094FA711C8B
:1008D00088B200F090FA2B2000F09CFA05F11A0182
:1008E00088B200F088FA07F11A0188B200F083FAA2
:1008F0002C2000F08FFABDE8F08170B504460D465B
:1009000016462B46224629462046FFF7D3FF30469F
:1009100000F071FA70BD2DE9F04706460F46144607
:100920001D46DDF820A0681E83B2601E82B23946E3
:100930003046FFF7BFFFB8460EE0B14606E050462E
:1009400000F059FA09F101001FFA80F9A145F6DB20
:1009500008F101001FFA80F8A845EEDBBDE8F0873A
:1009600008B50121082000F063FD4FF44070ADF898
:10097000000010208DF8030003208DF80200694666
:100980001A48FFF74BFE4FF440711848FFF725FF58
:100990000121102000F04CFD4FF4E050ADF80000B4
:1009A00010208DF8030003208DF8020069461048DE
:1009B000FFF734FE4FF4E0510D48FFF70EFF012121
:1009C000202000F035FD0420ADF8000010208DF847
:1009D000030003208DF8020069460648FFF71EFE5B
:1009E00004210448FFF7F9FE08BD0000000C014097
:1009F000001001400014014008B5FFF7B1FF4FF4AB
:100A000000619548FFF7E7FE642002F0EFF84FF42D
:100A100000619148FFF7E1FE642002F0E7F84FF42F
:100A200080618D48FFF7D7FE642002F0DFF81120C7
:100A300000F0F0F9782002F0D9F8B12000F0EAF9DE
:100A4000052000F0E1F93C2000F0DEF93C2000F048
:100A5000DBF9B22000F0DEF9052000F0D5F93C20EA
:100A600000F0D2F93C2000F0CFF9B32000F0D2F929
:100A7000052000F0C9F93C2000F0C6F93C2000F048
:100A8000C3F9052000F0C0F93C2000F0BDF93C207E
:100A900000F0BAF9B42000F0BDF9032000F0B4F979
:100AA000C02000F0B7F9AB2000F0AEF90B2000F049
:100AB000ABF9042000F0A8F9C12000F0ABF9C52083
:100AC00000F0A2F9C22000F0A5F90D2000F09CF979
:100AD000002000F099F9C32000F09CF98D2000F06F
:100AE00093F96A2000F090F9C42000F093F98D206A
:100AF00000F08AF9EE2000F087F9C52000F08AF9AD
:100B00000F2000F081F9E02000F084F9072000F0C8
:100B10007BF90E2000F078F9082000F075F9072025
:100B200000F072F9102000F06FF9072000F06CF966
:100B3000022000F069F9072000F066F9092000F0B2
:100B400063F90F2000F060F9252000F05DF93620F0
:100B500000F05AF9002000F057F9082000F054F98D
:100B6000042000F051F9102000F04EF9E12000F0CF
:100B700051F90A2000F048F90D2000F045F908204D
:100B800000F042F9072000F03FF90F2000F03CF997
:100B9000072000F039F9022000F036F9072000F0B4
:100BA00033F9092000F030F90F2000F02DF925204D
:100BB00000F02AF9352000F027F9002000F024F990
:100BC000092000F021F9042000F01EF9102000F0A7
:100BD0001BF9FC2000F01EF9802000F015F93A20E6
:100BE00000F018F9052000F00FF9362000F012F996
:100BF000782000F009F9212000F00CF9292000F0FC
:100C000009F92A2000F006F9002000F0FDF81A206A
:100C100000F0FAF8002000F0F7F8692000F0F4F88E
:100C20002B2000F0F7F8002000F0EEF8012000F093
:100C3000EBF8002000F0E8F8A02000F0E5F82C2008
:100C400000F0E8F84FF6FF705023A022002100903A
:100C50000846FFF760FE08BD001001402DE9FF5F68
:100C600080468A4617469B460F9D00200290CDF88D
:100C70000080284605EBD071C1F347042046E217F7
:100C800004EB5272D2102146E31704EB5373DB10CE
:100C9000A4EBC3030BB1012300E000231A446A4311
:100CA00092B20192A7F12000C7B20AEB0500401EE4
:100CB00083B208EB0400401E82B251464046FFF763
:100CC000F9FD002669E00C2D07D107EB47003549F7
:100CD00001EB8000805D03901BE0102D05D13248B0
:100CE00000EB0710805D039013E0182D07D107EB90
:100CF00047002E4901EB0010805D039009E0202D94
:100D000005D12B4800EB8710805D039001E0BDE822
:100D1000FF9F4FF000093AE01098C8B9012000FA8F
:100D200009F00399084018B1584600F064F802E051
:100D30000E9800F060F80298401CC0B20290029831
:100D400090FBF4F104FB1100E8B90020029021E0CF
:100D5000012000FA09F00399084020B15A46514693
:100D60004046FFF7CAFD08F101001FFA80F800981D
:100D7000A8EB0000A04206D1DDF800800AF10100D6
:100D80001FFA80FA06E009F1010000F0FF09B9F14D
:100D9000080FC1DB00BF701C86B20198864292DB4F
:100DA00000BFB4E7A02D0008143200080438000882
:100DB000D44900082DE9FE4F06460F4614469846D2
:100DC000DDE90D5ADDF8309010E0CDE9015ACDF89B
:100DD00000902278434639463046FFF73FFF2846C9
:100DE00005EBD07106EB61018EB2641C20780028FF
:100DF000EBD1BDE8FE8F10B50446201200F01CF8C0
:100E0000E0B200F019F810BD10B50446204600F01D
:100E100013F810BD10B504464FF480510548FFF794
:100E2000DAFC204600F008F84FF480510148FFF743
:100E3000D4FC10BD0010014070B5044604211448D4
:100E4000FFF7C9FC00251BE04FF480711148FFF744
:100E5000C2FC04F0800028B14FF400710D48FFF788
:100E6000BCFC04E04FF400710A48FFF7B4FC4FF4F7
:100E700080710848FFF7B1FC6006040E681CC5B21B
:100E8000082DE1DB04210248FFF7A7FC70BD00003C
:100E900000140140000C01401FB501200390029096
:100EA000019000906B4601AA02A903A8FFF798FCE5
:100EB000029808B1019860B9009850B940F2DC532B
:100EC0001A465942084600F0DBF8462001F08EFE33
:100ED0004EE0039868B9019808B1029848B9254BCB
:100EE0001A465942084600F0CBF8462001F07EFE33
:100EF0003EE0039850B91F4BC83B1A46594208467A
:100F000000F0BEF8082001F071FE31E0009850B901
:100F100040F2A4631A465942084600F0B1F808208E
:100F200001F064FE24E0029850B90198012807D12D
:100F300000231A4640F2DC51084600F0A1F817E001
:100F40000298012809D1019838B940F2DC531A46B9
:100F50000021084600F094F80AE0029840B9019890
:100F600030B940F2DC531A461946184600F088F8AA
:100F70001FBD000024FAFFFF08B50121102000F07A
:100F800057FA4FF48040ADF8000048208DF8030078
:100F900003208DF8020069461C48FFF73FFB012142
:100FA000102000F045FA4FF40050ADF80000482042
:100FB0008DF8030003208DF8020069461348FFF7FF
:100FC0002DFB0121102000F033FA4FF40040ADF862
:100FD000000048208DF8030003208DF802006946C8
:100FE0000A48FFF71BFB0121042000F021FA4FF40F
:100FF0008050ADF8000048208DF8030003208DF8E4
:10100000020069460248FFF709FB08BD00100140D5
:101010000008014010B59AB06022164901A8FFF7F8
:10102000A3F800241FE004EB440101AA02EB8101B4
:101030008868012100F0FCF904EB440001A901EBF0
:1010400080008088ADF8640003208DF866001820C9
:101050008DF8670004EB440101AA52F8210019A998
:10106000FFF7DCFA641C082CDDDB0F200249087056
:101070001AB010BD1C6200082E00002000BFFEE761
:101080002DE9F04104460F4615461E4614F5616FE2
:1010900006DBB4F5616F03DC2146002000F0AEF8FA
:1010A00017F5616F06DBB7F5616F03DC3946012088
:1010B00000F0A4F815F5616F06DBB5F5616F03DC90
:1010C0002946022000F09AF816F5616F06DBB6F5A6
:1010D000616F03DC3146032000F090F8BDE8F08139
:1010E0000146002903DD01F5C86000B27047002900
:1010F00003DAA1F5C86000B2F8E70020F6E70000C7
:1011000030B587B005460C4601214FF4205000F061
:101110008FF90121084600F08BF901213448FFF7CF
:1011200009FB344800F03CFE334800F039FEADF8CE
:101130000040681E80B2ADF804000020ADF8060043
:10114000ADF8020069462B4801F00CF969462A48BF
:1011500001F008F903A801F0CDF86020ADF80C000B
:101160000120ADF80E000020ADF81400ADF812001B
:1011700003A9204800F092FF03A91E4800F0DAFFFF
:1011800003A91C4801F028F803A91A4801F074F8D3
:1011900003A9194800F082FF03A9174801F06CF871
:1011A0006020ADF80C000020ADF80E000420ADF872
:1011B00010000020ADF81400ADF8120003A90E488D
:1011C00000F0B8FF03A90C4801F006F80121094816
:1011D00000F0D7FD0121084800F0D3FD01210548AA
:1011E00000F0C3FD0121044800F0BFFD07B030BD91
:1011F0004000160000340140002C014070B5054647
:101200000E463046FFF76CFF0446B4F5616F01DB14
:101210004FF4616414F5616F00DC294C35B1012D88
:1012200015D0022D26D0032D46D134E0604204B201
:10123000002C05DB23490C800020091D088005E0F7
:101240000020204908806042091D088035E0604286
:1012500004B2002C06DB1B4908310C800020091D5C
:10126000088006E000201749083108806042091D07
:10127000088022E0002C06DB13490C800020124974
:101280000C39088006E000200F49088060420E49B2
:101290000C39088011E0002C06DB0B4908390C8062
:1012A0000020091D088006E0002007490839088051
:1012B0006042091D088000E000BF00BF70BD000053
:1012C000F0F1FFFF34340140402C01407047000032
:1012D00070B5002100230F22C47804B3154C246894
:1012E00004F4E064C4F5E064210AC1F10403CA40D7
:1012F000447804FA03F184781440214309010E4C28
:101300000678A155047804F01F050124AC40057847
:101310006D11AD0005F1E025C5F8004109E0047844
:1013200004F01F050124AC40044D0678761145F801
:10133000264070BD0CED00E000E400E080E100E03C
:1013400002490143024A1160704700000000FA059B
:101350000CED00E0002032E0002100EB80021D4B8C
:1013600043F8321000EB800203EBC202916000EB05
:10137000800203EBC202916100EB800203EBC20228
:10138000D16100EB800203EBC202116200EB80022C
:1013900003EBC2025162104900EB800203EBC20270
:1013A000D1600E4900EB800203EBC20211614FF0E5
:1013B0007C5100EB800203EBC2025161401C042807
:1013C000CADB074807494860002088600648C860B3
:1013D000704700009C100020CDCC4C3F8FC2753D63
:1013E000CDCCCC3E34000020CDCCCC3D70470000AD
:1013F00029B1064AD2690243044BDA6104E0034A88
:10140000D2698243014BDA6170470000001002404C
:1014100029B1064A12690243044B1A6104E0034AE7
:1014200012698243014B1A617047000000100240AC
:1014300029B1064A92690243044B9A6104E0034AC7
:1014400092698243014B9A6170470000001002408C
:1014500029B1064AD2680243044BDA6004E0034A29
:10146000D2688243014BDA607047000000100240EE
:1014700030B500210022002400232D4D6D6805F0B9
:101480000C0121B1042905D0082923D105E0294DFB
:10149000056022E0274D05601FE0254D6D6805F4CD
:1014A0007012234D6D6805F48034022505EB9242DD
:1014B0001CB9214D554305600BE01D4D6D6805F4C9
:1014C00000351DB11C4D5543056002E0194D5543D3
:1014D000056002E0174D056000BF00BF144D6D6848
:1014E00005F0F0010909154D6B5C0568DD404560AC
:1014F0000F4D6D6805F4E061090A104D6B5C45689D
:10150000DD4085600A4D6D6805F46051C90A0B4DD8
:101510006B5C4568DD40C560054D6D6805F4404174
:10152000890B074D6B5CC568B5FBF3F5056130BDF4
:101530000010024000127A0000093D001400002053
:101540002400002021B1028842F04002028004E021
:1015500002884FF6BF731A400280704700B587B00B
:1015600001218803FFF744FF01210820FFF760FFF6
:101570004FF48050ADF8040003208DF806001020D1
:101580008DF8070001A92648FFF748F84FF40050EE
:10159000ADF8040018208DF8070001A92048FFF7D6
:1015A0003DF84FF48040ADF8040001A91C48FFF756
:1015B00035F84FF40040ADF8040001A91848FFF7D2
:1015C0002DF84FF480511648FFF707F90020ADF8C9
:1015D00008004FF48270ADF80A000020ADF80C004E
:1015E0000220ADF80E000120ADF810004002ADF869
:1015F00012000820ADF814000020ADF816000720F6
:10160000ADF8180002A9074800F01CF801210548B0
:10161000FFF798FFFF2000F033F807B000BD00008F
:10162000000C0140003800400246002013890B40A6
:101630000BB1012000E00020704701468889704707
:101640008181704710B50022028802F441520B8854
:101650004C8823438C882343CC8823430C89234321
:101660004C8923438C892343CC8923431A4302802A
:10167000838B4FF2FF74234083830B8A038210BD58
:1016800070B50546002405E0601CC4B2C82C01DD1D
:10169000002070BD02210E48FFF7C6FF0028F3D0DE
:1016A00029460B48FFF7CCFF002405E0601CC4B2BC
:1016B000C82C01DD0020ECE701210548FFF7B4FF4D
:1016C0000028F3D00248FFF7B8FFC0B2E1E70000FE
:1016D00000380040704710B500F002F810BD00005F
:1016E0000CB50020019000903348006840F4803031
:1016F0003149086000BF3048006800F400300090B5
:101700000198401C0190009818B90198B0F5A06F9D
:10171000F1D12948006800F4003010B10120009098
:1017200001E0002000900098012843D12348006880
:1017300040F01000214908600846006820F00300CE
:1017400008600846006840F0020008601A484068D7
:10175000194948600846406848600846406840F4B7
:10176000806048600846406820F47C104860084665
:10177000406840F4E81048600846006840F0807017
:10178000086000BF0C48006800F000700028F9D025
:101790000948406820F0030007494860084640684F
:1017A00040F00200486000BF0348406800F00C00B1
:1017B0000828F9D10CBD00000010024000200240B2
:1017C00010B50446240300F009F900F0A3F8002046
:1017D0000B4908602020FFF753FFC4F30740FFF7D1
:1017E0004FFFC4F30720FFF74BFFE0B2FFF748FFBE
:1017F00001200449C1F8B00100F08CF810BD0000D0
:10180000B08121420080214208B501210820FFF764
:101810000FFE4FF48050ADF8000010208DF803004B
:1018200003208DF8020069460748FEF7F7FE4FF4E3
:1018300080510548FEF7D1FFFFF790FE00F030F829
:101840000249088008BD0000000C01402C00002067
:101850002DE9F04106460C46174600200F49086066
:101860000320FFF70DFFC4F30740FFF709FFC4F3A0
:101870000720FFF705FFE0B2FFF702FF002505E0B4
:10188000FF20FFF7FDFE7055681C85B2BD42F7DBF7
:10189000012002490860BDE8F0810000B0812142CA
:1018A00010B5002400200E4908609020FFF7E8FEE4
:1018B0000020FFF7E5FE0020FFF7E2FE0020FFF723
:1018C000DFFEFF20FFF7DCFE44EA0024FF20FFF7E5
:1018D000D7FE044301200349C1F8B001204610BDE2
:1018E000B08121420080214210B500240020074928
:1018F00008600520FFF7C4FEFF20FFF7C1FE044685
:1019000001200349C1F8B001204610BDB081214239
:101910000080214210B500BFFFF7E6FF00F0010094
:101920000028F9D110BD00002DE9F04781460F468F
:1019300016464FEA1738C7F30B0ACAF58054A64279
:1019400000DC344644E04FEA08314FF4805222482C
:10195000FFF77EFF002508E00AEB05001E49085C42
:10196000FF2800D003E0681C85B2A542F4DB00BF6D
:10197000A54216DA4046FFF723FF002507E019F8D5
:10198000050005EB0A01144A5054681C85B2A542B3
:10199000F5DB4FEA08314FF480520F4800F02EF883
:1019A00004E022463946484600F028F8A64200D115
:1019B0000FE008F101084FF0000AA1442744301B52
:1019C00086B2B6F5805F02DD4FF4805400E0344605
:1019D000B9E700BFBDE8F0879C00002010B50020EB
:1019E000044908600620FFF74BFE01200249C1F8B8
:1019F000B00110BDB0812142008021422DE9F041AB
:101A000007460E461446F0B2C0F58075AC4200DCC5
:101A1000254612E02A463146384600F013F8AC421B
:101A200000D10BE02F442E44601B84B2B4F5807FBC
:101A300002DD4FF4807500E02546EBE700BFBDE80E
:101A4000F08100002DE9F04106460C461746FFF7ED
:101A5000C5FF00200F4908600220FFF711FEC4F304
:101A60000740FFF70DFEC4F30720FFF709FEE0B2C1
:101A7000FFF706FE002504E0705DFFF701FE681C1D
:101A800085B2BD42F8DB012002490860FFF742FF42
:101A9000BDE8F081B0812142042808D14FF0E02157
:101AA000096941F004014FF0E022116107E04FF0B5
:101AB000E021096921F004014FF0E0221161704733
:101AC0007047000010B51348006840F0010011494C
:101AD000086008464068104908400E4948600846BA
:101AE00000680E4908400B4908600846006820F469
:101AF000802008600846406820F4FE0048604FF4EB
:101B00001F008860FFF7E7FD4FF0006004490860A0
:101B100010BD0000001002400000FFF8FFFFF6FEBD
:101B200008ED00E0F0B50C46154600220021068CB9
:101B30004FF6FE773E400684028B018C4FF60C7602
:101B400032407E1C06EA03162E433243104EB0424A
:101B50000ED0104EB0420BD0B0F1804F08D00E4ED8
:101B6000B04205D00D4EB04202D00D4EB04206D16B
:101B70004FF6FD76314044F00106314305E04FF663
:101B8000F576314044F00106314302830184F0BD13
:101B9000002C0140003401400004004000080040D7
:101BA000000C0040F0B50C4615460022002100262E
:101BB000078C4FF6EF7C07EA0C070784028B018C39
:101BC0004FF6FF7707EA041640F6FF473A404FF614
:101BD000FF7707EA03373A434FF6FF7707EA05270F
:101BE0003A43114FB8420ED0104FB8420BD0B0F16B
:101BF000804F08D00E4FB84205D00E4FB84202D0E9
:101C00000D4FB84206D14FF6DF77394046F0100746
:101C1000394305E04FF65F77394044F01007394308
:101C200002830184F0BD0000002C0140003401401B
:101C30000004004000080040000C0040F0B50C46D5
:101C40001546002200210026078C4FF6FF6C07EA9C
:101C50000C070784828B018C4FF6FF7707EA042676
:101C60004FF60C773A404FF6FF7707EA03172F43FA
:101C70003A43114FB8420ED0104FB8420BD0B0F1DA
:101C8000804F08D00E4FB84205D00E4FB84202D058
:101C90000D4FB84206D14FF6FF57394046F48077D2
:101CA000394305E04FF2FF57394044F48077394318
:101CB00082830184F0BD0000002C0140003401400B
:101CC0000004004000080040000C0040F0B50C4645
:101CD0001546002200210026078C4EF6FF7C07EAFD
:101CE0000C070784828B018C4FF6FF7707EA0436D6
:101CF00040F6FF473A404FF6FF7707EA05273A4399
:101D00004FF6FF7707EA03373A43114FB8420ED038
:101D1000104FB8420BD0B0F1804F08D00E4FB842F0
:101D200005D00E4FB84202D00D4FB84206D14DF645
:101D3000FF77394046F48057394305E047F6FF57AF
:101D4000394044F48057394382830184F0BD000058
:101D5000002C014000340140000400400008004015
:101D6000000C0040CA430282704721B1028842F051
:101D70000102028004E002884FF6FE731A400280DE
:101D8000704731B1B0F8442042F40042A0F844203A
:101D900005E0B0F84420C2F30E02A0F844207047DA
:101DA00010B504466848844208D10121C014FFF7E9
:101DB0004FFB0021E014FFF74BFBC4E0B4F1804F70
:101DC00008D101210846FFF723FB00210120FFF77E
:101DD0001FFBB8E05D48844208D101210220FFF7D3
:101DE00017FB00210220FFF713FBACE058488442A8
:101DF00008D101210420FFF70BFB00210420FFF78D
:101E000007FBA0E05348844208D101210820FFF7D6
:101E1000FFFA00210820FFF7FBFA94E04E488442C5
:101E200008D101211020FFF7F3FA00211020FFF75D
:101E3000EFFA88E04948844208D101212020FFF7C9
:101E4000E7FA00212020FFF7E3FA7CE044488442CF
:101E500008D101214014FFF7FBFA00216014FFF7BD
:101E6000F7FA70E03F48844209D10121C804FFF726
:101E7000EFFA00214FF40020FFF7EAFA63E03A4856
:101E8000844209D101210805FFF7E2FA00214FF44D
:101E90008010FFF7DDFA56E03448844209D1012171
:101EA0004805FFF7D5FA00214FF40010FFF7D0FAEC
:101EB00049E02F48844208D101214020FFF7A8FAC9
:101EC00000214020FFF7A4FA3DE02A48844208D1CF
:101ED00001218020FFF79CFA00218020FFF798FA6B
:101EE00031E02548844208D101218015FFF790FA9E
:101EF0000021A015FFF78CFA25E02048844209D183
:101F000001210804FFF7A4FA00214FF48030FFF705
:101F10009FFA18E01A48844209D101214804FFF7CA
:101F200097FA00214FF40030FFF792FA0BE01548C2
:101F3000844208D101218804FFF78AFA00214FF476
:101F40008020FFF785FA10BD002C014000040040FE
:101F500000080040000C0040001000400014004049
:101F600000340140004C0140005001400054014049
:101F700000180040001C00400020004000400140CC
:101F80000044014000480140F0B50C4615461E468D
:101F90000021002200230189028B038C4FF6F87781
:101FA000394021434FF6FC473A4040F201173A438B
:101FB0004FF6DD773B404FF6FF7707EA06172F43D2
:101FC0003B43018102830384F0BD000070B50546E8
:101FD0000C46244885420ED0234885420BD0B5F1EB
:101FE000804F08D02148854205D02148854202D043
:101FF0002048854200D100E000BF208850B92389E5
:10200000A28861882846FFF78DFDE188284600F008
:102010007DF925E0208804280AD12389A2886188D7
:102020002846FFF7BFFDE188284600F078F917E061
:10203000208808280AD12389A28861882846FFF7CA
:10204000FDFDE188284600F077F909E02389A288A0
:1020500061882846FFF73AFEE188284600F075F9C6
:1020600070BD0000002C014000340140000400401D
:1020700000080040000C0040002101804180012147
:1020800081800021C180018170471AB183890B438F
:10209000838102E083898B438381704770B500247C
:1020A00000220023058C4FF6FE7635400584028C15
:1020B0008388048B4FF68F752C40B51E2C400D88FD
:1020C0002C43751E2A400D892A434D882A43144DFE
:1020D000A8420BD0134DA84208D0134DA84205D0FA
:1020E000124DA84202D0124DA84213D14FF6F775F7
:1020F0002A404D892A434FF6FB752A408D882A4392
:102100004FF6FF652B404FF6FF552B408D892B4333
:10211000CD892B4383800483CD888586028470BD5E
:10212000002C0140003401400040014000440140C7
:102130000048014070B5002400220023058C4FF6B2
:10214000EF7635400584028C8388048B48F6FF7552
:102150002C404FF6FF452C400D884FF6FF7606EADF
:1021600005252C434FF6DF752A400D8906EA051533
:102170002A434D8806EA05152A43154DA84202D088
:10218000144DA8421DD14FF67F752A404D894FF658
:10219000FF7606EA05152A434FF6BF752A408D885B
:1021A00006EA05152A434FF6FF352B404FF2FF751F
:1021B0002B408D8906EA85052B43CD8906EA8505E6
:1021C0002B4383800483CD880587028470BD000083
:1021D000002C01400034014070B50024002200238F
:1021E000058C4FF6FF6635400584028C8388848B0E
:1021F0004FF68F752C404FF6FC752C400D882C4304
:102200004FF6FF552A400D894FF6FF7606EA052561
:102210002A434D8806EA05252A43154DA84202D0D7
:10222000144DA8421DD14FF2FF752A404D894FF63B
:10223000FF7606EA05252A434FF6FF352A408D88AA
:1022400006EA05252A434EF6FF752B404DF6FF752D
:102250002B408D8906EA05152B43CD8906EA051525
:102260002B4383808483CD888587028470BD0000E2
:10227000002C01400034014070B5002200230024EE
:10228000058C4EF6FF7635400584038C8488828B5E
:1022900048F6FF752A404FF6FF452A400D884FF655
:1022A000FF7606EA05252A434DF6FF752B400D897A
:1022B00006EA05352B434D8806EA05352B430B4DC1
:1022C000A84202D00A4DA84208D14BF6FF752C4017
:1022D0008D894FF6FF7606EA85152C43848082832C
:1022E000CD88A0F84050038470BD0000002C014050
:1022F000003401400021018041808180C180018142
:1023000041818181C181704781847047028B4FF682
:10231000F3731A400283028B0A4302837047028BD5
:102320004FF2FF331A400283028B4FF6FF7303EA2A
:1023300001231A4302837047828B4FF6F3731A40CE
:102340008283828B0A4382837047828B4FF2FF33F2
:102350001A408283828B4FF6FF7303EA01231A43EC
:1023600082837047002202881D4B98420ED01D4B7D
:1023700098420BD0B0F1804F08D01B4B984205D04B
:102380001A4B984202D01A4B984204D14FF68F73E1
:102390001A404B881A43174B984207D0164B984265
:1023A00004D04FF6FF431A40CB881A4302808B8833
:1023B00083850B8803850A4B98420BD0094B9842C2
:1023C00008D00E4B984205D00D4B984202D00D4BD1
:1023D000984201D10B7A0386012383827047000063
:1023E000002C01400034014000040040000800407F
:1023F000000C00400010004000140040004001406C
:1024000000440140004801404FF6FF7181800021E7
:102410000180C180418001727047000010B5002426
:1024200040F22551054800F099F830B1034800F01A
:1024300051F9C4B2204600F003F810BD0038014045
:1024400010B5044600BF8021044800F07AF8002847
:10245000F9D02146014800F042F910BD0038014092
:1024600010B586B00446012144F20400FEF7E0FFF7
:102470004FF40070ADF8140018208DF817000320F9
:102480008DF8160005A92248FEF7C8F84FF48060C1
:10249000ADF8140004208DF8170005A91C48FEF7BC
:1024A000BDF801940020ADF80800ADF80A00ADF8C1
:1024B0000C00ADF810000C20ADF80E0001A9154875
:1024C00000F09CF8002240F22771124800F070F8EA
:1024D000012240F225510F4800F06AF840210D48D2
:1024E00000F01AF801210B4800F01FF825208DF8A4
:1024F000000001208DF8010003208DF8020001206A
:102500008DF803006846FEF7E3FE06B010BD00003C
:10251000000801400038014001F40072B2F5007F6C
:1025200000D100BFCA430280704721B1828942F4C2
:102530000052828104E082894DF6FF731A40828145
:10254000704702460020B1F5007F00D100BF13881C
:102550000B400BB1012000E00020704770B502462F
:10256000002400230025002040F66A16B14200D165
:1025700000BFC1F3421501F01F03012606FA03F361
:10258000012D02D19689334006E0022D02D1168A30
:10259000334001E0968A33400C12012606FA04F417
:1025A0001688344013B10CB1012000E0002070BD4A
:1025B000F0B50346002400260025002040F66A17E7
:1025C000B94200D100BF1846C1F3421401F01F0602
:1025D000012707FA06F5012C01D10C3004E0022C8A
:1025E00001D1103000E014301AB107682F430760A2
:1025F00002E00768AF430760F0BD00002DE9F04737
:1026000086B005460E460024A24600BFA14600271C
:10261000B08900B100BF2F462C8A4CF6FF700440F1
:10262000F08804432C82AC894EF6F3100440B08845
:1026300031890843718908430443AC81AC8A4FF661
:10264000FF400440B0890443AC8201A8FEF710FFAC
:102650001F48874202D1DDF810A001E0DDF80CA090
:10266000A88900F4004040B10AEBCA0000EB0A1050
:1026700031684900B0FBF1F807E00AEBCA0000EB53
:102680000A1031688900B0FBF1F86420B8FBF0F063
:1026900004012009642101FB1089A88900F400408D
:1026A00040B1322000EBC900B0FBF1F000F00700B0
:1026B000044308E0322000EB09106421B0FBF1F084
:1026C00000F00F0004432C8106B0BDE8F087000045
:1026D0000038014001468888C0F308007047C1F304
:1026E00008028280704700BFFEE700000FB4084B6D
:1026F00010B504A902AA039800F01CF8044602A928
:10270000002000F048FA204610BC5DF814FB0000E1
:10271000972B000802E008C8121F08C1002AFAD14E
:1027200070477047002001E001C1121F002AFBD151
:10273000704700002DE9FF4F8DB00F46054600267B
:1027400006E025280BD0DDE90F1290476D1C761CA2
:1027500028780028F5D111B03046BDE8F08F00246C
:10276000A246A1460122EC4900E0044315F8013FCE
:10277000203B02FA03F00842F7D128782A2810D02B
:102780006FF02F022878A0F13001092914D80AEB44
:102790008A0102EB410144F0020400EB010A6D1CC6
:1027A000F0E701CF5FEA000A03D544F40054CAF110
:1027B000000A44F002046D1C28782E2817D115F861
:1027C000010F44F004042A280ED06FF02F0228785D
:1027D000A0F1300109290AD809EB890102EB410176
:1027E00000EB01096D1CF2E757F8049B6D1C28787B
:1027F0006C280FD006DC4C2817D068280DD06A282A
:1028000014D104E0742810D07A280FD10DE044F4DC
:1028100000140AE044F4801401E044F440146978A0
:10282000814202D104F580146D1C6D1C2A786E2A39
:102830001FD00CDC632A31D004DC002A8BD0582A4C
:1028400011D1A3E0642A68D0692A0CD165E0732A0B
:102850002ED004DC6F2A73D0702A04D19BE0752A35
:102860006FD0782A6ED01046DDE90F129047761CA3
:1028700050E1C4F30250022806D0032809D00428EE
:1028800001CF09D0066045E101CFF117C0E9006131
:1028900040E101CF06803DE106703BE117F8040BF3
:1028A0008DF8000000208DF80100EB46012003E0C8
:1028B00057F804BB4FF0FF3061074FF0000102D41E
:1028C0000DE008F10101884649450FDA8045F8DB43
:1028D0001BF808100029F4D108E008F1010188462E
:1028E0008142FADB1BF808100029F6D1DDE90F233D
:1028F000AAEB08008146214600F036F9304400EB8F
:10290000080604E0DDE90F121BF8010B9047B8F14F
:102910000108F7D221464846F7E00A21C4F30253E2
:102920004FF0000B0891022B04D001CFC117032BED
:1029300009D00AE0FF1D27F00707F7E8020108E0C9
:1029400032E01FE020E000B2C117042B01D140B2F9
:10295000C117031E71F1000307DA4FF0000CD0EB32
:102960000C006CEB01012D2302E0230504D52B2381
:102970008DF82430012303E0E30701D02023F7E79B
:10298000984658E00A2110E010210EE010204FF088
:10299000000B08900CE010214FF0000B44F00404F1
:1029A0004FF00809089103E008214FF0000B08914F
:1029B000C4F30253022B04D001CF0021032B06D015
:1029C00006E0FF1D27F00707F7E8020103E080B2E9
:1029D000042B00D1C0B24FF0000823072BD5702A7A
:1029E00007D0DDF820C08CF0100C5CEA0B0C05D091
:1029F0000EE040238DF82430012308E050EA010363
:102A000006D030238DF824308DF8252002239846F7
:102A1000DDF820C08CF0080C5CEA0B0C0BD150EAFE
:102A2000010301D1630706D530238DF824304FF020
:102A30000108A9F10109582A04D038A20B9208AA6A
:102A40000A920BE03AA2F9E75B46089AFDF7B0FB61
:102A50000B9B9B5C0A9A521E0A92137050EA010269
:102A6000F2D10A98ADEB000000F1200B600702D50F
:102A700024F4803401E04FF00109D94502DDA9EBCF
:102A80000B0000E0002000EB0B0141440890AAEB92
:102A9000010AE00306D4DDE90F232146504600F089
:102AA00063F806444FF0000908E009A911F809008D
:102AB000DDE90F12904709F10109761CC145F4DBED
:102AC000E0030CD5DDE90F232146504600F04CF819
:102AD000064404E0DDE90F1230209047761C089987
:102AE000481E08900029F5DC08E00A980A99007849
:102AF000491C0A91DDE90F129047761CBBF10001D9
:102B0000ABF1010BF1DC21465046DDE90F2300F06B
:102B100019F806446D1C1BE60928010030313233D8
:102B20003435363738396162636465660000000009
:102B300030313233343536373839414243444546F3
:102B4000000000002DE9F041044600251E4617460E
:102B5000880404D405E039462020B0476D1C641E6B
:102B6000F9D52846BDE8F0812DE9F041044600255D
:102B70001E469046C80301D5302700E02027880470
:102B800004D505E041463846B0476D1C641EF9D5B2
:102B90002846BDE8F0810A68531C0B60107070472E
:102BA00010B50E4800680E49B0FBF1F0C4B26FF0EA
:102BB0000400FEF771FFE11704EB5171C910094AD7
:102BC00011701046007800EB4001C1EBC0104FF6C9
:102BD000FF7101EAC0000449088010BD0000002018
:102BE00040420F00280000202A00002001460D4A24
:102BF00012884A434FF0E0235A6100229A61012271
:102C00001A6100BF4FF0E022106900F001021AB112
:102C100000F48032002AF5D000224FF0E0231A6140
:102C20009A6170472A00002070B50FE0002408E088
:102C3000002501E0681C85B2B5F5FA7FFADB601C5F
:102C400084B2B4F57A7FF3DB012070BDFEF728FE75
:102C50004EF616718842E9D10020F6E70EB5002045
:102C6000FEF7AEFD112200210C48FEF75DFE11219A
:102C70000A48FDF792FA112200210848FEF7E8FD04
:102C8000002010214FF6FF720346CDE9002102908B
:102C9000024A1E210A20FEF78DF80EBD8800002092
:102CA00008B501210820FEF7C3FB1020ADF8000095
:102CB0008DF8030002208DF8020069460348FDF7F5
:102CC000ADFC10210248FDF786FD08BD0010014053
:102CD000000C0140FDF7CEFA4FF4FA600849086095
:102CE0000DE00020FDF7A2FD38B10648006808B9E4
:102CF000012000E0002003490860FEF7CDF8F0E76E
:102D0000800000209081214210B588B017A30FCB1E
:102D100004AC0FC40024FFF787FF04469CB917A139
:102D200004A8FFF7E3FC002010214FF6FF720346D2
:102D3000CDE90021029004AA0F210A20FEF73AF8FB
:102D4000FFF78CFF10E011A104A8FFF7CFFC0020D3
:102D500010214FF6FF720346CDE90021029004AA2C
:102D60000F210A20FEF726F808B010BD54686973D9
:102D70002069732074657374000000005732355168
:102D80003634206E6F726D616C2100005732355100
:102D90003634206661696C2E2E2E2E210000000034
:102DA000000000000000000000000000000004041B
:102DB000040404000004000014140A0000000000D1
:102DC0000000000000000A0A1F0A0A1F0A0A000089
:102DD00000040E1505060C14150E04000000121553
:102DE0000D152E2C2A1200000000040A0A361515B3
:102DF000291600000202010000000000000000008F
:102E0000100808040404040408081000020404085C
:102E1000080808080404020000000004150E0E153E
:102E20000400000000000008083E08080000000040
:102E3000000000000000000002020100000000008D
:102E4000003F000000000000000000000000000043
:102E50000002000000201010080804040202010013
:102E600000000E1111111111110E000000000406D6
:102E700004040404040E000000000E1111080402F2
:102E8000011F000000000E11100C1010110E0000A8
:102E90000000080C0C0A091F081C000000001F019C
:102EA000010F1110110E000000000C12010D131182
:102EB000110E000000001E100808040404040000A5
:102EC00000000E11110E1111110E000000000E1164
:102ED000111916100906000000000000040000008F
:102EE00000040000000000000004000000040400D2
:102EF0000000100804020204081000000000000096
:102F00003F003F000000000000000204081010080D
:102F10000402000000000E11110804040004000067
:102F200000001C22292D2D1D221C0000000004047D
:102F30000C0A0A1E1233000000000F12120E1212A9
:102F4000120F000000001E1101010101110E00000E
:102F500000000F1212121212120F000000001F12B6
:102F60000A0E0A02121F000000001F120A0E0A02B7
:102F70000207000000001C1201013911120C0000B0
:102F800000003312121E12121233000000001F0440
:102F900004040404041F000000003E080808080898
:102FA00008080907000037120A060A121237000043
:102FB0000000070202020202223F000000003B1B49
:102FC0001B1B15151535000000003B1216161A1AAA
:102FD0001217000000000E1111111111110E000046
:102FE00000000F12120E02020207000000000E1174
:102FF00011111117190E180000000F12120E0A12EB
:103000001237000000001E1101060810110F000009
:1030100000001F1504040404040E00000000331215
:1030200012121212120C000000003312120A0A0CC3
:10303000040400000000151515150E0A0A0A000008
:1030400000001B0A0A04040A0A1B000000001B0AF5
:103050000A0A0404040E000000001F090804040208
:10306000121F00001C0404040404040404041C00D3
:103070000002020404040808081010000E080808E2
:103080000808080808080E00040A000000000000F4
:103090000000000000000000000000000000003FF1
:1030A000020400000000000000000000000000001A
:1030B000000C121C123C000000030202020E12124D
:1030C000120E000000000000001C1202120C000092
:1030D00000181010101C1212123C0000000000001A
:1030E000000C121E021C000000182404041E04041C
:1030F000041E000000000000003C120C021C221CF8
:1031000000030202020E1212123700000004040033
:1031100000060404040E000000080800000C080863
:103120000808080700030202021A0A060A13000030
:103130000007040404040404041F0000000000004D
:10314000000F15151515000000000000000F1212E9
:103150001237000000000000000C1212120C0000D8
:1031600000000000000F1212120E02070000000003
:10317000001C1212121C103800000000001B060276
:103180000207000000000000001E020C101E0000DC
:1031900000000004041E0404041C000000000000E1
:1031A000001B1212123C000000000000001B0A0A63
:1031B00004040000000000000015150E0A0A0000BB
:1031C00000000000001B0A040A1B000000000000B1
:1031D000003312120C08040300000000001E080453
:1031E000041E000018080808080C08080808180041
:1031F000080808080808080808080808060404045D
:10320000040804040404060016090000000000007D
:1032100000000000000000000000000000000000AE
:103220000000000000000008080808080808000066
:103230001818000000486C24120000000000000074
:10324000000000000000002424247F1212127F12CC
:10325000121200000000081C2A2A0A0C1828282A2A
:103260002A1C080800000022251515152A58545458
:10327000542200000000000C1212120A76252911B7
:10328000916E00000006060403000000000000002C
:10329000000000000040201010080808080808106E
:1032A0001020400000020408081010101010100830
:1032B000080402000000000008086B1C1C6B0808D2
:1032C0000000000000000000080808087F08080847
:1032D00008000000000000000000000000000000E6
:1032E000060604030000000000000000FE000000CD
:1032F00000000000000000000000000000000000CE
:10330000060600000000804040202010100808043D
:10331000040202000000001824424242424242429B
:1033200024180000000000080E0808080808080813
:10333000083E00000000003C4242422020100804E9
:10334000427E00000000003C4242201820404042E3
:10335000221C0000000000203028242422227E208D
:10336000207800000000007E0202021A264040423F
:10337000221C0000000000382402021A26424242A9
:10338000241800000000007E2222101008080808FF
:10339000080800000000003C424242241824424237
:1033A000423C000000000018244242426458404061
:1033B000241C00000000000000001818000000009D
:1033C00018180000000000000000000800000000C5
:1033D000000808040000004020100804020408103F
:1033E000204000000000000000007F0000007F007F
:1033F0000000000000000002040810204020100817
:10340000040200000000003C424246402010100030
:10341000181800000000001C225A555555552D4221
:10342000221C00000000000808181414243C22424A
:1034300042E700000000001F2222221E22424242D8
:10344000221F00000000007C4242010101010142F4
:10345000221C00000000001F22424242424242421F
:10346000221F00000000003F4212121E12120242F0
:10347000423F00000000003F4212121E12120202E0
:10348000020700000000003C2222010101712122FC
:10349000221C0000000000E7424242427E424242BB
:1034A00042E700000000003E080808080808080875
:1034B000083E00000000007C1010101010101010CA
:1034C0001010110F0000007722120A0E0A121222A9
:1034D000227700000000000702020202020202023C
:1034E000427F000000000077363636362A2A2A2A24
:1034F0002A6B0000000000E346464A4A52525262DC
:10350000624700000000001C22414141414141410D
:10351000221C00000000003F424242423E020202E2
:10352000020700000000001C2241414141414D536F
:10353000321C60000000003F4242423E1212222232
:1035400042C700000000007C4242020418204042B2
:10355000423E00000000007F4908080808080808EB
:10356000081C0000000000E7424242424242424240
:10357000423C0000000000E74242222424141418B8
:10358000080800000000006B49494949555536229A
:1035900022220000000000E74224241818182424E6
:1035A00042E70000000000772222141408080808EF
:1035B000081C00000000007E2120101008040442B6
:1035C000423F0000007808080808080808080808B2
:1035D00008087800000002020404080808101020FF
:1035E00020204040001E101010101010101010105D
:1035F00010101E0000384400000000000000000011
:1036000000000000000000000000000000000000BA
:10361000000000FF0006080000000000000000009D
:1036200000000000000000000000003C427844421E
:1036300042FC0000000000030202021A264242423D
:10364000261A0000000000000000003844020202B8
:10365000443800000000006040404078444242424C
:1036600064D80000000000000000003C427E02021E
:10367000423C0000000000F08808087E08080808A6
:10368000083E0000000000000000007C22221C0216
:103690003C42423C000000030202023A46424242DF
:1036A00042E700000000000C0C00000E08080808AB
:1036B000083E0000000000303000003820202020AC
:1036C0002020221E0000000302020272120A1612BB
:1036D000227700000000000E080808080808080803
:1036E000083E0000000000000000007F92929292CD
:1036F00092B70000000000000000003B464242423A
:1037000042E70000000000000000003C424242424C
:10371000423C0000000000000000001B2642424224
:10372000221E0207000000000000007844424242CE
:10373000447840E000000000000000774C040404DE
:10374000041F0000000000000000007C42023C401A
:10375000423E0000000000000008083E080808087B
:1037600008300000000000000000006342424242B6
:1037700062DC000000000000000000E74224241486
:103780000808000000000000000000EB4949555502
:103790002222000000000000000000762418181803
:1037A000246E000000000000000000E74224241402
:1037B00018080807000000000000007E221008081A
:1037C000447E000000C02020202020102020202047
:1037D0002020C00010101010101010101010101029
:1037E000101010100006080808080810080808083B
:1037F000080806000C32C2000000000000000000B3
:1038000000000000000000000000000000000000B8
:1038100000000000000000000000000000000000A8
:103820000000000000000000000000000000000098
:1038300000000000000000000000000060006000C8
:103840006000600060006000600040002000200018
:103850002000000000000000600060006000000028
:1038600000000000000000006006600630039801C0
:10387000880044000000000000000000000000007C
:103880000000000000000000000000000000000038
:103890000000000000000000000000001002100204
:1038A00010021002FE07FE070802080108010801C5
:1038B0000801FE07FE0704010401040104010000E1
:1038C0000000000000000000000040004000F00187
:1038D00058034C03CC034C0058007000E000C001BA
:1038E000C00140034C035C034C034801F00040005E
:1038F0004000000000000000000000000E010A016E
:10390000910091009100510051003A00AE03A002D5
:10391000500450044804480448048402840300000E
:1039200000000000000000000000000038006C00F3
:103930006C006C006C006C002C0098071C011A01D4
:10394000330133016301E300C308C6093C070000EB
:1039500000000000000000000C001C00100010001F
:10396000080004000000000000000000000000004B
:103970000000000000000000000000000000000047
:1039800000000000000000000004000200018000B0
:103990008000400040002000200020002000200087
:1039A0002000200040004000800080000001000254
:1039B00000040000000000000200040008001000E5
:1039C0001000200020004000400040004000400067
:1039D00040004000200020001000100008000400FB
:1039E00002000000000000000000000000000000D5
:1039F0004000C0004000460C4E0FD001F0015E0FA9
:103A0000460C4000400040000000000000000000A4
:103A100000000000000000000000000000000000A6
:103A2000000040004000400040004000FE0F400009
:103A30004000400040004000000000000000000086
:103A40000000000000000000000000000000000076
:103A50000000000000000000000000000000000066
:103A600000000000000000000C001C00100010000E
:103A7000080004000000000000000000000000003A
:103A8000000000000000000000000000FE07000031
:103A90000000000000000000000000000000000026
:103AA0000000000000000000000000000000000016
:103AB0000000000000000000000000000000000006
:103AC00000000000000000001C001C001C000000A2
:103AD00000000000000000000004000600020003D7
:103AE00000010001800080004000400060002000D4
:103AF000200010001000080008000C000400060060
:103B00000200000000000000000000000000F000C3
:103B100098010C030C0306060606060606060606B2
:103B20000606060606060C030C039801F0000000CA
:103B30000000000000000000000000000000400045
:103B40007C00600060006000600060006000600059
:103B5000600060006000600060006000FC03000026
:103B60000000000000000000000000000000F8005D
:103B70008401020306030603000300018001C00064
:103B8000600020001000080204020602FE0300008C
:103B900000000000000000000000000000007800AD
:103BA000C6008601860180018001C000700080018E
:103BB000000100030003060306038601F80000006D
:103BC0000000000000000000000000000000800174
:103BD0008001C001A001A001900188018801840139
:103BE0008201FE0F8001800180018001E00700005A
:103BF0000000000000000000000000000000FC03C6
:103C000004000400040004000400F4008C01040318
:103C1000000300030603060382018401F80000008C
:103C20000000000000000000000000000000E001B3
:103C300018030C030C0004000600E60116030E0630
:103C400006060606060604060C021803F00000002D
:103C50000000000000000000000000000000F80765
:103C60000C060402040100010001800080004000F5
:103C700040004000600060006000600060000000E4
:103C80000000000000000000000000000000F8013B
:103C90000C030606060606060C021C03F000C8010B
:103CA0000C0306060606060606060C03F0010000D5
:103CB0000000000000000000000000000000F00014
:103CC0000C010C03060206060606060606078C060D
:103CD00078060006000300030C018C017800000048
:103CE00000000000000000000000000000000000D4
:103CF0000000000000000000E000E000E000000024
:103D00000000000000000000E000E000E000000013
:103D100000000000000000000000000000000000A3
:103D200000000000000000006000600000000000D3
:103D30000000000000000000000060006000400083
:103D4000200020000000000000000000000400022D
:103D5000000180004000200010000800040008005E
:103D6000100020004000800000010002000400005C
:103D70000000000000000000000000000000000043
:103D80000000000000000000FE070000000000002E
:103D9000FE0700000000000000000000000000001E
:103DA0000000000000000000000000000400080007
:103DB000100020004000800000010002000400020A
:103DC00000018000400020001000080004000000F6
:103DD0000000000000000000000000000000E00300
:103DE0001806040C040C0C0C0C0C0007800140009D
:103DF0004000400000000000E000E000E0000000A3
:103E0000000000000000000000000000E0001803B7
:103E10000C02CC0564056605A605B604B604B60416
:103E2000B604B602E4010C040C021803F000000012
:103E30000000000000000000000000000000600022
:103E400060005000D00090009000880088010801B8
:103E5000F801040304030402020202060F0F00002B
:103E60000000000000000000000000000000FE0054
:103E70008C030C030C030C030C038C01FC000C03DF
:103E80000C020C060C060C060C060C03FE010000CE
:103E90000000000000000000000000000000E0033F
:103EA00018030C060C0404040600060006000600B5
:103EB0000600060006040C040C021803F0000000C3
:103EC00000000000000000000000000000007F0073
:103ED0008C010C030C030C060C060C060C060C06DD
:103EE0000C060C060C060C030C038C017F00000072
:103EF0000000000000000000000000000000FF03C0
:103F0000060306040604060086008600FE008600FE
:103F1000860086000600060406040602FF03000071
:103F20000000000000000000000000000000FF038F
:103F3000060306040604060086008600FE008600CE
:103F40008600860006000600060006001F0000002E
:103F50000000000000000000000000000000F00071
:103F600018010C020C0204020600060006000600FE
:103F7000C60F060306030C030C031803F000000031
:103F800000000000000000000000000000000F0F13
:103F9000060606060606060606060606FE070606C8
:103FA0000606060606060606060606060F0F0000AB
:103FB0000000000000000000000000000000FC0302
:103FC00060006000600060006000600060006000F1
:103FD000600060006000600060006000FC030000A2
:103FE0000000000000000000000000000000F807D2
:103FF000C000C000C000C000C000C000C000C000C1
:10400000C000C000C000C000C000C000C000C600AA
:1040100066003C0000000000000000000000CF032C
:104020008601C60046002600160036002E006E00EF
:104030004600C60086008601060106038F070000C1
:1040400000000000000000000000000000001F0051
:104050000600060006000600060006000600060030
:10406000060006000600060406040602FF03000020
:104070000000000000000000000000000000070732
:10408000860386038E038E034E034E034A035A03B0
:104090005A033A0332033203320312038707000044
:1040A00000000000000000000000000000008E0F73
:1040B0000C021C021C023402340264026402440238
:1040C000C402840284038403040304031F02000067
:1040D0000000000000000000000000000000F000F0
:1040E00098010C030C0206060606060606060606DE
:1040F0000606060606060C020C039801F0000000F6
:104100000000000000000000000000000000FF00B0
:104110000603060606060606060606068603FE00D3
:104120000600060006000600060006001F0000004C
:104130000000000000000000000000000000F0008F
:1041400098010C030C02060606060606060606067D
:104150000606060676064C02CC039801F00080079E
:104160000003000000000000000000000000FF014C
:10417000060306060606060606060603FE004600B9
:10418000C600860086010603060306060F0E000021
:104190000000000000000000000000000000F80225
:1041A0000C030602060206000E003C00F800E003C5
:1041B000800300070206020606060C03F001000059
:1041C0000000000000000000000000000000FE07EA
:1041D00062046108610860006000600060006000C7
:1041E000600060006000600060006000F801000096
:1041F00000000000000000000000000000001E079A
:104200000C020C020C020C020C020C020C020C023E
:104210000C020C020C020C020C021801F00000004F
:1042200000000000000000000000000000000F0778
:104230000602040104010C010C01880088009800AA
:104240009800500050007000300020002000000056
:104250000000000000000000000000000000F70E59
:10426000620442044604460464026402E402E40276
:104270009C029C0198019801880188008800000038
:1042800000000000000000000000000000009E0789
:104290000C01080118019000B000600020006000CF
:1042A0006000D00090008801080104038E07000020
:1042B00000000000000000000000000000000F0FE0
:1042C000060404020C0208011801B800B0007000D6
:1042D000600060006000600060006000F8010000A5
:1042E0000000000000000000000000000000FC07CB
:1042F0000C02060302018001800040004000200003
:1043000020001000180008040C040402FE03000042
:104310000000000000000000E0032000200020005A
:10432000200020002000200020002000200020008D
:10433000200020002000200020002000200020007D
:10434000E003000000000000000000000400040082
:10435000080008001000100010002000200040009D
:104360004000C00080008000000100010002000247
:1043700000020004000000007C00400040004000FB
:10438000400040004000400040004000400040002D
:10439000400040004000400040004000400040001D
:1043A0007C00000000006000900008010000000098
:1043B00000000000000000000000000000000000FD
:1043C00000000000000000000000000000000000ED
:1043D00000000000000000000000000000000000DD
:1043E00000000000000000000000000000000000CD
:1043F00000000000000000000000000000000000BD
:104400000000FF0F00000000180060000000000026
:10441000000000000000000000000000000000009C
:10442000000000000000000000000000000000008C
:10443000000000000000000000000000000000007C
:104440000000000000000000F0010C030C0300035A
:10445000E0031C030E03060306038E0B7C0E000014
:1044600000000000000000000000000008000E0036
:104470000C000C000C000C00CC013C031C060C06CC
:104480000C060C060C060C060C021C03E4010000D2
:10449000000000000000000000000000000000001C
:1044A0000000000000000000F0008C018C0186017B
:1044B00006000600060006020C020C01F0000000D7
:1044C0000000000000000000000000000002C00327
:1044D000000300030003000378038C030C030603AE
:1044E000060306030603060304038C077801000095
:1044F00000000000000000000000000000000000BC
:104500000000000000000000E001180308020C0693
:104510000C06FC070C000C0018041802E001000057
:104520000000000000000000000000000000C003C8
:104530006006300630003000FE01300030003000F0
:10454000300030003000300030003000FC0100004E
:10455000000000000000000000000000000000005B
:104560000000000000000000F007D8068C018C015C
:104570008C019801F8000C00FC00CC030603060334
:104580008E03F800000000000000000008000E008C
:104590000C000C000C000C00EC011C030C030C03C1
:1045A0000C030C030C030C030C030C039E0700000C
:1045B000000000000000000000000000000060009B
:1045C00060000000000040007C00600060006000AF
:1045D000600060006000600060006000FC0300009C
:1045E0000000000000000000000000000000C0010A
:1045F000C001000000000001F00180018001800185
:1046000080018001800180018001800180018001A2
:10461000CC007C00000000000000000008000E003C
:104620000C000C000C000C008C038C008C004C0067
:104630006C005C008C008C010C010C039E070000D8
:1046400000000000000000000000000040007C00AE
:10465000600060006000600060006000600060005A
:10466000600060006000600060006000FC0300000B
:10467000000000000000000000000000000000003A
:1046800000000000000000003707EE066606660620
:10469000660666066606660666066606FF0F000084
:1046A000000000000000000000000000000000000A
:1046B0000000000000000000EE011C030C030C03CE
:1046C0000C030C030C030C030C030C039E070000EB
:1046D00000000000000000000000000000000000DA
:1046E0000000000000000000F00098010C03060626
:1046F00006060606060606060C030C03F00000007C
:1047000000000000000000000000000000000000A9
:104710000000000000000000EE011C030C060C0667
:104720000C060C060C060C060C031C03EC010C001A
:104730000C003E000000000000000000000000002F
:10474000000000000000000078028C030C03060348
:10475000060306030603060304038C037803000321
:104760000003C0070000000000000000000000007F
:1047700000000000000000009F03580638061800E3
:10478000180018001800180018001800FF0000009A
:104790000000000000000000000000000000000019
:1047A0000000000000000000F0031C030C020C02DB
:1047B0003800F000C003040304038C03FC01000074
:1047C00000000000000000000000000000000000E9
:1047D0002000200030003000FE01300030003000AA
:1047E000300030003000300030023002E0010000C4
:1047F00000000000000000000000000000000000B9
:1048000000000000000008028E030C030C030C03E0
:104810000C030C030C030C030C039C077801000031
:104820000000000000000000000000000000000088
:1048300000000000000000001E070C020801080133
:1048400018019000B000B00060006000200000007F
:104850000000000000000000000000000000000058
:104860000000000000000000F70E6204460464022D
:104870006402EC029C019801980198010800000074
:104880000000000000000000000000000000000028
:104890000000000000000000BC0718011001B0007B
:1048A00060006000E0009000080108039E0700001F
:1048B00000000000000000000000000000000000F8
:1048C00000000000000000009E0708010801080128
:1048D00090009000B00060006000600020002000A8
:1048E00024001C0000000000000000000000000088
:1048F0000000000000000000FC018401C40044002E
:10490000600020003000180208020C03FC010000C7
:104910000000000000000000000380008000800014
:104920008000800080008000800040002000400067
:104930008000800080008000800080008000800077
:1049400000030000400040004000400040004000E4
:104950004000400040004000400040004000400057
:104960004000400040004000400040004000400047
:1049700040004000000000000C001000100010007B
:104980001000100010001000100020004000200057
:104990001000100010001000100010001000100097
:1049A0000C00000000001C002204C2048003000070
:1049B00000000000000000000000000000000000F7
:1049C00000000000000000000000000000000000E7
:1049D00000000000000000000000000000000000D7
:1049E00000000000000000000000000000000000C7
:1049F00000000000000000000000000000000000B7
:104A000000000000000000000000000000000000A6
:104A10000000000000000000000000000000C001D5
:104A2000C001C001C001C001C001C0018000800000
:104A300080008000800080008000000000000000F6
:104A400000008001C003C0038001000000000000DE
:104A500000000000000000000000E01CE01CF01E50
:104A6000700E3807180308018400000000000000E1
:104A70000000000000000000000000000000000036
:104A80000000000000000000000000000000000026
:104A90000000000000000000000000000000000016
:104AA00020102010201020102010FE7FFE7F100804
:104AB000100810081008100810081008FE7FFE7F6C
:104AC00008040804080408040804000000000000AA
:104AD00000000000000000000000000000010001D4
:104AE000C0076019103118311839183938017001B0
:104AF000E001C0038007000F001D003900311C31A8
:104B00001C310C310C11180DE007000100010001EF
:104B10000000000000000000000000000000000095
:104B20001C1036186308630C630463046302630299
:104B30006301361D9C37802280634063406320639D
:104B40002063306310221836081C000000000000AB
:104B50000000000000000000000000000000000055
:104B6000F00098018C018C018C018C018C00CC0030
:104B70007800183E1C083608320863046304C30436
:104B8000C303834306438E26781C00000000000008
:104B9000000000000000000000001C003C003C0081
:104BA0003000300010000C00060000000000000083
:104BB00000000000000000000000000000000000F5
:104BC00000000000000000000000000000000000E5
:104BD0000000000000000000000000400020001065
:104BE0000008000C0004000600030003000380011D
:104BF000800180018001800180018001800100032B
:104C00000003000300060006000C0008001000204E
:104C10000040000000000000000002000400080046
:104C20001000300020006000C000C000C000800103
:104C30008001800180018001800180018001C0002D
:104C4000C000C000600060003000100008000400D8
:104C50000200000000000000000000000000000052
:104C60000000000000018003800300011C713C79FA
:104C7000783DC0070001C007783D3C791C710001F8
:104C8000800380038001000000000000000000009D
:104C90000000000000000000000000000000000014
:104CA00000000000000000010001000100010001FF
:104CB00000010001FC7F0001000100010001000172
:104CC00000010001000000000000000000000000E2
:104CD00000000000000000000000000000000000D4
:104CE00000000000000000000000000000000000C4
:104CF00000000000000000000000000000000000B4
:104D0000000000001C003C003C003000300010009F
:104D10000C00060000000000000000000000000081
:104D20000000000000000000000000000000000083
:104D300000000000FE7F00000000000000000000F6
:104D40000000000000000000000000000000000063
:104D50000000000000000000000000000000000053
:104D60000000000000000000000000000000000043
:104D70000000000000000000000000000000000033
:104D8000000018003C003C0018000000000000007B
:104D90000000000000000000000000400060002053
:104DA0000030001000180008000C0004000600028B
:104DB0000003000180018000C0004000600020006E
:104DC00030001000180008000C000400060002006B
:104DD00000000000000000000000000000000000D3
:104DE000C007600C30181830183018200C600C60A8
:104DF0000C600C600C600C600C600C600C60182087
:104E0000183018303018600CC00700000000000097
:104E10000000000000000000000000000000000092
:104E200000018001F8018001800180018001800182
:104E3000800180018001800180018001800180016A
:104E4000800180018001C003F81F00000000000005
:104E50000000000000000000000000000000000052
:104E6000E007101C0818043004300C300C300030FF
:104E7000001800080004000200018000400020200B
:104E8000102008200430FC1FFC1F00000000000060
:104E90000000000000000000000000000000000012
:104EA000E003180E0C0C0C180C180C180018000C51
:104EB0000006C003000E00180010003000300C3057
:104EC0000C300C100C18180CE0030000000000005F
:104ED00000000000000000000000000000000000D2
:104EE000000C000E000E000F800E800E400E600EB3
:104EF000200E100E100E080E040E040EFE7F000E83
:104F0000000E000E000E000E000EC07F000000001C
:104F10000000000000000000000000000000000091
:104F2000F03FF03F10001000100008000800C80714
:104F3000280C1818081000300030003000300C30F9
:104F40000C3004180418080CF003000000000000E6
:104F50000000000000000000000000000000000051
:104F6000800FC010203010301800180008000C000E
:104F70008C0F6C183C301C600C600C600C600C607A
:104F80001860182030306018C007000000000000D2
:104F90000000000000000000000000000000000011
:104FA000F83FF83F1C100C08040804040004000239
:104FB0000002000100010001800080008000C000AC
:104FC000C000C000C000C000C00000000000000021
:104FD00000000000000000000000000000000000D1
:104FE000E007300C18180C300C300C301C3038181E
:104FF0007008E007B007180E0C1C063806300630A3
:10500000063006300C18180CE00300000000000009
:105010000000000000000000000000000000000090
:10502000E00318040C080C18061006300630063091
:10503000063006380C3C1836F031003000180018E5
:1050400000180C0C0C060C03F0010000000000001E
:105050000000000000000000000000000000000050
:1050600000000000000000000000000000008001BF
:10507000C003C00380010000000000000000000029
:1050800000008001C003C003800100000000000098
:105090000000000000000000000000000000000010
:1050A0000000000000000000000000000000C00040
:1050B000C000000000000000000000000000000030
:1050C000000000000000C000C00080008000400020
:1050D0004000000000000000000000000000002070
:1050E000001000080004000600038001C0006000FA
:1050F000300018000C00180030006000C000800173
:10510000000300060004000800100020000000005A
:10511000000000000000000000000000000000008F
:105120000000000000000000000000000000FE7F02
:1051300000000000000000000000FE7F00000000F2
:10514000000000000000000000000000000000005F
:10515000000000000000000000000000000004004B
:105160000800100020006000C0008001000300065D
:10517000000C001800300018000C0006000380012D
:10518000C0006000200010000800040000000000C3
:105190000000000000000000000000000000C00748
:1051A0003018083008600C601C601C601C60003007
:1051B000001C0006000180008000800080000000CC
:1051C00000008001C003C003800100000000000057
:1051D00000000000000000000000000000000000CF
:1051E000C0076018103018200C2F8C4D864CC64C10
:1051F000C64C664C66446644662666266615CC1C1C
:105200000C40082018303018C007000000000000D3
:10521000000000000000000000000000000000018D
:10522000C001C001C001400160032003200320032E
:105230003006100610061006F80F080C080C080CB3
:105240000C0C0418041806181F7C00000000000055
:10525000000000000000000000000000000000004E
:10526000FE07181C18381830183018301830181865
:10527000180CF807181818301820186018601860F3
:105280001860186018301818FE0F000000000000A9
:10529000000000000000000000000000000000000E
:1052A000C0276038103018200C400C400400060065
:1052B00006000600060006000600060006000C4078
:1052C0000C400C2018303018C0070000000000000F
:1052D00000000000000000000000000000000000CE
:1052E000FE03180E1818183018301830186018609F
:1052F000186018601860186018601860186018301E
:10530000183018101818180EFE03000000000000D6
:10531000000000000000000000000000000000008D
:10532000FE3F183018201860184018001808180898
:10533000180CF80F180C1808180818001800180096
:105340001840184018201830FE3F000000000000F0
:10535000000000000000000000000000000000004D
:10536000FE7F1870184018C0188018001810181008
:105370001818F81F1818181018101800180018001E
:1053800018001800180018007E000000000000003F
:10539000000000000000000000000000000000000D
:1053A000C013701C101018100C200C2004000600F4
:1053B000060006000600060006FC063006300C302B
:1053C0000C30183018303008C00700000000000012
:1053D00000000000000000000000000000000000CD
:1053E0003F7E0C180C180C180C180C180C180C1804
:1053F0000C180C18FC1F0C180C180C180C180C1896
:105400000C180C180C180C183F7E0000000000004F
:10541000000000000000000000000000000000008C
:10542000F81F8001800180018001800180018001DE
:105430008001800180018001800180018001800164
:105440008001800180018001F81F00000000000041
:10545000000000000000000000000000000000004C
:10546000E07F0006000600060006000600060006B3
:1054700000060006000600060006000600060006FC
:105480000006000600060006000600060E060E03D3
:105490008E01FC0000000000000000000000000081
:1054A0007E7C1818180818041806180218019801AC
:1054B0009801D801B803380318071806180E180CFD
:1054C000181C1818183018307EFC0000000000006E
:1054D00000000000000000000000000000000000CC
:1054E0007E00180018001800180018001800180096
:1054F00018001800180018001800180018001800EC
:105500001840184018201830FE3F0000000000002E
:10551000000000000000000000000000000000008B
:105520001FF81C381C381C381C3C343434343434D8
:10553000343674326432643264326431C431C4311A
:10554000C431C430C43084309FFC0000000000002F
:10555000000000000000000000000000000000004B
:105560001F7C1C103C103410341074106410E410B4
:10557000C410C41184118413041304170416041EE8
:10558000041C041C041C04181F1800000000000068
:10559000000000000000000000000000000000000B
:1055A000C003300C181808100C300C300660066070
:1055B00006600660066006600660066006600C20F5
:1055C0000C3008101818300CC00300000000000058
:1055D00000000000000000000000000000000000CB
:1055E000FE0F1818183018601860186018601860DE
:1055F00018301818F80F18001800180018001800B4
:1056000018001800180018007E00000000000000BC
:10561000000000000000000000000000000000008A
:10562000C003300C18180C100C300C2006600660FB
:105630000660066006600660066006600660E4615B
:105640002C331C321816300EC007004C007C00387A
:10565000000000000000000000000000000000004A
:10566000FE07181C18381830183018301830181861
:10567000180CF80798031803180718061806180ED0
:10568000180C180C181C18187E7800000000000078
:10569000000000000000000000000000000000000A
:1056A000E027303818300C200C200C000C001800BB
:1056B0007800E003800F001E003800700060046076
:1056C0000460086018303818C80F0000000000009F
:1056D00000000000000000000000000000000000CA
:1056E000FC3F8C21846182418241800180018001E4
:1056F00080018001800180018001800180018001A2
:105700008001800180018001E007000000000000AE
:105710000000000000000000000000000000000089
:105720003F7C0C100C100C100C100C100C100C10FA
:105730000C100C100C100C100C100C100C100C1089
:105740000C100C1008083804E003000000000000F2
:105750000000000000000000000000000000000049
:105760003EF818201820182030103010301030105B
:10577000600860086008E00CC004C004C004800336
:10578000800380038003000100010000000000008E
:105790000000000000000000000000000000000009
:1057A000DFF38661862186218C210C218C238C13CA
:1057B0008C138C134C1358125816580E380E380E82
:1057C000380E300C1004100410040000000000001B
:1057D00000000000000000000000000000000000C9
:1057E0007E3E180838083004300470026002E00180
:1057F000C001C0018001800340034007200620064D
:10580000100C100C081808183E7C00000000000066
:105810000000000000000000000000000000000088
:105820007E7C1C10181018083008300C70046004BE
:105830006002C002C002C0018001800180018001BD
:105840008001800180018001E0070000000000006D
:105850000000000000000000000000000000000048
:10586000F83F18180818040C040E0006000700037F
:1058700080038001C001C000E000600070003000C3
:10588000382018201C100C18FE1F0000000000001B
:1058900000000000000000000000C03F4000400089
:1058A00040004000400040004000400040004000F8
:1058B00040004000400040004000400040004000E8
:1058C0004000400040004000400040004000C03F19
:1058D00000000000000000000000000000000800C0
:1058E0001800180010003000200060006000400028
:1058F000C00080008001800100010003000200065A
:1059000000060004000C0008001800180010003009
:1059100000200000000000000000FC030002000264
:105920000002000200020002000200020002000267
:105930000002000200020002000200020002000257
:105940000002000200020002000200020002FC034A
:10595000000000000000000000008007C0062008D2
:105960001010000000000000000000000000000017
:105970000000000000000000000000000000000027
:105980000000000000000000000000000000000017
:105990000000000000000000000000000000000007
:1059A00000000000000000000000000000000000F7
:1059B00000000000000000000000000000000000E7
:1059C00000000000000000000000000000000000D7
:1059D0000000FFFF0000000000007800C000000190
:1059E00000000000000000000000000000000000B7
:1059F00000000000000000000000000000000000A7
:105A00000000000000000000000000000000000096
:105A10000000000000000000000000000000000086
:105A20000000000000000000000000000000F00383
:105A300018060C0C0C0C000C800F700C1C0C0C0CC1
:105A4000060C060C064C0C4FF83800000000000055
:105A50000000000000000000000000000000100036
:105A60001E00180018001800180018001800180F61
:105A7000D8183830386018601860186018601860DE
:105A80001860182038307818C8070000000000009F
:105A90000000000000000000000000000000000006
:105AA0000000000000000000000000000000C0072F
:105AB000700C181818180C180C000C000C000C00B6
:105AC0000C20182018103008C0070000000000004B
:105AD00000000000000000000000000000000010B6
