:020000040800F2
:100000001805002001010008090100080B01000883
:100010000D0100080F010008110100080000000098
:1000200000000000000000000000000013010008B4
:100030001501000800000000170100081901000860
:100040001B0100081B0100081B0100081B01000820
:100050001B0100081B0100081B0100081B01000810
:100060001B0100081B0100081B0100081B01000800
:100070001B0100081B0100081B0100081B010008F0
:100080001B0100081B0100081B0100081B010008E0
:100090001B0100081B0100081B0100081B010008D0
:1000A0001B010008130B00081B0100081B010008BE
:1000B0001B0100081B0100081B0100081B010008B0
:1000C0001B0100081B0100081B0100081B010008A0
:1000D0001B010008630400081B0100081B01000845
:1000E0001B0100081B0100081B010008DFF80CD0F1
:1000F00002F0A0FB00480047F104000818050020AA
:100100000648804706480047FEE7FEE7FEE7FEE7B1
:10011000FEE7FEE7FEE7FEE7FEE7FEE7ED0100088B
:10012000ED00000800210020674A126842F4803286
:10013000654B1A6000BF644A126802F40030491C23
:1001400010B9B1F5A06FF6D15F4A126812F4003F02
:1001500001D0012000E00020012842D15B4A126852
:1001600042F01002594B1A601A46126822F003023C
:100170001A601A46126842F002021A60524A526825
:10018000514B5A601A4652685A601A46526842F4F5
:1001900080625A601A46526822F47C125A601A46EB
:1001A000526842F4E8125A601A46126842F08072AD
:1001B0001A6000BF444A126812F0007FFAD0424A27
:1001C000526822F00302404B5A601A46526842F0CD
:1001D00002025A6000BF3C4A526802F00C02082A30
:1001E000F9D1704710B5FFF79DFF10BD10B5364827
:1001F000006840F00100344908600846406834490E
:1002000008403149486008460068324908402E4994
:1002100008600846006820F48020086008464068AE
:1002200020F4FE0048604FF41F008860FFF7DAFFFB
:100230004FF000602849086010BD10B50021002073
:100240000022214B5B6803F00C0121B1042906D088
:10025000082928D107E0214B214C236027E01F4BC0
:100260001F4C236023E0184B5B6803F47010164B9F
:100270005B6803F48032022303EB904022B9194BF0
:100280004343174C23600DE00F4B5B6813F4003FB2
:1002900004D0144B4343124C236003E00F4B434301
:1002A0000F4C236003E00D4B0D4C236000BF00BFDB
:1002B000054B5B68C3F303130B4CE15C084B1B68F5
:1002C000CB40074C236010BD0010024000200240CC
:1002D0000000FFF8FFFFF6FE08ED00E000127A00D4
:1002E0000000002000093D000400002010B56FF060
:1002F000040000F052FD2A4800682A49B0FBF1F0E2
:1003000029490870084600784FF47A714843274914
:10031000088010BD0146244A12784A434FF0E0237A
:100320005A6100229A611A46126942F001021A616A
:1003300000BF4FF0E022106910F0010F02D010F45E
:10034000803FF6D04FF0E022126922F001024FF018
:10035000E0231A6100229A6170470146134A12880D
:100360004A434FF0E0235A6100229A611A4612690B
:1003700042F001021A6100BF4FF0E022106910F054
:10038000010F02D010F4803FF6D04FF0E022126946
:1003900022F001024FF0E0231A6100229A617047B7
:1003A0000000002000127A00140000201600002037
:1003B000014600BF704700BF484A128812F0400F44
:1003C000FAD0C2B2464B1A80704710B586B00446C8
:1003D000012144F2040001F0E4F84FF40070ADF89C
:1003E000140003208DF8160018208DF8170005A9B9
:1003F0003C4800F0B7FD4FF48060ADF814000420D5
:100400008DF8170005A9374800F0ACFD25208DF8C0
:10041000000003208DF801008DF8020001208DF806
:100420000300684600F065FC01940020ADF8080068
:10043000ADF80A00ADF80C00ADF810000C20ADF8D6
:100440000E0001A9254802F032F8012240F22551A0
:10045000224802F0C4F80121204802F0B4F806B0A6
:1004600010BD10B540F225511C4802F0A0F910B3A0
:100470001A4802F01CF9C4B21B48008810F4004F5F
:100480002BD11948008810F4804F0CD00A2C03D0CF
:1004900000201549088020E01348008840F40040FF
:1004A0001149088019E00D2C06D10F48008840F44E
:1004B00080400D49088010E00B480088C0F30D0013
:1004C0000A490C5408480088401C0749088008461F
:1004D0000088C72801DD0020088010BD00380140D9
:1004E000043801400008014018000020500000209E
:1004F00000F031F901E000F0D1F8FCE710B5044656
:100500004FF40071634800F0D8FD4FF480716148EA
:1005100000F0D5FD10215F4800F0CFFD20215D489F
:1005200000F0CDFDA1B25C4801F03AFFA1B25A48FB
:1005300001F034FF10BD10B504464FF4007155486A
:1005400000F0BDFD4FF48071524800F0B6FD10215F
:10055000504800F0B4FD20214E4800F0AEFDA1B29D
:100560004D4801F01DFFA1B24B4801F017FF10BD2F
:1005700010B504464FF40071464800F0A0FD4FF45A
:100580008071444800F09BFD1021424800F095FD29
:100590002021404800F093FD00213F4801F000FF7A
:1005A000A1B23D4801F0FAFE10BD10B504464FF46B
:1005B0000071384800F081FD4FF48071354800F03B
:1005C0007EFD1021334800F07AFD2021314800F0F3
:1005D00076FDA1B2304801F0E3FE00212E4801F083
:1005E000DDFE10BD10B54FF400712A4800F067FD24
:1005F0004FF48071274800F062FD1021254800F07B
:100600005EFD2021234800F05AFD0021224801F020
:10061000C7FE0021204801F0C1FE10BD70B50446A0
:100620000D464FF400711B4800F049FD4FF48071F6
:10063000184800F042FD1021164800F03EFD202130
:10064000144800F03CFDA1B2134801F0A9FEA9B284
:10065000114801F0A3FE70BD70B504460D464FF47D
:1006600000710C4800F029FD4FF48071094800F03A
:1006700026FD1021074800F022FD2021054800F04A
:100680001CFDA1B2044801F08BFEA9B2024801F0A2
:1006900085FE70BD000C0140000800401FB5012020
:1006A00003900290019000906B4601AA02A903A852
:1006B00000F0F6FA039808B1029850B9009840B9D2
:1006C00041F658310846FFF7A9FF5020FFF745FED5
:1006D00040E0039860B9019808B1009840B941F62C
:1006E00058310846FFF7B8FF5020FFF736FE31E0DB
:1006F000039840B941F690210846FFF78FFF0A2082
:10070000FFF72BFE26E0009840B941F690210846FD
:10071000FFF7A2FF0A20FFF720FE1BE0029838B97E
:100720000198012804D141F66410FFF721FF11E080
:100730000298012806D1019820B941F66410FFF70C
:1007400034FF07E0029828B9019818B94FF4E15036
:10075000FFF7D4FE1FBD10B5FFF7C8FD00F00AF883
:1007600000234FF4E1521946104600F027F900F03B
:10077000D2F810BD08B50121082000F012FF4FF497
:100780004C70ADF8000010208DF8030003208DF8A8
:1007900002006946854800F0E5FB4FF44C71834840
:1007A00000F08DFC0121092000F0FBFE01218048B2
:1007B00000F0A7FC08BD08B5012000F02AFD0020CC
:1007C00000F060FE002000F016FB002000F021FD8C
:1007D0000121042000F0E5FE4FF40060ADF80000B8
:1007E00010208DF8030002208DF802006946714840
:1007F00000F0B8FB0121082000F0D3FE4FF40050B8
:10080000ADF8000010208DF8030002208DF80200E2
:100810006946664800F0A6FB0121082000F0C1FEF1
:100820004FF48040ADF8000010208DF80300022046
:100830008DF8020069465D4800F094FB0121082014
:1008400000F0AFFE4FF40040ADF8000010208DF82E
:10085000030003208DF802006946544800F082FB33
:100860000121042000F09DFE4FF48070ADF80000DF
:1008700010208DF8030003208DF8020069464D48D2
:1008800000F070FB0121042000F08BFE0220ADF887
:10089000000010208DF8030003208DF80200694647
:1008A000444800F05FFB08BD08B50121042000F0BA
:1008B00078FE4FF48050ADF8000010208DF8030052
:1008C00003208DF8020069463A4800F04BFB0121F5
:1008D000042000F066FE4FF40040ADF80000102048
:1008E0008DF8030003208DF802006946314800F0BE
:1008F00039FB0121082000F054FE0820ADF800006B
:1009000010208DF8030003208DF802006946274867
:1009100000F028FB08BD08B50121102000F041FEC1
:100920004FF48040ADF8000048208DF8030003200C
:100930008DF802006946204800F014FB01211020C8
:1009400000F02FFE4FF40050ADF8000048208DF865
:10095000030003208DF802006946174800F002FBEF
:100960000121102000F01DFE4FF40040ADF8000002
:1009700048208DF8030003208DF8020069460E48D8
:1009800000F0F0FA0121082000F00BFE4FF4805037
:10099000ADF8000048208DF8030003208DF8020018
:1009A0006946024800F0DEFA08BD0000000C014074
:1009B000000230000008014000100140F0B589B08D
:1009C00007460C4615461E460121042000F0F6FDA0
:1009D0008020ADF8200018208DF8230003208DF82A
:1009E000220008A9304800F0BDFAADF81870ADF843
:1009F00014400020ADF81A00ADF8160005A92B48E8
:100A000000F00EFF6020ADF804000120ADF80600F4
:100A10000020ADF80C00ADF80A0001A9234800F051
:100A20007EFF0821214801F06CFB01211F4801F0E5
:100A300026FA0121042000F0C1FD0121092000F067
:100A4000B0FD4020ADF8200018208DF823000320D1
:100A50008DF8220008A9144800F084FAADF8185067
:100A6000ADF814600020ADF81A00ADF8160005A925
:100A70000E4800F0D5FE6020ADF804000120ADF86E
:100A800006000020ADF80C00ADF80A0001A90748E7
:100A900000F003FF0821054801F02AFB012103486B
:100AA00001F0EDF909B0F0BD000C01400008004074
:100AB0007FB504460D460121C80200F072FDADF875
:100AC0000840681E80B2ADF804000020ADF80A00AE
:100AD000ADF806008DF80C0001A9674800F0A0FEF3
:100AE00001221146644801F0F0F919208DF8000048
:100AF00000208DF8010003208DF8020001208DF800
:100B00000300684600F0F5F801215B4801F0B7F9F1
:100B10007FBD10B50121584801F071FCB8B3012127
:100B2000554801F07DFC55480068401C5349086059
:100B30005348006800EB400101EBC00000F5FA707B
:100B40000A2190FBF1F04D490968884205DB4FF41A
:100B500000614C4800F0B1FA04E04FF400614948EC
:100B600000F0ADFA4848006800EB400101EBC0001E
:100B700000F5FA700A2190FBF1F0404909688842BB
:100B800006DB4FF40051414800F097FA05E072E0AF
:100B90004FF400513D4800F092FA3D48006800EBE8
:100BA000400101EBC00000F5FA700A2190FBF1F062
:100BB00032490968884205DB4FF48041334800F030
:100BC0007CFA04E04FF48041304800F078FA314874
:100BD000006800EB400101EBC00000F5FA700A214B
:100BE00090FBF1F025490968884205DB4FF400418C
:100BF000264800F062FA04E04FF40041234800F078
:100C00005EFA2548006800EB400101EBC00000F5EA
:100C1000FA700A2190FBF1F018490968884205DB57
:100C20004FF48071174800F048FA04E04FF48071E7
:100C3000144800F044FA1948006800EB400101EB49
:100C4000C00000F5FA700A2190FBF1F00B49096829
:100C5000884204DB02210B4800F02FFA03E0022156
:100C6000084800F02CFA05480068B0F5FA6F02D188
:100C700000200249086010BD002C0140380000200F
:100C8000200000200008014024000020000C01404A
:100C9000280000202C00002030000020340000201C
:100CA0002DE9F04104460D4616461F464FF480419B
:100CB0000B4800F0E8F920604FF40051084800F0BC
:100CC000E2F928604FF40041054800F0DCF930609B
:100CD0004FF48051034800F0D6F93860BDE8F08148
:100CE00000100140000C014036490143364A1160B2
:100CF000704770B5002100230F22C4784CB3324CEA
:100D0000246804F4E064C4F5E0644FEA1421C1F1FE
:100D1000040322FA01F2447804FA03F1847804EA25
:100D2000020444EA01014FEA0111284C0678A1555A
:100D3000047804F01F054FF0010404FA05F4057867
:100D40004FEA65154FF0E02606EB8505C5F8004132
:100D500009E0047804F01F050124AC401C4D06781E
:100D6000761145F8264070BD1A4A0A4002431A4BD4
:100D70001A60704741B1194A126842EA00024FF006
:100D8000E023C3F8102D07E0144A126822EA00029B
:100D90004FF0E023C3F8102D7047042808D14FF01E
:100DA000E021096941F004014FF0E022116107E000
:100DB0004FF0E021096921F004014FF0E0221161B8
:100DC000704700000000FA050CED00E000E400E0D0
:100DD00080E100E080FFFF1F08ED00E010ED00E083
:100DE00010B5012000F011FC002000F00EFC10BD39
:100DF0002449086070472449086070472349086007
:100E0000704701460020224A10884FF67F4200EAD0
:100E1000020040EA01001F4AA2F82C0C704701466C
:100E200000201B4A10884FF6807200EA020040EA58
:100E30000100184AA2F82C0C70470022144A2C3AE0
:100E400002441160704701460022114A2C3A0A44BC
:100E50001088704710480068C0B270470F4800887B
:100E600040F001000B49A1F8340C70470C480068B1
:100E7000C0B270470948008840F002000549A1F857
:100E8000340C704704860D4200860D4288860D4260
:100E90002C6C004000600040A0860D42346C004085
:100EA000A4860D4210B50446CA48844208D10121E7
:100EB000042000F090FB0021042000F08CFB46E0B1
:100EC000C548844208D10121082000F084FB00219C
:100ED000082000F080FB3AE0C048844208D101219C
:100EE000102000F078FB0021102000F074FB2EE0B1
:100EF000BB48844208D10121202000F06CFB002176
:100F0000202000F068FB22E0B648844208D101218D
:100F1000402000F060FB0021402000F05CFB16E068
:100F2000B148844208D10121802000F054FB002107
:100F3000802000F050FB0AE0AC48844207D1012138
:100F4000801500F048FB0021A01500F044FB10BD07
:100F500010B50121084600F03EFB0021012000F001
:100F60003AFB10BD2DE9F041024600250026002085
:100F700000230024002791F803C00CF00F0591F81E
:100F800003C01CF0100F03D091F802C04CEA050515
:100F9000B1F800C01CF0FF0F31D0146800202BE026
:100FA0004FF0010C0CFA00F3B1F800C00CEA030694
:100FB0009E4220D183004FF00F0C0CFA03F7BC4384
:100FC00005FA03FC4CEA040491F803C0BCF1280FB5
:100FD00006D14FF0010C0CFA00FCC2F814C00AE074
:100FE00091F803C0BCF1480F05D14FF0010C0CFA89
:100FF00000FCC2F810C0401C0828D1D31460B1F81E
:1010000000C0BCF1FF0F34DD546800202EE000F179
:10101000080C4FF0010808FA0CF3B1F800C00CEA14
:1010200003069E4221D183004FF00F0C0CFA03F708
:10103000BC4305FA03FC4CEA040491F803C0BCF17C
:10104000280F05D100F1080C08FA0CF8C2F814803A
:1010500091F803C0BCF1480F07D100F1080C4FF024
:10106000010808FA0CF8C2F81080401C0828CED3FA
:101070005460BDE8F0814FF6FF710180022181705C
:101080000421C17070470246002093680B4201D0D2
:10109000012000E0002070470146886880B2704758
:1010A00002460020D3680B4201D0012000E000205E
:1010B00070470146C86880B270470161704741615E
:1010C00070470AB1016100E041617047C16070473B
:1010D0004FF480320A438261816182618269826950
:1010E000704702460020424B18684FF68073184044
:1010F00040EA021008433E4B186070473D49C86102
:101100007047F0B50A46002300240021002500F0B6
:101110000046B6F1004F02D1354EF16901E0344E80
:101120007168C0F3034583B200F44016B6F5401F62
:1011300008D121F070612E4E766826F070662C4F33
:101140007E6012E000F48016B6F5801F06D10326FB
:1011500006FA05F4A14341F0706106E0460D360140
:1011600003FA06F6B14341F0706122B1460D360133
:1011700003FA06F6314300F00046B6F1004F02D103
:101180001B4EF16101E01A4E7160F0BD30B50022D6
:101190008B071C0F0F2303FA04F2154B08338C1036
:1011A00053F824309343124C08348D1044F8253002
:1011B00023468C1053F824308C07240F00FA04F4D3
:1011C00023430B4C08348D1044F8253030BD0A49B8
:1011D0000860704700080140000C01400010014009
:1011E0000014014000180140001C01400020014093
:1011F0000000014000002042DC00204210B5012127
:10120000080700F0F5F900214FF0805000F0F0F9E8
:1012100010BD2C49086270472A4908617047014691
:101220000020294A106820F0E00008431060704751
:1012300026490860704710B502460020224B186806
:1012400020F0030010431860214B1B6843F0040397
:101250004FF0E024C4F8103D012901D130BF00E077
:1012600020BF1B4B1B6823F004034FF0E024C4F89D
:10127000103D10BD1448006840F004001249086099
:101280000846006840F0020008601148006840F01D
:1012900004004FF0E021C1F8100D00BF00BF30BFC7
:1012A000704701460020084A52680A4201D00120D6
:1012B00000E0002070470449096841EA8001024AC1
:1012C0001160704700000E4200700040A0000E4206
:1012D00010ED00E0DB48006840F00100D9490860EB
:1012E00008464068D8490840D64948600846006822
:1012F000D6490840D34908600846006820F4802099
:1013000008600846406820F4FE0048604FF41F0063
:1013100088607047CB49096821F48031C94A11605F
:101320001146096821F480211160B0F5803F03D097
:10133000B0F5802F0ED106E0C249096841F4803132
:10134000C04A116007E0BF49096841F4A021BD4AC5
:10135000116000E000BF00BF704710B501460022D9
:10136000002300204A11012A02D1B64C236806E06E
:10137000022A02D1B34C236A01E0B24C636A01F045
:101380001F02012494401C4201D0012000E00020F3
:1013900010BD70B500240025002600BF3120FFF7E6
:1013A000DCFF0646641CB4F5A06F01D0002EF5D01A
:1013B0003120FFF7D2FF08B1012500E000252846C3
:1013C00070BD014600209F4A106820F0F80040EAF6
:1013D000C100106070479E490860704702460020B7
:1013E000984B586820F47C1042EA01031843954B4F
:1013F0005860704796490866704701460020914A38
:10140000506820F003000843506070478D484068E2
:1014100000F00C007047014600208A4A506820F016
:10142000F00008435060704701460020854A50682C
:1014300020F4E06008435060704701460020814A74
:10144000506820F4605040EAC1005060704729B1F4
:101450007C4A527A02437B4B5A7206E0794A527AAE
:10146000C343DBB21A40774B5A7270477949086020
:10147000704701460020734A506820F440400843FA
:10148000506070470021744A11706E4A82F8201033
:10149000012802D0042808D103E001216E4A11700E
:1014A00004E005216C4A117000E000BF00BF7047E6
:1014B0006A49086070476349096A0143614A1162D9
:1014C000704767490860704730B50021002200244A
:1014D00000235C4D6D6805F00C0121B1042905D095
:1014E000082923D105E05F4D056022E05D4D0560D0
:1014F0001FE0544D6D6805F47012524D6D6805F48F
:101500008034022505EB92421CB9574D55430560C6
:101510000BE04C4D6D6815F4003F03D0524D554320
:10152000056002E04F4D5543056002E04D4D0560FA
:1015300000BF00BF434D6D6805F0F00109094B4D38
:101540006B5C0568DD4045603E4D6D6805F4E0610B
:10155000090A464D6B5C4568DD408560394D6D6814
:1015600005F46051C90A414D6B5C4568DD40C560BA
:10157000344D6D6805F44041890B3D4D6B5CC56889
:10158000B5FBF3F5056130BD29B12E4A526902431E
:101590002C4B5A6104E02B4A52698243294B5A6111
:1015A000704729B1274A92690243264B9A6104E0A9
:1015B000244A92698243234B9A61704729B1214A98
:1015C000D26902431F4BDA6104E01E4AD2698243AA
:1015D0001C4BDA61704729B11A4AD2680243194B91
:1015E000DA6004E0174AD2688243164BDA6070472B
:1015F00029B1144A12690243124B1A6104E0114ADC
:10160000126982430F4B1A6170471A49086070478C
:101610000F49C86470470B49C87170470948406A50
:1016200040F0807007494862704701460020054A33
:1016300092680A4201D0012000E000207047014971
:1016400088727047001002400000FFF8FFFFF6FEAE
:1016500000004242D8004242201002408004424230
:101660003C04424200127A0000093D003C00002088
:101670004C0000204004424210B50446FF4884421A
:1016800008D10121C014FFF7A6FF0021E014FFF7E5
:10169000A2FFC4E0B4F1804F08D101210846FFF752
:1016A000A7FF00210120FFF7A3FFB8E0F448844220
:1016B00008D101210220FFF79BFF00210220FFF744
:1016C00097FFACE0EF48844208D101210420FFF7E6
:1016D0008FFF00210420FFF78BFFA0E0EA4884423F
:1016E00008D101210820FFF783FF00210820FFF720
:1016F0007FFF94E0E548844208D101211020FFF7E4
:1017000077FF00211020FFF773FF88E0E048844254
:1017100008D101212020FFF76BFF00212020FFF7D7
:1017200067FF7CE0DB48844208D101214014FFF7C9
:1017300052FF00216014FFF74EFF70E0D64884424C
:1017400009D10121C804FFF746FF00214FF4002012
:10175000FFF741FF63E0D148844209D10121080528
:10176000FFF739FF00214FF48010FFF734FF56E0F8
:10177000CB48844209D101214805FFF72CFF002105
:101780004FF40010FFF727FF49E0C648844208D114
:1017900001214020FFF72CFF00214020FFF728FF08
:1017A0003DE0C148844208D101218020FFF720FF9D
:1017B00000218020FFF71CFF31E0BC48844208D1A3
:1017C00001218015FFF714FF0021A015FFF710FF7E
:1017D00025E0B748844209D101210804FFF7FBFE48
:1017E00000214FF48030FFF7F6FE18E0B148844244
:1017F00009D101214804FFF7EEFE00214FF400302B
:10180000FFF7E9FE0BE0AC48844208D101218804CF
:10181000FFF7E1FE00214FF48020FFF7DCFE10BD52
:1018200000220288954B98420ED09A4B98420BD0DA
:10183000B0F1804F08D0924B984205D0914B98421E
:1018400002D0914B984204D14FF68F731A404B88C7
:101850001A438E4B984207D08D4B984204D04FF6D6
:10186000FF431A40CB881A4302808B8883850B88FC
:101870000385824B98420BD0864B984208D08C4B04
:10188000984205D08B4B984202D08B4B984201D1A5
:101890000B7A038601238382704770B500240022EF
:1018A0000023058C4FF6FE7635400584028C838834
:1018B000048B4FF68F752C40B51E2C400D882C43A1
:1018C000751E2A400D892A434D882A436B4DA84234
:1018D0000BD0704DA84208D0754DA84205D0754D6B
:1018E000A84202D0744DA84213D14FF6F7752A4092
:1018F0004D892A434FF6FB752A408D882A434FF6BF
:10190000FF652B404FF6FF552B408D892B43CD892A
:101910002B4383800483CD888586028470BD70B597
:10192000002400220023058C4FF6EF763540058415
:10193000028C8388048B48F6FF752C404FF6FF45D8
:101940002C400D882D0644EA15444FF6DF752A40D9
:101950000D892D0542EA15424D882D0542EA1542B2
:10196000464DA84202D04B4DA8421BD14FF67F7581
:101970002A404D892D0542EA15424FF6BF752A408F
:101980008D882D0542EA15424FF6FF352B404FF268
:10199000FF752B408D89AD0443EA1543CD89AD0415
:1019A00043EA154383800483CD880587028470BD94
:1019B00070B5002400220023058C4FF6FF663540E9
:1019C0000584028C8388848B4FF68F752C404FF6EC
:1019D000FC752C400D882C434FF6FF552A400D898D
:1019E0002D0642EA15424D882D0642EA1542234D46
:1019F000A84202D0274DA8421BD14FF2FF752A40C2
:101A00004D892D0642EA15424FF6FF352A408D8852
:101A10002D0642EA15424EF6FF752B404DF6FF7536
:101A20002B408D892D0543EA1543CD892D0543EAC9
:101A3000154383808483CD888587028470BD70B50B
:101A4000002200230024058C4EF6FF7635400584E5
:101A5000038C8488828B48F6FF752A404FF6FF4539
:101A60002A400D882D0642EA15424DF6FF752B409F
:101A70000D892D0743EA15434D881FE0002C0140D6
:101A80000004004000080040000C0040001000402E
:101A90000014004000340140004C0140005001405F
:101AA0000054014000180040001C0040002000408D
:101AB0000040014000440140004801402D0743EA36
:101AC0001543F94DA84202D0F84DA84206D14BF675
:101AD000FF752C408D89AD0544EA154484808283CE
:101AE000CD88A0F84050038470BD828B4FF2FF3345
:101AF0001A408283828B0B0642EA1342828370472C
:101B0000F0B50C461546002200210026078C4EF643
:101B1000FF7C07EA0C070784828B018C27073E0CA9
:101B200040F6FF473A402F0642EA17421F0742EAB3
:101B30001742DD4FB8420ED0DC4FB8420BD0B0F1A7
:101B4000804F08D0DA4FB84205D0DA4FB84202D001
:101B5000D94FB84206D14DF6FF77394046F4805749
:101B6000394305E047F6FF57394044F4805739437D
:101B700082830184F0BD828B4FF6F3731A40828317
:101B8000828B0A4382837047F0B50C4615460022CB
:101B900000210026078C4FF6FF6C07EA0C0707842C
:101BA000828B018C27063E0C4FF60C773A401F05BE
:101BB00045EA17473A43BC4FB8420ED0BB4FB84234
:101BC0000BD0B0F1804F08D0B94FB84205D0B94F13
:101BD000B84202D0B84FB84206D14FF6FF5739404D
:101BE00046F48077394305E04FF2FF57394044F41B
:101BF0008077394382830184F0BD028B4FF2FF333B
:101C00001A400283028B0B0642EA1342028370479A
:101C1000F0B50C461546002200210026078C4FF631
:101C2000EF7C07EA0C070784028B018C27053E0C2A
:101C300040F6FF473A401F0742EA17422F0642EAA2
:101C40001742994FB8420ED0984FB8420BD0B0F11E
:101C5000804F08D0964FB84205D0964FB84202D078
:101C6000954FB84206D14FF6DF77394046F010075E
:101C7000394305E04FF65F77394044F010073943A8
:101C800002830184F0BD028B4FF6F3731A40028386
:101C9000028B0A4302837047F0B50C4615460022BA
:101CA0000021068C4FF6FE773E400684028B018CA5
:101CB0004FF60C7632401E0545EA164632437A4E00
:101CC000B0420ED0794EB0420BD0B0F1804F08D068
:101CD000774EB04205D0774EB04202D0764EB04239
:101CE00006D14FF6FD76314044F00106314305E060
:101CF0004FF6F576314044F001063143028301840A
:101D0000F0BD70B505460C46674885420ED0674861
:101D100085420BD0B5F1804F08D06548854205D08B
:101D20006448854202D06448854200D100E000BF8B
:101D3000208850B92389A28861882846FFF7ACFF24
:101D4000E1882846FFF79FFF25E0208804280AD174
:101D50002389A28861882846FFF75AFFE188284630
:101D6000FFF74BFF17E0208808280AD12389A288B3
:101D700061882846FFF708FFE1882846FFF7FBFE49
:101D800009E02389A28861882846FFF7B9FEE18827
:101D90002846FFF7AAFE70BD2DE9F04105460C4626
:101DA00000260127608808B9022600E00026A088E6
:101DB000012801D1022700E001272088A0B923894A
:101DC000A28861882846FFF767FFE1882846FFF769
:101DD0005AFF23893A4631462846FFF719FFE18822
:101DE0002846FFF70AFF13E02389A2886188284666
:101DF000FFF70EFFE1882846FFF7FFFE23893A46EA
:101E000031462846FFF748FFE1882846FFF73BFFA9
:101E1000BDE8F0810A884B881A438B881A43CB8827
:101E20001A430B891A434B891A438B891A43A0F82A
:101E3000442070474FF6FF71818000210180C180EE
:101E40004180017270470021018041808180C18002
:101E5000018141818181C1817047002101804180E0
:101E6000012181800021C180018170470021018012
:101E700041808180C180018141818181704721B190
:101E8000028842F00102028004E002884FF6FE73ED
:101E90001A400280704789B1B0F8442042F40042F1
:101EA000A0F8442010E00000002C01400034014064
:101EB0000004004000080040000C0040B0F844203E
:101EC000C2F30E02A0F84420704710B51AB18389FE
:101ED0000B43838104E08389CC43A4B223408381F4
:101EE00010BD8182704741EA0203A0F84830704774
:101EF00010B51AB183890B43838104E08389CC43F5
:101F0000A4B22340838110BD01894FF6F8721140BD
:101F1000018170470A46002101894FF68F731940ED
:101F200011430181704730B504460D4629462046CD
:101F3000FFF7F0FF208940F00700208130BD2DE938
:101F4000F04104460D4616461F46602D06D13B461D
:101F5000012231462046FFF75BFE05E03B460122A9
:101F600031462046FFF798FE29462046FFF7D2FF6C
:101F7000208940F007002081BDE8F08130B50C4693
:101F800000210189C9B21D0642EA154525432943AE
:101F9000018130BD2DE9F04105460E4617469846B1
:101FA000002443463A4631462846FFF7E7FF2C898E
:101FB0004FF6F8710C4044F007044FF68F710C4057
:101FC00044F070042C81BDE8F081F0B504460D4664
:101FD00016461F463B46324629462046FFF7CEFFAF
:101FE000208940F480402081F0BD018582827047C5
:101FF0000A46002101884FF68F7319401143018072
:102000007047F0B50C4615461E46002100220023FD
:102010000189028B038C4FF6F877394021434FF644
:10202000FC473A4040F201173A434FF6DD773B4018
:10203000370545EA17473B43018102830384F0BD1E
:102040000A460021018B4FF68F731940114301831B
:1020500070470A460021018B48F6FF7319401306AA
:1020600041EA1341018370470A460021818B4FF6F4
:102070008F7319401143818370470A460021818B79
:1020800048F6FF731940130641EA134181837047F4
:1020900021B1028842F08002028004E002884FF6FB
:1020A0007F731A400280704721B1828842F0040297
:1020B000828004E082884FF6FB731A40828070476A
:1020C00021B1828842F00802828004E082884FF6C3
:1020D000F7731A408280704721B1828842F0010272
:1020E000828004E082884FF6FE731A408280704737
:1020F0000A460021018B4FF6F77319401143018303
:1021000070470A460021018B4FF2FF7319401306F6
:1021100041EA1341018370470A460021818B4FF643
:10212000F77319401143818370470A460021818B60
:102130004FF2FF731940130641EA13418183704740
:102140000A460021018B4FF6FB73194011430183AE
:1021500070470A460021018B4FF6FF3319401306E2
:1021600041EA1341018370470A460021818B4FF6F3
:10217000FB7319401143818370470A460021818B0C
:102180004FF6FF331940130641EA1341818370472C
:102190000A460021018B4FF67F73194011430183DA
:1021A00070470A460021018BC1F30E01130641EA74
:1021B0001341018370470A460021818B4FF67F73DC
:1021C00019401143818370470A460021818BC1F376
:1021D0000E01130641EA1341818370470A4600212C
:1021E000018C4FF6FD7319401143018470470A4674
:1021F0000021018C4FF6F773194011430184704799
:102200000A460021018C4FF6DF731940130541EA9D
:102210001341018470470A460021018C4FF67F73F9
:102220001940130541EA1341018470470A46002111
:10223000018C4FF6FF531940130641EA1341018404
:1022400070470A460021018C4FF2FF7319401306B4
:1022500041EA1341018470470A460021018C4DF682
:10226000FF731940130741EA13410184704730B5E9
:10227000002301248C40A3B2048CDD43ADB22C407A
:102280000484048C02FA01F5ADB22C43048430BD01
:1022900030B5002304248C40A3B2048CDD43ADB2DE
:1022A0002C400484048C02FA01F5ADB22C43048462
:1022B00030BD70B5034600200024184618300125B3
:1022C0008D40ACB21D8CE643B6B235401D8409B1D9
:1022D000082909D100EB6100056825F0700505604B
:1022E0000568154305600CE00D1FADB200EB6500FD
:1022F000056825F4E04505600568160645EA1645BB
:10230000056070BD21B1028842F00202028004E043
:1023100002884FF6FD731A400280704721B102888F
:1023200042F00402028004E002884FF6FB731A4078
:102330000280704721B1828842F08002828004E0EE
:1023400082884FF67F731A408280704702884FF66A
:10235000F7731A40028002880A430280704782881D
:102360004FF68F731A40828082880A4382807047BA
:1023700002894FF6F8731A40028102890A430281EA
:10238000704702894FF67F731A40028102890A431F
:1023900002817047818470478185704781867047CC
:1023A0000187704781877047A0F840107047028806
:1023B0004FF6FF431A40028002880A4302807047AA
:1023C0000146888E70470146088F70470146888F06
:1023D00070470146B1F8400070470146888C70474D
:1023E0000146088D704702460020138A0B4201D037
:1023F000012000E000207047CA430282704730B5D8
:102400000246002000230024158A05EA010395896D
:1024100005EA010413B10CB1012000E0002030BD39
:10242000CA4302827047000010B50446FC4884424B
:1024300009D101218803FFF7CEF800214FF4804035
:10244000FFF7C9F832E0F748844209D10121480476
:10245000FFF7CEF800214FF40030FFF7C9F825E070
:10246000F148844209D101218804FFF7C1F8002115
:102470004FF48020FFF7BCF818E0EC48844209D103
:102480000121C804FFF7B4F800214FF40020FFF742
:10249000AFF80BE0E648844208D101210805FFF7B8
:1024A000A7F800214FF48010FFF7A2F810BD2DE926
:1024B000F04786B005460E460024A24600BFA1465E
:1024C0000027B08900B100BF2F462C8A4CF6FF7060
:1024D0000440F08804432C82AC894EF6F31004408B
:1024E000B08831890843718908430443AC81AC8AC0
:1024F0004FF6FF400440B0890443AC8201A8FEF7C8
:10250000E3FFC748874202D1DDF810A001E0DDF803
:102510000CA0A88910F4004F08D00AEBCA0000EB09
:102520000A1031684900B0FBF1F807E00AEBCA0075
:1025300000EB0A1031688900B0FBF1F86420B8FBA9
:10254000F0F004012009642101FB1089A88910F42E
:10255000004F08D0322000EBC900B0FBF1F000F0D2
:102560000700044308E0322000EB09106421B0FBAF
:10257000F1F000F00F0004432C8106B0BDE8F087B5
:102580004FF41651016000218180C18001810C212E
:10259000418100218181704710B502460020108AD8
:1025A0004FF2FF0318400B884C8823438C88234349
:1025B000CC8823431843108210BD00210180418044
:1025C0008180C180704721B1828942F400528281AA
:1025D00004E082894DF6FF731A4082817047F0B59E
:1025E00003460024002600250020A1F510676A3F5D
:1025F00000D100BF1846C1F3421401F01F060127A5
:1026000007FA06F5012C01D10C3004E0022C01D1AF
:10261000103000E014301AB107682F43076002E061
:102620000768AF430760F0BD10B51AB1838A0B434A
:10263000838204E0838ACC43A4B22340838210BD0A
:10264000028A4FF6F0731A400282028A0A4302821B
:10265000704782894FF2FF731A40828182890A4350
:102660008281704721B1828942F00202828104E0B6
:1026700082894FF6FD731A4082817047028A4FF6B5
:10268000DF731A400282028A0A430282704721B134
:10269000028A42F48042028204E0028A4BF6FF730F
:1026A0001A4002827047C1F30802828070470146D7
:1026B0008888C0F308007047818941F00101818159
:1026C0007047028BD2B20283028B42EA012202835C
:1026D0007047028B02F47F420283028B0A4302831B
:1026E000704721B1828A42F02002828204E0828A0D
:1026F0004FF6DF731A408282704721B1828A42F01E
:102700001002828204E0828A4FF6EF731A408282BE
:10271000704721B1828A42F00802828204E0828AF4
:102720004FF6F7731A408282704721B1828942F4D2
:102730000042828103E08289C2F30E0282817047E7
:1027400021B1828A42F40062828204E0828A4FF2DE
:10275000FF731A4082827047828A4FF6FB731A40D9
:102760008282828A0A438282704721B1828A42F041
:102770000202828204E0828A4FF6FD731A4082824E
:10278000704702460020B1F5007F00D100BF1388DA
:102790000B4201D0012000E00020704701F40072DC
:1027A000B2F5007F00D100BFCA430280704770B508
:1027B00002460024002300250020A1F510666A3E91
:1027C00000D100BFC1F3421501F01F03012606FA34
:1027D00003F3012D02D19689334006E0022D02D188
:1027E000168A334001E0968A33400C12012606FA1D
:1027F00004F41688344013B10CB1012000E000202D
:1028000070BD10B500220023A1F510646A3C00D110
:1028100000BF0A1201249440A3B2DC43048010BD1F
:10282000003801400044004000480040004C004097
:1028300000500040064C074D06E0E06840F0010300
:1028400094E8070098471034AC42F6D3FDF752FCE9
:10285000782800089828000802E008C8121F08C15C
:10286000002AFAD170477047002001E001C1121F11
:10287000002AFBD1704700009828000800000020C3
:102880005000000058280008E828000850000020E8
:10289000C80400006828000800A24A0400000000E4
:1028A0000000000001020304060708090000000000
:1028B0000000000000000000000000000000000018
:1028C0000000000000000000000000000000000008
:1028D00000000000000000000102030401020304E4
:0828E0000607080902040608BE
:04000005080000ED02
:00000001FF
