:020000040800F2
:100000005007002099010008390A00081509000866
:100010001909000835060008251300080000000033
:10002000000000000000000000000000950D000826
:100030003906000800000000710D0008A90E000834
:10004000B3010008B3010008B3010008B3010008C0
:10005000B3010008B3010008B3010008B3010008B0
:10006000B3010008B3010008B3010008B3010008A0
:10007000B3010008B3010008B3010008B301000890
:10008000B3010008B3010008B3010008B301000880
:10009000B3010008B3010008B3010008B301000870
:1000A000B3010008B3010008B3010008B301000860
:1000B000B3010008B3010008B3010008B301000850
:1000C000B3010008B3010008B3010008B301000840
:1000D000B301000805120008B3010008B3010008CD
:1000E000B3010008B3010008B301000800F002F8F2
:1000F00000F042F80AA090E8000C82448344AAF180
:100100000107DA4501D100F037F8AFF2090EBAE87D
:100110000F0013F0010F18BFFB1A43F0010318473B
:1001200090190000B0190000103A24BF78C878C1B7
:10013000FAD8520724BF30C830C144BF04680C60ED
:10014000704700000023002400250026103A28BF35
:1001500078C1FBD8520728BF30C148BF0B60704739
:10016000642900F07180632900F0CF81002070477E
:100170001FB51FBD10B510BD00F02EFA1146FFF7D8
:10018000F7FF01F0F1F800F04CFA03B4FFF7F2FFCB
:1001900003BC01F0D0F80000094880470948004737
:1001A000FEE7FEE7FEE7FEE7FEE7FEE7FEE7FEE727
:1001B000FEE7FEE704480549054A064B7047000084
:1001C000AD0E0008ED00000850010020500700208F
:1001D0005003002050030020704700000FB4044972
:1001E00010B503AA029800F09DF910BC5DF814FB4D
:1001F0001C00002070B50C460546012A05D0287861
:10020000800600D5EA69002302E0012305E05B1CBB
:10021000934202D2E05C0028F9D1A869E618C01A1E
:10022000A861286A184428622846AFF3008004E0D9
:10023000D5E9012114F8010B9047B442F8D32846C0
:10024000AFF3008070BD00002DE9F04106460024A8
:1002500010687529314616A510D0AFF3008000282C
:1002600002DA404213A507E031688A0701D512A5DA
:1002700002E0490704D511A5012401E0AFF3008095
:1002800000210A2206F1240709E0B0FBF2FCB0FBD2
:10029000F2F302FB1C00303078541846491C002849
:1002A000F3D123462A463046BDE8F04100F0CAB8F3
:1002B000000000002D0000002B00000020000000C6
:1002C0002DE9F05F894604464FF0000ADFF824B1BB
:1002D000FB44C0F820A02046E168884700287DD074
:1002E000252806D0D4E901219047206A401C2062CD
:1002F000F1E700255F462046E1688847202806464A
:1003000007DB312E05D2B81910F8200C08B10543CF
:10031000F1E7A80701D525F00405C4F81CA00027C3
:10032000C4F818A02A2E09D0304600F0FDFF38B3DB
:1003300004EB8708303EC8F8186019E059F8041B30
:10034000204604EB87029161E1688847012F064649
:1003500018D1E069002820DA25F020051DE0D8F842
:10036000180000EB800006EB40003038C8F8180099
:100370002046E1688847064600F0D6FF0028EED107
:10038000012F0AD02E2E08D12046E16888477F1C15
:100390000646022F45F02005C4DBA069002803DAD9
:1003A000404245F00105A061E80701D025F01005A5
:1003B000A6B1A6F14100192802D8203645F40065FF
:1003C0004A463146204625604D46FFF7C9FE60B1DA
:1003D000012807D0ED1D25F0070000E007E000F13F
:1003E000080978E705F1040975E730467AE7206ADD
:1003F000BDE8F09FC81700004FF000020429C0F0CC
:10040000128010F0030C00F0A180CCF1040CBCF1C0
:10041000020F18BF00F8012BA8BF20F8022BA1EB98
:100420000C0100F093B85FEAC17C24BF00F8012BF7
:1004300000F8012B48BF00F8012B70477047704748
:10044000704770472DE9F0470D469946924604469D
:1004500000F124080168880604D5E06921F0100144
:10046000216000E00120A84201DD471B00E00027D9
:10047000A1697A1902EB0900081AA0612078C00668
:1004800002D42046AFF30080002608E0D4E9012121
:100490001AF806009047206A401C761C20624E45E0
:1004A000F4DB2078C0060AD52046AFF3008006E0D2
:1004B000D4E9012130209047206A401C2062381E78
:1004C000A7F10107F4DC07E0D4E9012118F80500E1
:1004D0009047206A401C2062281EA5F10105F3DC2C
:1004E0002046AFF300802078000602D50220BDE848
:1004F000F0870120FBE710B5436913B1AFF300802B
:1005000001E0FFF777FE012010BD127800F1240111
:100510000A7000224A700122EDE711684FF0FF32A5
:10052000E9E70000074B70B50D467B4400F039F851
:100530000446284600F048F810B14FF0FF3070BD77
:10054000204670BD0F0E00004FF0000200B51346AC
:1005500094469646203922BFA0E80C50A0E80C50E3
:10056000B1F12001BFF4F7AF090728BFA0E80C5094
:1005700048BF0CC05DF804EB890028BF40F8042B8D
:1005800008BF704748BF20F8022B11F0804F18BFFA
:1005900000F8012B7047000001694A1C02610878CD
:1005A000704700B58FB0CDE90131002105910549B3
:1005B0007944CDE9031011466846FFF781FE0FB07C
:1005C00000BD0000E5FFFFFF007B00F080007047EA
:1005D00000487047F00000207546FFF7F9FFAE466F
:1005E00005006946534620F00700854618B020B53F
:1005F000FFF7E0FDBDE820404FF000064FF0000798
:100600004FF000084FF0000B21F00701AC46ACE8BA
:10061000C009ACE8C009ACE8C009ACE8C0098D4627
:10062000704710B50446AFF300802046BDE8104087
:10063000FFF7ABBD00BFFEE77047000010B56FF0DD
:10064000040000F01DFC0A4800680A49B0FBF1F004
:10065000094908700846007800EB4001C1EBC01062
:100660004FF6FF7101EAC0000449088010BD000088
:100670000000002000127A00140000201600002064
:100680000146114A12884A434FF0E0235A61002282
:100690009A611A46126942F001021A6100BF4FF0D6
:1006A000E022106900F001021AB100F48032002A41
:1006B000F5D04FF0E022126922F001024FF0E02362
:1006C0001A6100229A617047160000202DE9F0415E
:1006D000024600250026002000230024002791F870
:1006E00003C00CF00F0591F803C00CF0100CBCF126
:1006F000000F03D091F802C04CEA050591F800C044
:10070000BCF1000F31D0146800202BE04FF0010C39
:100710000CFA00F3B1F800C00CEA03069E4220D1A7
:1007200083004FF00F0C0CFA03F7BC4305FA03FCEF
:100730004CEA040491F803C0BCF1280F06D14FF035
:10074000010C0CFA00FCC2F814C00AE091F803C0D6
:10075000BCF1480F05D14FF0010C0CFA00FCC2F8B7
:1007600010C0401C0828D1D31460B1F800C0BCF1FF
:10077000FF0F34DD546800202EE000F1080C4FF02C
:10078000010808FA0CF3B1F800C00CEA03069E4217
:1007900021D183004FF00F0C0CFA03F7BC4305FA8C
:1007A00003FC4CEA040491F803C0BCF1280F05D106
:1007B00000F1080C08FA0CF8C2F8148091F803C094
:1007C000BCF1480F07D100F1080C4FF0010808FAFE
:1007D0000CF8C2F81080401C0828CED35460BDE845
:1007E000F0810246002093680B400BB1012000E02D
:1007F0000020704741617047016170470AB1016193
:1008000000E04161704700002DE9F04102213B48C2
:10081000FFF7E7FF08B9012000E0002004460121AE
:100820003648FFF7DEFF08B9012000E0002005464A
:1008300004213248FFF7D5FF08B9012000E000206D
:10084000064608212D48FFF7CCFF08B9012000E03B
:10085000002007462A4806702A4807702A48047074
:100860002A4805702648007810B92848007810B347
:100870002348007830B12548007818B10320244976
:10088000087039E01E48007850B11E48007818B151
:1008900002201F4908702FE001201D4908702BE03D
:1008A0001948007818B104201949087024E005207F
:1008B0001749087020E01348007830B112480078DA
:1008C00018B103201249087016E00E48007830B1C4
:1008D0000D48007818B902200D4908700CE009484D
:1008E000007830B90848007818B104200849087029
:1008F00002E0002006490870BDE8F08100080140D0
:1009000021000020220000202300002024000020DD
:100910002000002000BFFEE700BFFEE708B5012170
:1009200040F60D0000F026FA47214FF4FA6000F07F
:10093000EDFA4FF47040ADF8000010208DF8030080
:1009400003208DF8020069460D48FFF7BFFE4FF403
:1009500070410B48FFF74EFF4FF48050ADF8000098
:1009600010208DF8030003208DF802006946054829
:10097000FFF7ACFE4FF480510248FFF73DFF08BD82
:10098000000C01400008014070B505460C46264A9F
:100990005142284600F0E0FC0546244A51422046D8
:1009A00000F0DAFC0446002D0EDB4FF40041204835
:1009B000FFF722FF4FF480411D48FFF71BFFA9B24C
:1009C0001C4800F0C8FB0EE04FF400411848FFF748
:1009D00011FF4FF480411648FFF70EFF684281B2C5
:1009E000144800F0B8FB002C0EDB4FF40051104807
:1009F000FFF700FF4FF480510D48FFF7FDFEA1B255
:100A00000C4800F0AAFB0EE04FF400510848FFF735
:100A1000F3FE4FF480510648FFF7ECFE604281B2CE
:100A2000044800F09AFB70BD30F8FFFF60F0FFFF54
:100A3000000C0140002C0140704770B500240EE00E
:100A40000021204600F0F3F8002504E0002000F02B
:100A50007FF9681CC5B2802DF8DB601CC4B2082C7D
:100A6000EEDB70BD08B50121082000F083F90121FB
:100A7000082000F07FF914208DF8030003208DF882
:100A800002004FF48070ADF8000069460A48FFF795
:100A90001DFE4FF40070ADF8000069460648FFF7F0
:100AA00015FE012211020448FFF7A8FE012251029F
:100AB0000148FFF7A3FE08BD000C014070B50546D4
:100AC000002415E08020204100EA05024FF4007167
:100AD0000E48FFF793FE012211020C48FFF78EFE2D
:100AE00000224FF480710948FFF788FE601CC4B2F1
:100AF000082CE7DB012211020448FFF77FFE0022E9
:100B00004FF480710148FFF779FE70BD000C014081
:100B100010B5012251020A48FFF770FE01221102AE
:100B20000748FFF76BFE00224FF400710448FFF7FF
:100B300065FE00224FF480710148FFF75FFE10BD93
:100B4000000C014010B500224FF400710648FFF779
:100B500055FE012211020448FFF750FE0122510206
:100B60000148FFF74BFE10BD000C014070B500249A
:100B700006E0002500E06D1CB5F57A7FFBD3641C10
:100B8000B4F57A7FF5D3FFF76DFFAE2000F0D0F813
:100B9000D52000F0CDF8802000F0CAF8A82000F0A1
:100BA000C7F83F2000F0C4F8D32000F0C1F80020BF
:100BB00000F0BEF8402000F0BBF8A12000F0B8F82B
:100BC000C82000F0B5F8DA2000F0B2F8122000F0EA
:100BD000AFF8812000F0ACF8CF2000F0A9F8D920C0
:100BE00000F0A6F8F12000F0A3F8DB2000F0A0F858
:100BF000302000F09DF8A42000F09AF8A62000F024
:100C000097F88D2000F094F8142000F091F8AF20B0
:100C100000F08EF8FFF711FF70BD10B502460120FD
:100C200000E050430B1EA1F10101FAD110BD70B5D7
:100C300005460C4645F0B00000F07AF8102141EA74
:100C4000141000F075F804F00F0000F071F870BD9A
:100C50002DE9F04105460E461746721ED206110ECA
:100C60006A1E5206100EFFF7E2FF002409E0A7F10A
:100C70002001134A02EB0111085D00F069F8601CC5
:100C8000C4B2082CF3DB721ED206110E6A1E0123B9
:100C900003EB4202D0B2FFF7CAFF00240BE0A7F13A
:100CA0002001074A02EB011204F10801505C00F038
:100CB0004FF8601CC4B2082CF1DBBDE8F0810000E5
:100CC000AC1400082DE9F04780460E4617461D4635
:100CD000002415E0281B411E0A20FFF79EFFB7FBEA
:100CE000F0F00A21B0FBF1F201FB120000F1300933
:100CF0003019C1B24A464046FFF7AAFF601CC4B291
:100D0000AC42E7DBBDE8F0872DE9F04107460E462F
:100D10001546002407E02A5D3019C1B23846FFF7B6
:100D200097FF601CC4B2285D0028F4D1BDE8F081B3
:100D300010B50446FFF7ECFE7820FFF7BFFE002059
:100D4000FFF7BCFE2046FFF7B9FEFFF7FBFE10BD24
:100D500010B50446FFF7DCFE7820FFF7AFFE402019
:100D6000FFF7ACFE2046FFF7A9FEFFF7EBFE10BD34
:100D70007047000029B1064A92690243044B9A6108
:100D800004E0034A92698243014B9A617047000074
:100D900000100240704710B500F002F810BD0000CE
:100DA0000CB50020019000903348006840F480307A
:100DB0003149086000BF3048006800F400300090FE
:100DC0000198401C0190009818B90198B0F5A06FE7
:100DD000F1D12948006800F4003010B101200090E2
:100DE00001E0002000900098012843D123480068CA
:100DF00040F01000214908600846006820F0030018
:100E000008600846006840F0020008601A48406820
:100E1000194948600846406848600846406840F400
:100E2000806048600846406820F47C1048600846AE
:100E3000406840F4E81048600846006840F0807060
:100E4000086000BF0C48006800F000700028F9D06E
:100E50000948406820F00300074948600846406898
:100E600040F00200486000BF0348406800F00C00FA
:100E70000828F9D10CBD00000010024000200240FB
:100E8000042808D14FF0E021096941F004014FF036
:100E9000E022116107E04FF0E021096921F004012F
:100EA0004FF0E022116170477047000010B5134801
:100EB000006840F001001149086008464068104988
:100EC00008400E494860084600680E4908400B4932
:100ED00008600846006820F48020086008464068E2
:100EE00020F4FE0048604FF41F008860FFF753FFB6
:100EF0004FF000600449086010BD0000001002407F
:100F00000000FFF8FFFFF6FE08ED00E030B589B005
:100F100004460D464FF41060ADF8200018208DF8FF
:100F2000230003208DF8220008A91F48FFF7CEFBFD
:100F3000ADF814500020ADF81600ADF81840ADF82B
:100F40001A008DF81C0005A9184800F009F901A83D
:100F500000F0F7F86020ADF804000120ADF80600BD
:100F60000020ADF80C00ADF80A0001A90F4800F010
:100F700047F801A90D4800F099F808210B4800F046
:100F80008BF80821094800F0CFF80121074800F04C
:100F90000FF80121054800F023F80121034800F073
:100FA00013F809B030BD000000080140002C0140DA
:100FB00021B1028842F08002028004E002884FF6EC
:100FC0007F731A400280704721B1028842F001020B
:100FD000028004E002884FF6FE731A4002807047D8
:100FE00031B1B0F8442042F40042A0F8442005E0BA
:100FF000B0F84420C2F30E02A0F84420704700006D
:1010000070B5002400220023058C4FF6FE76354093
:101010000584028C8388048B4FF68F752C40B51E97
:101020002C400D882C43751E2A400D892A434D887B
:101030002A43144DA8420BD0134DA84208D0134D9B
:10104000A84205D0124DA84202D0124DA84213D199
:101050004FF6F7752A404D892A434FF6FB752A4013
:101060008D882A434FF6FF652B404FF6FF552B40E6
:101070008D892B43CD892B4383800483CD8885863E
:10108000028470BD002C014000340140004001404A
:1010900000440140004801400A460021018B4FF600
:1010A000F7731940114301837047000070B50022A7
:1010B00000230024058C4EF6FF7635400584038C12
:1010C0008488828B48F6FF752A404FF6FF452A40F8
:1010D0000D884FF6FF7606EA05252A434DF6FF7583
:1010E0002B400D8906EA05352B434D8806EA053568
:1010F0002B430B4DA84202D00A4DA84208D14BF613
:10110000FF752C408D894FF6FF7606EA85152C4336
:1011100084808283CD88A0F84050038470BD000095
:10112000002C0140003401400A460021818B4FF21F
:10113000FF7319404FF6FF7303EA022319438183BB
:1011400070470021018041808180C18001814181FF
:101150008181C181704781867047A0F84010704737
:10116000002202881D4B98420ED01D4B98420BD096
:10117000B0F1804F08D01B4B984205D01A4B9842D3
:1011800002D01A4B984204D14FF68F731A404B8805
:101190001A43174B984207D0164B984204D04FF68B
:1011A000FF431A40CB881A4302808B8883850B88C3
:1011B00003850A4B98420BD0094B984208D00E4B3E
:1011C000984205D00D4B984202D00D4B984201D168
:1011D0000B7A03860123838270470000002C0140B4
:1011E000003401400004004000080040000C0040B2
:1011F0000010004000140040004001400044014045
:101200000048014070B50025002440F225511A48DD
:1012100000F059F801282ED1174800F07EF8C5B229
:1012200016480078401C1549087008460078401E92
:1012300013490D5440F225510F4800F035F8212D87
:1012400019D10E4801780FA0FEF7C8FF00BF07E0D4
:101250000B48025D21460EA0FEF7C0FF601C84B261
:10126000064800788442F3DBC8210548FFF7C4F83C
:1012700000200249087070BD003801401A000020AB
:101280002800002052584C656E3D25640D0A000070
:1012900052584461745F5061636B5B25645D203D0F
:1012A0002025630D0A00000010B50022002340F63F
:1012B0006A14A14200D100BF0A1201249440A3B2D3
:1012C000DC43048010BD70B50246002400230025D5
:1012D000002040F66A16B14200D100BFC1F34215AA
:1012E00001F01F03012606FA03F3012D02D19689AE
:1012F000334006E0022D02D1168A334001E0968A7F
:1013000033400C12012606FA04F41688344013B157
:101310000CB1012000E0002070BD01468888C0F3B8
:101320000800704700BFFEE730380A2801D20120CC
:1013300070470020704700BF7047000000BF054A9B
:10134000128802F04002002AF9D0C2B2014B1B1DE4
:101350001A80704700380140884200DB08469042FE
:1013600000DC10467047000008B5FFF79FFD012123
:101370000420FFF7FFFC01210820FFF7FBFC0F20F2
:10138000ADF8000048208DF8030003208DF802001E
:1013900069463C48FFF79AF9FFF750F9FFF7E6FB7B
:1013A000FFF7BCFA00210846FFF7EEFA69E0FFF705
:1013B0002BFA35480078062827D2DFE800F027030B
:1013C0000A11181F4FF47A714FF41670FFF7DCFA08
:1013D00021E04FF47A714FF44870FFF7D5FA1AE024
:1013E0004FF47A714FF44870FFF7CEFA13E04FF4E0
:1013F00048714FF47A70FFF7C7FA0CE04FF416719A
:101400004FF47A70FFF7C0FA05E000BF00210846EC
:10141000FFF7BAFA00BF00BFFFF70FFB1BA20121C5
:101420000846FFF771FC0123194802780521184688
:10143000FFF748FC17A209210120FFF765FC0123F3
:10144000154802780D211846FFF73CFC13A2012134
:101450000220FFF759FC01231148027805210220E0
:10146000FFF730FC0FA209210220FFF74DFC0123FA
:101470000D4802780D210220FFF724FC1420FFF70D
:10148000FFF894E700080140200000204C323A00A9
:10149000210000204C313A002200002052313A0055
:1014A0002300002052323A002400002000000000F7
:1014B000000000000000000000000000000000F834
:1014C00000000000000000333000000000100C0697
:1014D000100C0600000000000000000040C0784032
:1014E000C0784000043F04043F040400007088FCFE
:1014F00008300000001820FF211E0000F008F00056
:10150000E018000000211C031E211E0000F00888C6
:10151000700000001E2123241927211010160E0030
:10152000000000000000000000000000000000E0DB
:1015300018040200000000071820400000020418F0
:10154000E00000000040201807000000404080F04C
:10155000804040000202010F01020200000000F082
:10156000000000000101011F010101000000000056
:101570000000000080B070000000000000000000CB
:101580000000000000010101010101010000000054
:1015900000000000003030000000000000000000EB
:1015A00080601804006018060100000000E01008C8
:1015B0000810E000000F102020100F00001010F89D
:1015C000000000000020203F2020000000700808DC
:1015D000088870000030282422213000003008885C
:1015E000884830000018202020110E000000C02084
:1015F00010F8000000070424243F240000F80888A5
:10160000880808000019212020110E0000E0108831
:1016100088180000000F112020110E000038080863
:10162000C83808000000003F000000000070880873
:1016300008887000001C222121221C0000E01008F4
:101640000810E0000000312222110F00000000C04D
:10165000C0000000000000303000000000000080EA
:1016600000000000000080600000000000008040DA
:1016700020100800000102040810200040404040F3
:101680004040400004040404040404000008102046
:10169000408000000020100804020100007048088B
:1016A0000808F0000000003036010000C030C828F3
:1016B000E810E0000718272423140B000000C038AE
:1016C000E0000000203C23020227382008F8888828
:1016D00088700000203F202020110E00C030080834
:1016E00008083800071820202010080008F808080B
:1016F0000810E000203F202020100F0008F8888804
:10170000E8081000203F20202320180008F88888CF
:10171000E8081000203F200003000000C030080847
:101720000838000007182020221E020008F80800D0
:101730000008F808203F210101213F20000808F897
:10174000080800000020203F2020000000000808BA
:10175000F8080800C08080807F00000008F888C07A
:1017600028180800203F20012638200008F808002B
:1017700000000000203F20202020300008F8F80062
:10178000F8F80800203F003F003F200008F830C074
:101790000008F808203F200007183F00E010080864
:1017A0000810E0000F10202020100F0008F8080893
:1017B0000808F000203F210101010000E0100808A6
:1017C0000810E0000F18242438504F0008F88888CB
:1017D00088887000203F2000030C302000708808AB
:1017E000080838000038202121221C00180808F8B9
:1017F000080818000000203F2000000008F808003A
:101800000008F808001F202020201F00087888000A
:1018100000C83808000007380E010000F80800F87A
:101820000008F800033C0700073C03000818688024
:101830008068180820302C03032C30200838C8009A
:10184000C83808000000203F2000000010080808E9
:10185000C83808002038262120201800000000FE8B
:10186000020202000000007F40404000000C30C037
:1018700000000000000000010638C0000002020263
:10188000FE000000004040407F0000000000040215
:101890000202040000000000000000000000000040
:1018A0000000000080808080808080800002020430
:1018B0000000000000000000000000000000808028
:1018C000808000000019242222223F2008F8008096
:1018D00080000000003F112020110E000000008059
:1018E00080800000000E11202020110000000080E8
:1018F0008088F800000E112020103F20000080801A
:1019000080800000001F222222221300008080F02D
:10191000888888180020203F202000000000808058
:1019200080808000006B94949493600008F800809D
:1019300080800000203F210000203F2000809898F8
:10194000000000000020203F202000000000008058
:101950009898000000C08080807F000008F8000098
:1019600080808000203F24022D302000000808F8ED
:10197000000000000020203F2020000080808080A8
:1019800080808000203F20003F20003F808000803A
:1019900080800000203F210000203F200000808048
:1019A00080800000001F202020201F0080800080F9
:1019B0008000000080FFA12020110E0000000080A8
:1019C00080808000000E112020A0FF808080800099
:1019D0008080800020203F212000010000008080C6
:1019E000808080000033242424241900008080E0BB
:1019F000808000000000001F202000008080000088
:101A000000808000001F202020103F208080800068
:101A10000080808000010E30080601008080008078
:101A2000008080800F300C030C300F00008080009D
:101A3000808080000020312E0E31200080808000C8
:101A40000080808080818E70180601000080808078
:101A5000808080000021302C222130000000000016
:101A6000807C020200000000003F404000000000B7
:101A7000FF00000000000000FF0000000002027CE8
:101A8000800000000040403F00000000000601010F
:101A9000020204040000000000000000040000082E
:101AA0000000000000000002000100001000000023
:101AB000D01A0008000000202800000028010008BB
:101AC000F81A000828000020280700004401000838
:101AD00000A24A040000000000000000010203040C
:101AE00006070809000000000000000000000000D8
:081AF0000000000000000000EE
:04000005080000ED02
:00000001FF
