:020000040800F2
:10000000A015002045010008611700082F0A00080C
:10001000A51200082D050008152A000800000000A0
:10002000000000000000000000000000AD1B000800
:100030002F050008000000000D190008151F00081A
:100040005F0100085F0100085F0100085F01000810
:100050005F0100085F0100085F0100085F01000800
:100060005F0100085F0100085F0100085F010008F0
:100070005F0100085F0100085F0100085F010008E0
:100080005F0100085F0100085F0100085F010008D0
:100090005F0100085F0100085F0100085F010008C0
:1000A0005F0100085F0100085F0100085F010008B0
:1000B0005F0100085F0100085F0100085F010008A0
:1000C0005F0100085F0100085F0100085F01000890
:1000D0005F010008A52700085F0100085F01000814
:1000E0005F0100085F0100085F0100085F01000870
:1000F0005F0100085F0100085F0100085F01000860
:100100005F0100085F0100085F0100085F0100084F
:100110005F0100085F0100085F0100085F0100083F
:100120005F0100085F0100085F0100085F0100082F
:10013000DFF80CD000F0BAF900480047D92F0008CA
:10014000A01500200648804706480047FEE7FEE766
:10015000FEE7FEE7FEE7FEE7FEE7FEE7FEE7FEE777
:10016000191F00083101000840EA01039B0703D072
:1001700009E008C9121F08C0042AFAD203E011F8E6
:10018000013B00F8013B521EF9D27047D2B201E0A8
:1001900000F8012B491EFBD270470022F6E710B58C
:1001A00013460A4604461946FFF7F0FF204610BDE5
:1001B000F0B480EA0102D40F4200B2EB410F02D248
:1001C0000246084611464A0042D0C30DDDB2C1F3D3
:1001D000C752AD1A202D35DAC1F3160141F40002E1
:1001E00004B15242C5F1200602FA06F12A41104438
:1001F000B3EBD05F23D0C4B1012DA0EBC35009DC19
:10020000F0BC4FF0004202EAC352DBB200F500003E
:1002100000F01DB9400000F1807000EBC350A0F168
:10022000807040EAD170490009E0490841EAC07194
:10023000A0EBC35000F50000400800EBC350F0BC39
:1002400000F0FCB86142012202EB4101001BF6E71D
:10025000F0BC704781F00041AAE780F00040A7E7BA
:1002600080EA010210B502F00043400022D04A00AB
:100270001FD0010E01EB1261C0F35600C2F356020B
:1002800040F4000042F40002A0FB022000047F3989
:10029000140400D0401C50EA124001D44000491E12
:1002A000C2B20C0604EBD010401C4008802A02D0D9
:1002B00003E0002010BD20F00100002900DA00203A
:1002C000184310BD30B480EA010202F0004530F05E
:1002D000004221F0004013D090B1C30DD40DC2F301
:1002E0001601C0F31600E41A41F4000140F40002C4
:1002F0007D34914201D3641C00E04900002C02DAF5
:1003000030BC002070474FF400000023914201D31D
:10031000891A034340084FEA4101F7D151B1914294
:1003200002D14FF0004105E002D24FF0010101E09F
:100330006FF0010103EBC450284430BC00F07EB8DC
:10034000420005D0C0F3C7525242914201DC002066
:10035000704700EBC1507047C10F80EAE07008445D
:10036000CA079623002100F072B800F0004220F086
:100370000040C10DC0F3160040F400007F2901DAEF
:1003800000207047962903DCC1F19601C84001E0C6
:1003900096398840002AF4D0404270472DE9F05F3A
:1003A0000546002092469B468846064681464024E4
:1003B0001BE0284641464746224600F02FF85346A8
:1003C0005A46C01A914110D311461846224600F0F1
:1003D00016F82D1A67EB01084F462246012000212E
:1003E00000F00DF817EB00094E41201EA4F10104A6
:1003F000DFDC484631462A464346BDE8F09F202AC6
:1004000004DB203A00FA02F1002070479140C2F16B
:10041000200320FA03F3194390407047202A04DB9D
:10042000203A21FA02F00021704721FA02F3D0406D
:10043000C2F1200291400843194670470029A8BF25
:100440007047401C490008BF20F00100704710B4FD
:10045000B0FA80FC00FA0CF050EA010404BF10BCB2
:10046000704749B1CCF1200421FA04F411FA0CF1DF
:1004700018BF012121430843A3EB0C01CB1D4FEA18
:1004800000614FEA102042BF002010BC704700EB13
:10049000C35010440029A4BF10BC7047401C490041
:1004A00008BF20F0010010BC70470000064C074D4B
:1004B00006E0E06840F0010394E807009847103434
:1004C000AC42F6D3FFF738FED4650008F4650008A7
:1004D00010B501F021FD4FF4A06001F075F902F0B4
:1004E000F5FC02F05FFD00F0CBFA4FF4E13002F0D2
:1004F0007FF900F06BFB00F097FD00214FF4616085
:1005000001F02EF801F0C0F900F01EF801F0CAFB6E
:1005100002F0A8FD0121084601F016FABDE81040DE
:100520000121014800F04ABA00023000FEE770479E
:1005300004490A6802604A6842608A688260C96841
:10054000C16070473000002010B500F009F800F0DD
:10055000D3F800F033F9BDE8104000F06BB80000AC
:1005600010B588B00121084601F0EEF901212E48AE
:1005700000F024FA0121084601F0CAF90121042003
:1005800001F0E2F94FF40040ADF8040004248DF8C6
:10059000074001A9254800F0BDF90121082001F01C
:1005A000D3F90820ADF804008DF8074001A92048D0
:1005B00000F0B0F905A802F0EBF80020ADF8140047
:1005C0004FF6FF71ADF81810ADF81A00ADF816002F
:1005D000240705A9204602F08DF800231A460321BE
:1005E000204601F0D9FE02A801F036FF0A21ADF83D
:1005F000101002A9204601F0E9FE0121204601F079
:10060000A5FD01221146204601F02EFF00212046C3
:1006100002F045F847F6FF71A1840121204601F060
:1006200098FD08B010BD000000011800000801404E
:10063000000C014030B587B00121022001F068F9BB
:100640000121042001F080F98020ADF8000004248D
:100650008DF80340264D6946284600F05BF90121DC
:10066000042001F071F94021ADF800108DF803402D
:100670006946284600F04EF904A802F089F80020E7
:10068000ADF810004FF6FF71ADF81410ADF816007C
:10069000ADF81200174C04A9204602F02BF80023F5
:1006A0001A460321204601F077FE01A801F0D4FE8E
:1006B0000A21ADF80C1001A9204601F087FE0121A6
:1006C000204601F043FD01221146204601F0CCFEF8
:1006D0000021204601F0E3FF064A47F6FF7124326D
:1006E00011800121204601F034FD07B030BD00002B
:1006F000000801400004004030B587B0012104200B
:1007000001F006F90121082001F01EF98020ADF862
:10071000000004248DF80340264D6946284600F069
:10072000F9F80121082001F00FF94021ADF800107F
:100730008DF803406946284600F0ECF804A802F062
:1007400027F80020ADF810004FF6FF71ADF8141037
:10075000ADF81600ADF81200174C04A9204601F0C0
:10076000C9FF00231A460321204601F015FE01A807
:1007700001F072FE0A21ADF80C1001A9204601F02B
:1007800025FE0121204601F0E1FC01221146204610
:1007900001F06AFE0021204601F081FF064A47F67B
:1007A000FF71243211800121204601F0D2FC07B0F4
:1007B00030BD0000000C01400008004030B587B09B
:1007C0000121082001F0A4F80121042001F0BCF867
:1007D0000120ADF8000004248DF80340264D694641
:1007E000284600F097F80121042001F0ADF802211D
:1007F000ADF800108DF803406946284600F08AF8ED
:1008000004A801F0C5FF0020ADF810004FF6FF71FD
:10081000ADF81410ADF81600ADF81200174C04A98D
:10082000204601F067FF00231A460321204601F00D
:10083000B3FD01A801F010FE0A21ADF80C1001A9CA
:10084000204601F0C3FD0121204601F07FFC01227A
:100850001146204601F008FE0021204601F01FFF4E
:10086000064A47F6FF71243211800121204601F02B
:1008700070FC07B030BD000000080140000C0040D3
:100880000146002047F6FF7200290BD0012910D045
:10089000022914D0032904D10C490888101A00B287
:1008A0000A8070474FF08041888C101A00B28A8409
:1008B000704707490888101A00B20A807047054936
:1008C0000888101A00B20A80704700002404004013
:1008D00024080040240C004010B50020FFF7D0FF92
:1008E0000B4C2168081A20600120FFF7C9FF6168DE
:1008F000084460600220FFF7C3FFA1680844A060BD
:100900000320FFF7BDFFE168081AE06010BD00009A
:10091000300000202DE9F0410022CC7804F00F03D4
:10092000E40601D58C7823430C784FF00F0714F0C0
:10093000FF0F4FF0010C1CD005680CFA02F40E8872
:100940002640A64211D1960007FA06F825EA0805C6
:1009500003FA06F848EA0505CE78282E02D0482E7C
:1009600002D002E0446100E00461521C082AE4D392
:1009700005600A88FF2A1ED94568002202F1080690
:100980000CFA06F40E882640A64210D1960007FA0B
:1009900006F825EA080503FA06F848EA0505CE78C0
:1009A000282E00D14461CE78482E00D10461521C1B
:1009B000082AE3D34560BDE8F0810000F0B5154C8E
:1009C000002801DAE36900E06368C0F30346420DE2
:1009D000120185B2C0F301579540032F07D0C20220
:1009E0000CD50322B240934343F0706209E023F038
:1009F0007062636823F07063636002E0AB4343F0AE
:100A0000706201B12A43002801DAE261F0BD626040
:100A1000F0BD0000000001400246002092680A423A
:100A200000D0012070474161704701617047FEE7C7
:100A300010B5044600F018F80A4A012807D0002033
:100A4000508010805088022809D0002010BD5188A5
:100A5000641CB1EB440FF5D2491C5180F2E7012030
:100A6000108010BD4200002010B520210348FFF780
:100A7000D3FF08B1002010BD012010BD000C0140C3
:100A800008B50121082000F05FFF2020ADF800002C
:100A900048208DF8030069460148FFF73BFF08BD79
:100AA000000C01402DE9F04105460F4614461E4654
:100AB0002A2000F073FA6D1CA8B200F062FA641CE0
:100AC000A0B200F05EFA2B2000F068FA1A37B8B234
:100AD00000F057FA1A36B0B200F053FABDE8F04110
:100AE0002C2000F05BBA10B514460B460246FFF707
:100AF000D9FF2046BDE8104000F043BA2DE9F04789
:100B00008046DDF820900D4616461F46781E83B2BB
:100B1000701E82B229464046FFF7C4FF0AE04446F1
:100B200004E0484600F02DFA641CA4B2B442F8D3A5
:100B30006D1CADB2BD42F2D3BDE8F087F8B501211E
:100B4000082000F001FF4FF44076ADF8006010245B
:100B50008DF8034003258DF80250194F6946384639
:100B6000FFF7D8FE31463846FFF75FFF012110201E
:100B700000F0EAFE4FF4E056ADF800608DF8034057
:100B80008DF802500F4F69463846FFF7C3FE3146D5
:100B90003846FFF74AFF0121202000F0D5FE04204F
:100BA000ADF800008DF803408DF80250064C694600
:100BB0002046FFF7AFFE04212046FFF736FFF8BDC1
:100BC000000C0140001001400014014038B5FFF74F
:100BD000B5FF964D4FF4006421462846FFF723FFEA
:100BE000642002F091F921462846FFF71EFF642099
:100BF00002F08AF961102846FFF715FF642002F021
:100C000083F9112000F0CAF9782002F07DF9B120B3
:100C100000F0C4F9052000F0BEF93C2000F0BBF95B
:100C20003C2000F0B8F9B22000F0B8F9052000F03F
:100C3000B2F93C2000F0AFF93C2000F0ACF9B32051
:100C400000F0ACF9052000F0A6F93C2000F0A3F973
:100C50003C2000F0A0F9052000F09DF93C2000F0B8
:100C60009AF93C2000F097F9B42000F097F903209E
:100C700000F091F9C02000F091F9AB2000F08BF961
:100C80000B2000F088F9042000F085F9C12000F065
:100C900085F9C52000F07FF9C22000F07FF90D2012
:100CA00000F079F9002000F076F9C32000F076F921
:100CB0008D2000F070F96A2000F06DF9C42000F07A
:100CC0006DF98D2000F067F9EE2000F064F9C52081
:100CD00000F064F90F2000F05EF9E02000F05EF90A
:100CE000072000F058F90E2000F055F9082000F018
:100CF00052F9072000F04FF9102000F04CF90720BE
:100D000000F049F9022000F046F9072000F043F90D
:100D1000092000F040F90F2000F03DF9252000F0F7
:100D20003AF9362000F037F9002000F034F90820B5
:100D300000F031F9042000F02EF9102000F02BF91A
:100D4000E12000F02BF90A2000F025F90D2000F039
:100D500022F9082000F01FF9072000F01CF90F20ED
:100D600000F019F9072000F016F9022000F013F93D
:100D7000072000F010F9092000F00DF90F2000F015
:100D80000AF9252000F007F9352000F004F90020C9
:100D900000F001F9092000F0FEF8042000F0FBF853
:100DA000102000F0F8F8FC2000F0F8F8802000F0A7
:100DB000F2F83A2000F0F2F8052000F0ECF83620C6
:100DC00000F0ECF8782000F0E6F8212000F0E6F8DA
:100DD000292000F0E3F82A2000F0E0F8002000F0DD
:100DE000DAF81A2000F0D7F8002000F0D4F86920D3
:100DF00000F0D1F82B2000F0D1F8002000F0CBF863
:100E0000012000F0C8F8002000F0C5F8A02000F094
:100E1000C2F82C2000F0C2F84FF6FF7000210090BD
:100E20005023A0220846FFF769FE38BD001001409C
:100E30002DE9FF4F83B00746DDF844904FF00008DE
:100E400001974FEA590A5FEA4A7001D0012000E099
:100E5000002000EBDA0000FB09F00290203A02F0DB
:100E6000FF0B049804994844401E83B207EB0A0024
:100E7000401E82B23846FFF715FE002554E0B9F156
:100E80000C0F24D0B9F1100F28D0B9F1180F2AD0C7
:100E9000B9F1200F4BD1294800EB8B10465D00249F
:100EA000129838B30120A040304204D03846069A48
:100EB0000499FFF718FE7F1CBFB20198381A5045FD
:100EC0002CD1019F0498401C80B204902AE01C4958
:100ED0000BEB4B0001EB8000465DE0E7194800EBAF
:100EE0000B10465DDBE718490BEB4B0001EB0010E4
:100EF000465DD4E70120A040304203D0069800F0C0
:100F000040F802E0109800F03CF808F1010808F001
:100F1000FF08B8FBFAF00AFB108058B1641CE4B279
:100F2000082CBDD36D1CADB202988542A7D307B083
:100F3000BDE8F08F4FF00008F4E700002C4D0008EA
:100F4000F83000086C3500085C3B00082DE9FE4FC6
:100F50000546DDE90D68894614469A460C9F0BE06C
:100F6000CDE901685346494628460097FFF760FFE0
:100F700005EB560085B2641C2278002AF0D1BDE84A
:100F8000FE8F10B50446200A00F01CF8E0B2BDE860
:100F9000104000F017B800F015B8000070B5064614
:100FA000074D4FF4805421462846FFF73CFD30465C
:100FB00000F008F821462846BDE87040FFF735BD2F
:100FC000001001402DE9F0470546DFF85480042168
:100FD0004046FFF728FD0024124F4FF400794FF4EC
:100FE000807631463846FFF71EFD280604D549466F
:100FF0003846FFF71AFD03E049463846FFF713FD70
:1010000031463846FFF711FD6806050E641CE4B250
:10101000082CE6D34046BDE8F0470421FFF705BDA4
:1010200000140140000C01402DE9F04399B060220A
:1010300013496846FFF798F800246F464FF00308FD
:101040004FF0180904EB440507EB85060121B06851
:1010500000F07AFCB088ADF860008DF862808DF801
:10106000639057F8250018A9FFF754FC641C082C5E
:10107000E8DB04490F20087019B0BDE8F0830000D8
:1010800074650008400000202DE9F04707460D4632
:10109000164600F009F982466842FFF75DF94B4CAD
:1010A000804660603846FFF757F98146A06070427D
:1010B000FFF752F94649FFF705F95146FFF7D0F817
:1010C0008246E0602F43374356D041464846FFF7FB
:1010D0006FF805465146FFF76BF8FFF746F92061B8
:1010E00041464846FFF7B6F806465146FFF760F816
:1010F000FFF73BF9606130465146FFF7ABF8FFF769
:1011000034F9A06128465146FFF7A4F8FFF72DF9FE
:10111000E06100F0CDF8022833D021694FF47A70F5
:10112000814200DD20612B4922698A4200DA216177
:101130006269824200DD606162698A4200DA61614F
:10114000A269824200DDA061A2698A4200DAA1613F
:10115000E269824200DDE061E069884200DAE16133
:10116000A08B03B2208B02B2A08A01B2208ABDE814
:10117000F04700B200F0A8B9BDE8F047012000F048
:10118000CDB920694FF42F71884200DD21611248EA
:101190002269824200DA206162698A4200DD61616F
:1011A0006269824200DA6061A2698A4200DDA1615F
:1011B000A269824200DAA061E2698A4200DDE1614F
:1011C000E1698142CCDAE061CAE7000080000020DA
:1011D00000007A4418FCFFFF44FDFFFF2DE9F041B9
:1011E00006460C469046404600F08CF92C4F3C8059
:1011F000614220B20DB2082E4FD2DFE806F0040E95
:10120000151D252D3A49002038800CB1012000E041
:101210000020BDE8F04100F081B94346BDE8F0414F
:1012200000221146FFF730BF43462846BDE8F04193
:1012300000221146FFF728BF4346BDE8F0410022D7
:1012400001461046FFF720BF43462946BDE8F0415E
:1012500000221046FFF718BF002000F053F904EBFE
:101260008400BDE8F041002302B219461846FFF79A
:101270000BBF002000F046F904EB8400C0EB0440F3
:10128000BDE8F041002302B219461846FFF7FCBE44
:10129000BDE8F041012000F041B9BDE8F081000057
:1012A00080000020FEE7000000487047148E2443B1
:1012B00001488078704700007600002000487047A1
:1012C000F8334C43074881780748012906D00229A2
:1012D00005D0042902D0052900D1044870470448EC
:1012E00070470000760000200000A5440000514433
:1012F00000001A4570B50B48FFF71AF90020094B9A
:1013000003F1100202F1100453F8201052F820509B
:101310004D1B44F8205042F82010401CC0B2042855
:10132000F2D370BD441100202DE9FF47054600248B
:1013300000200090019002900390FFF7BFFF8046CD
:10134000FFF7C0FF8146FFF7AFFF8246FFF7D2FFEE
:101350002F4F6E46642157F824004843FEF7FCFFE8
:101360004146FEF77DFF4946FEF7ACFF46F82400F4
:10137000641C042CEEDBDDE90001FEF719FF0446D6
:101380000299FEF715FF0399FEF712FF6FF00101B6
:10139000FEF7D6FFFEF7E9FF2880DDE90001FEF742
:1013A00059FF0299FEF756FF0399FEF701FF194F07
:1013B0003946FEF755FFFEF7D8FF688020460299B0
:1013C000FEF748FF0399FEF745FF3946FEF748FF51
:1013D0005146FEF777FF1049FEF742FFFEF7C5FFC3
:1013E000A8800E480078002810D00020084910314D
:1013F00056F8202041F82020401C0428F8DB04B0D7
:101400000348BDE8F047103000F0E8B9BDE8FF87B9
:1014100064110020000080BE00007A4476000020A5
:101420002DE9F0411048FFF77FFF0F48001F0078BB
:10143000002817D00D4CE069FEF797FF05B2A069B0
:10144000FEF793FF06B26069FEF78FFF07B22069CF
:10145000FEF78BFF2B4632463946BDE8F04100B21D
:1014600000F006B8BDE8F0817A0000207411002079
:101470002DE9F04184460F4616461C460CF5616086
:101480004FF4E155A84203D86146002000F0E4F88B
:1014900007F56161A94203D83946012000F0DCF864
:1014A00006F56161A94203D83146022000F0D4F864
:1014B00004F56160A84205D82146BDE8F04103204B
:1014C00000F0CAB8BDE8F08170B50C4D01242C7055
:1014D0000B4D28846984AA84EB84002405EB440026
:1014E000B0F92000FEF738FF0146204600F0F8F979
:1014F000641CE4B2042CF1D370BD0000760000201F
:10150000741100200449002802D00120487070475F
:1015100000204870704700007600002010B5044697
:1015200000231A4619461846FFF7CEFF0449002249
:101530000A704A702046BDE8104000F0DDB8000097
:1015400076000020002803DD00F5C86000B2704777
:1015500003DAA0F5C86000B270474FF00000704792
:10156000F0B587B004460D4601214FF4205000F03D
:10157000EBF90121084600F0E7F901213348FFF7B4
:101580001DFA334E304600F0FFFD324F384600F072
:10159000FBFDADF80050641EADF804400024ADF82A
:1015A0000640ADF802406946304601F0A3F86946AE
:1015B000384601F09FF803A801F05EF86025ADF809
:1015C0000C500120ADF80E00ADF81440ADF81240FB
:1015D00003A9304600F052FF03A9304600F092FF05
:1015E00003A9304600F0D2FF03A9304601F010F8FD
:1015F00003A9384600F042FF03A9384601F008F875
:10160000ADF80C50ADF80E400420ADF81000ADF868
:101610001440ADF8124003A9384600F073FF03A947
:10162000384600F0B3FF0121304600F09EFD012155
:10163000384600F09AFD0121304600F08AFD012174
:10164000384600F086FD07B0F0BD000040001600EF
:1016500000340140002C014010B504460846FFF755
:1016600071FF4FF46161884200DB08461F498842E0
:1016700000DC0846002164B1012C17D0022C23D0D5
:10168000032C05D11A4B1A1D00282ADB1880118063
:1016900010BD404200B2174B1A1D002802DB188013
:1016A000118010BD19804042108010BD404200B230
:1016B000104B08331A1D002802DB1880118010BD62
:1016C00019804042108010BD094B094A0833121F8F
:1016D000002802DB1880118010BD19804042108064
:1016E00010BD19804042108010BD0000F0F1FFFFD6
:1016F000382C01403434014070B5002800D001205E
:10170000C0EB4011C1EB00214FF6FF7000EA01145D
:10171000114D2146284600F0B9FF2146284600F029
:10172000B7FF2146284600F0B5FF2146284600F0C5
:10173000B3FF0A4D2146284600F0A8FF214628465F
:1017400000F0A6FF2146284600F0A4FF21462846C7
:10175000BDE8704000F0A0BF00340140002C014003
:101760007047000070B50F23C27801260178002A67
:101770001ED0144A126802F4E062C2F5E062120A56
:10178000C2F10404D3404578A54082781A402A4328
:10179000120101F1E02181F80024007800F01F011E
:1017A0008E404009800000F1E020C0F8006170BD6B
:1017B00001F01F0086404809800000F1E020C0F8D9
:1017C000806170BD0CED00E00249084302490860E9
:1017D000704700000000FA050CED00E070B505460A
:1017E0000024084E04EB840055F8241006EBC000DA
:1017F00000F00AF805EB84010861641C042CF1DB9D
:1018000070BD0000A41000202DE9F04104462068BE
:10181000FEF720FD0546A061266A01213046FEF74D
:101820008FFD2946FEF719FDE169FEF7C1FC6169EC
:10183000FEF716FD074629462069FEF711FD804692
:1018400031462846FEF706FDE168FEF709FD4146F0
:10185000FEF7AEFC3946FEF7ABFCA168FEF7A8FC2C
:10186000A060E66125620649884200DDA160054866
:10187000A168814200D9A060A068BDE8F0810000A5
:101880000000FA440000FAC470B500210E4B0F4C62
:101890000F4D00224FF07C5601EB810043F83020C1
:1018A00003EBC00082608261C26102624262C46076
:1018B00005614661491C0429EEDB07480549416082
:1018C00082600649C16070BDA4100020CDCC4C3FA1
:1018D0008FC2753DCDCCCC3E48000020CDCCCC3D58
:1018E000094A04280AD80AD14FF0000000EB80030F
:1018F00042F8331000F101000428F7DB704700EBD9
:10190000800042F830107047A4100020704700009B
:10191000054A002903D0D1690143D1617047D169DB
:101920008143D1617047000000100240054A002940
:1019300003D011690143116170471169814311613D
:101940007047000000100240054A002903D0916949
:101950000143916170479169814391617047000033
:1019600000100240054A002903D0D1680143D1602C
:101970007047D1688143D160704700000010024079
:1019800010B5264A516801F00C01254B002927D0DB
:10199000042927D0082927D00360516801F0F001FD
:1019A0000909204B5C5C0168E1404160546804F423
:1019B000E064240A1C5D21FA04F48460546804F491
:1019C0006054E40A1B5DD940C160526802F4404291
:1019D000920B144B1B1F9A5CB1FBF2F1016110BD1D
:1019E0000360DAE70360D8E7516801F470115368C7
:1019F00003F48033022404EB914133B153689B0319
:101A000007D5094B59430160C7E7074B59430160AC
:101A1000C3E7034B59430160BFE7000000100240D9
:101A200000127A001800002000093D00002904D0AF
:101A3000018841F0400101807047018821F0400198
:101A40000180704770B586B001218D032846FFF7ED
:101A50005FFF01210820FFF777FFAC10ADF80040D1
:101A600003228DF8022010228DF80320234E6946B0
:101A70003046FEF74FFF6200ADF8002018228DF8C7
:101A8000032069463046FEF745FFADF80050694631
:101A90003046FEF73FFFE000ADF8000069463046F3
:101AA000FEF738FF21463046FEF7BFFF0020ADF8B5
:101AB00004004FF48271ADF80610ADF80800022161
:101AC000ADF80A100121ADF80C104902ADF80E1066
:101AD0000821ADF81010ADF812000720ADF8140081
:101AE000074C01A9204600F018F801212046FFF715
:101AF0009DFFFF2000F02EF806B070BD000C0140E5
:101B0000003800400246002012890A4200D001201D
:101B10007047808970478181704730B5028802F430
:101B200041530A884C88CD8822438C882C43224319
:101B30000C8922434C8922438C892243CC8922433D
:101B40001A430280828B22F400628283098A018216
:101B500030BD000070B505460024134E05E0641C3E
:101B6000E4B2C82C01D9002070BD02213046FFF735
:101B7000C9FF0028F3D0294635462846FFF7CBFF9A
:101B8000002405E0641CE4B2C82C01D9002070BD1B
:101B900001212846FFF7B6FF0028F3D02846FFF7BB
:101BA000B8FFC0B270BD000000380040704700F0C0
:101BB00001B800000CB5002201920092274801688C
:101BC00041F4803101604FF4A063016801F40031F9
:101BD00000910199491C0191009911B9019999420B
:101BE000F3D10168890302D50121009100E0009240
:101BF0000099012930D11A490A6842F010020A609E
:101C00000A6822F003020A600A6842F002020A60CF
:101C10004168416041684160416841F480614160D0
:101C2000416821F47C114160416841F4E811416050
:101C3000016841F08071016001688901FCD541684B
:101C400021F003014160416841F0020141604168B7
:101C5000C1F381010229FAD10CBD0000001002403D
:101C60000020024070B5040300F0EEF800F094F894
:101C70000B4D002028602020FFF76CFFC4F30740C5
:101C8000FFF768FFC4F30720FFF764FFE0B2FFF738
:101C900061FF01202860BDE8704000F07DB80000C1
:101CA000B081214238B501210820FFF74DFE4FF4E5
:101CB0008054ADF8004010208DF8030003208DF80B
:101CC0000200084D69462846FEF724FE21462846B4
:101CD000FEF7ABFEFFF7B6FE00F030F802490880D1
:101CE00038BD0000000C01402C0000202DE9F0411F
:101CF00005460C461646104F0020C7F8B0010320D9
:101D0000FFF728FFC4F30740FFF724FFC4F30720C1
:101D1000FFF720FFE0B2FFF71DFF002405E0FF20E2
:101D2000FFF718FF2855641CA4B2B442F7D3012072
:101D3000C7F8B001BDE8F0810080214270B50D4DBB
:101D400000242C609020FFF705FF0020FFF702FF22
:101D50000020FFF7FFFE0020FFF7FCFEFF20FFF74B
:101D6000F9FE44EA0024FF20FFF7F4FE204301219E
:101D7000296070BDB081214210B5064C0020206062
:101D80000520FFF7E7FEFF20FFF7E4FE01212160B9
:101D900010BD0000B081214210B5FFF7EDFFC00774
:101DA000FBD110BD2DE9F05F8046894615464FEA0C
:101DB0001937C9F30B06C6F58054A54200D82C4646
:101DC000DFF880A031E031181AF80110FF2903D1A3
:101DD000401C80B2A042F6D3A04214D23846FFF78E
:101DE00041FF002006E0821918F800100AF80210DE
:101DF000401C80B2A042F6D359464FF4805211489D
:101E000000F02EF804E022464946404600F028F84B
:101E1000A54214D07F1C0026A044A144281B85B2F3
:101E20004FF48054A54200D82C464FEA073B4FF4AC
:101E3000805259460348FFF759FF0020CAE7BDE822
:101E4000F09F0000A400002010B5044C002020608A
:101E50000620FFF77FFE0120206010BDB0812142E7
:101E60002DE9F04107460E461546F0B2C0F58074E4
:101E7000A54200D82C464FF4807807E0274426443A
:101E8000281B85B24446A54200D82C46224631463E
:101E9000384600F005F8A542F0D1BDE8F081000019
:101EA0002DE9F04105460C461646FFF7CDFF114FD0
:101EB0000020C7F8B0010220FFF74CFEC4F3074032
:101EC000FFF748FEC4F30720FFF744FEE0B2FFF738
:101ED00041FE002404E0285DFFF73CFE641CA4B230
:101EE000B442F8D30120C7F8B001BDE8F041FFF7D4
:101EF00053BF0000008021424FF0E021042804D0AD
:101F0000086920F0040008617047086940F0040087
:101F1000086170477047000010B50F48016841F034
:101F20000101016041680D4A1140416001680C4A9D
:101F300011400160016821F480210160416821F4B1
:101F4000FE0141604FF41F018160FFF730FE05493B
:101F50004FF00060086010BD001002400000FFF864
:101F6000FFFFF6FE08ED00E070B5048C24F00104DC
:101F70000484058B048C25F0F3054FF6FF7606EA02
:101F8000031313432B43104A90420ED00F4A904242
:101F90000BD0B0F1804F08D00D4A904205D00D4AC9
:101FA000904202D00C4A904205D124F002020A432A
:101FB00042F0010104E024F00A020A4342F0010168
:101FC0000383018470BD0000002C014000340140F7
:101FD0000004004000080040000C0040F0B5048CF4
:101FE00024F010040484068B048C4FF6FF7505EA78
:101FF000011726F4734605EA0333334305EA022248
:102000001A43104B98420ED00F4B98420BD0B0F1B0
:10201000804F08D00D4B984205D00D4B984202D00E
:102020000C4B984205D124F02001394341F01001B6
:1020300004E024F0A0030B4343F010010283018469
:10204000F0BD0000002C01400034014000040040BD
:1020500000080040000C0040F0B5048C24F48074AB
:102060000484858B048C4FF6FF7707EA012625F060
:10207000F30507EA031313432B43104A90420ED093
:102080000F4A90420BD0B0F1804F08D00D4A9042D9
:1020900005D00D4A904202D00C4A904205D124F45A
:1020A0000071314341F4807104E024F420620A435A
:1020B00042F4807183830184F0BD0000002C014054
:1020C000003401400004004000080040000C0040C3
:1020D000F0B5048C24F480540484868B048C4FF671
:1020E000FF7505EA013726F4734605EA02223243FA
:1020F00005EA03331343104A90420ED00F4A904230
:102100000BD0B0F1804F08D00D4A904205D00D4A57
:10211000904202D00C4A904205D124F40051394338
:1021200041F4805104E024F402420A4342F4805115
:1021300083830184F0BD0000002C01400034014085
:102140000004004000080040000C0040C943018228
:102150007047002904D0018841F0010101807047D7
:10216000018821F0010101807047002905D030F875
:10217000441F41F400410180704730F8441FC1F30F
:102180000E0101807047000010B5734988420AD1E2
:10219000C41401212046FFF7E5FB2046BDE81040AE
:1021A0000021FFF7DFBBB0F1804F0CD06B498842B4
:1021B00013D101210220FFF7B9FB0021BDE8104037
:1021C0000220FFF7B3BB01210846FFF7AFFB002158
:1021D000BDE810400120FFF7A9BB6149884209D141
:1021E00001210420FFF7A2FB0021BDE810400420DC
:1021F000FFF79CBB5B49884209D101210820FFF70A
:1022000095FB0021BDE810400820FFF78FBB564921
:10221000884209D101211020FFF788FB0021BDE889
:1022200010401020FFF782BB5049884209D101219C
:102230002020FFF77BFB0021BDE810402020FFF7A6
:1022400075BB4B4988420AD1441401212046FFF74F
:1022500089FB2046BDE810400021FFF783BB4549BC
:1022600088420AD10121CC042046FFF77BFB20469F
:10227000BDE810400021FFF775BB3F4988420AD1F5
:1022800001210C052046FFF76DFB2046BDE81040FC
:102290000021FFF767BB394988420AD101214C056B
:1022A0002046FFF75FFB2046BDE810400021FFF706
:1022B00059BB3349884209D101214020FFF736FB41
:1022C0000021BDE810404020FFF730BB2D49884277
:1022D00009D101218020FFF729FB0021BDE8104032
:1022E0008020FFF723BB284988420AD184150121A9
:1022F0002046FFF71BFB2046BDE810400021FFF7FA
:1023000015BB224988420AD101210C042046FFF75F
:1023100029FB2046BDE810400021FFF723BB1C49E4
:1023200088420AD101214C042046FFF71BFB2046BE
:10233000BDE810400021FFF715BB164988420AD1BD
:1023400001218C042046FFF70DFB2046BDE810401C
:102350000021FFF707BB10BD002C01400004004026
:1023600000080040000C0040001000400014004035
:1023700000340140004C0140005001400054014035
:1023800000180040001C00400020004000400140B8
:10239000004401400048014070B50589048B068C5B
:1023A00025F007050D434FF6FC410C4040F20111AA
:1023B0000C4326F022064FF6FF7101EA0311114388
:1023C000314305810483018470BD000070B505466A
:1023D0000C461D48854209D01C48854206D0B5F1FF
:1023E000804F03D01A48854200D01A48208861885F
:1023F000A288238960B1042813D008281AD028465F
:10240000FFF766FEE1882846BDE8704000F065B938
:102410002846FFF7A9FDE1882846BDE8704000F096
:1024200040B92846FFF7DAFDE1882846BDE870404C
:1024300000F03FB92846FFF70FFEE1882846BDE8C7
:10244000704000F042B90000002C0140003401400F
:10245000000400400008004000210180418001226A
:102460008280C18001817047002A03D082890A439B
:102470008281704782898A438281704730B5028C9D
:1024800022F001020284028C8388048B24F0700401
:1024900024F003050C882C4322F002020D89154319
:1024A0004A882A43124DA8420BD0124DA84208D0A8
:1024B000114DA84205D0114DA84202D0104DA8429E
:1024C0000FD122F008054A892A4322F004058A88A0
:1024D0002A4323F4807323F400738D891D43CB8931
:1024E0002B4383800483C9888186028430BD000029
:1024F000002C0140003401400040014000440140F4
:102500000048014070B5028C22F010020284028C57
:102510008388048B24F4E04424F440760D884FF63D
:10252000FF7404EA0525354322F020020E8904EAEF
:10253000061616434A8804EA02123243114EB0428C
:1025400002D0114EB04217D122F080024E8904EA27
:102550000616164326F040068A8804EA0212324321
:1025600023F4806323F400638E8904EA86061E4305
:10257000CB8904EA8303334383800583C9880187B9
:10258000028470BD002C01400034014070B5028C03
:1025900022F480720284028C8388848B24F070047D
:1025A00024F003040D88254322F400720E894FF6AF
:1025B000FF7404EA062616434A8804EA02223243DC
:1025C000114EB04202D0114EB04217D122F4006633
:1025D0004A8904EA0222324322F480668A8804EAA5
:1025E0000222324323F4805323F400538E8904EAF9
:1025F00006161E43CB8904EA031333438380858385
:10260000C9888187028470BD002C014000340140DC
:1026100070B5028C22F480520284058C8288838BF0
:1026200023F4E04323F440760C884FF6FF7303EA6B
:102630000424344325F400550E8903EA06362E435C
:102640004D8803EA05353543094EB04202D0094EA4
:10265000B04205D122F480468A8903EA82123243CD
:1026600082808483C988A0F84010058470BD000072
:10267000002C014000340140002101804180818014
:10268000C180018141818181C1817047818670470C
:102690000187704781877047A0F840107047818498
:1026A0007047028B22F00C020283028B0A430283E2
:1026B0007047028B22F440620283028B4FF6FF7355
:1026C00003EA01210A4302837047828B22F00C0245
:1026D0008283828B0A4382837047828B22F440621A
:1026E0008283828B4FF6FF7303EA01210A438283C0
:1026F0007047000030B502881B4C1C4DA0420DD025
:10270000A8420BD0B0F1804F08D0194B984205D0A9
:10271000184B984202D0184B984203D122F0700314
:102720004A881A43154B984206D0154B984203D05D
:1027300022F44073CA881A4302808A8882850A88F4
:102740000285A0420AD0A84208D00E4A904205D085
:102750000D4A904202D00D4A904201D1097A018679
:102760000121818230BD0000002C01400034014075
:102770000004004000080040000C00400010004031
:102780000014004000400140004401400048014066
:102790004FF6FF71818000210180C180418001726C
:1027A0007047000010B5084C40F22551204600F05B
:1027B00090F8002807D0204600F024F9C0B2BDE808
:1027C000104000F003B810BD0038014070B5054658
:1027D000064C8021204600F075F80028F9D02946E3
:1027E0002046BDE8704000F011B9000000380140FB
:1027F00070B586B00546012144F20400FFF7A4F845
:102800004FF40070ADF8140018208DF81700032461
:102810008DF81640214E05A93046FEF77BF830159D
:10282000ADF8140004208DF8170005A93046FEF716
:1028300071F801950020ADF80800ADF80A00ADF878
:102840000C00ADF810000C20ADF80E00144D01A9DD
:10285000284600F079F8002240F22771284600F05F
:1028600058F8012240F22551284600F052F8402144
:10287000284600F017F80121284600F017F8252017
:102880008DF8000001208DF801008DF802408DF8D0
:1028900003006846FEF766FF06B070BD0008014001
:1028A000003801408A05C94301807047002904D0DF
:1028B000818941F4005181817047818921F400515F
:1028C000818170470246002012880A4200D0012010
:1028D000704770B5002440F66A12C1F3421301F04C
:1028E0001F05012606FA05F2012B0CD0022B0DD094
:1028F000838A1340090A8E40008830400BB100B132
:102900000124204670BD83891340F3E7038A1340F6
:10291000F0E710B540F66A13C1F3421301F01F044B
:102920000121A140012B07D0022B07D014303AB16E
:1029300002680A43026010BD0C30F8E71030F6E779
:1029400002688A43026010BD30B585B004460D466A
:10295000208A4CF6FF710840E98801432182A08952
:102960004EF6F3110840A9882A8911436A89024367
:102970001143A181A08A4FF6FF410840A989014374
:10298000A1826846FEF7FCFF1D48844201D10398EE
:1029900000E00298A189090408D500EBC00101EB11
:1029A000001029684900B0FBF1F007E000EBC0011E
:1029B00001EB001029688900B0FBF1F06422B0FB44
:1029C000F2F109010B096FF018056B4300EB83006E
:1029D000A3891D044FF0320307D503EBC000B0FB01
:1029E000F2F000F00700084306E003EB0010B0FB34
:1029F000F2F000F00F000843208105B030BD000068
:102A0000003801408088C0F308007047C1F3080116
:102A100081807047FEE700000FB4084B10B504A991
:102A200002AA039800F01CF8044602A9002000F056
:102A300048FA204610BC5DF814FB0000C32E0008C5
:102A400002E008C8121F08C1002AFAD17047704777
:102A5000002001E001C1121F002AFBD170470000D5
:102A60002DE9FF4F8DB00F460546002606E02528CC
:102A70000BD0DDE90F1290476D1C761C28780028DA
:102A8000F5D111B03046BDE8F08F0024A246A14632
:102A90000122EC4900E0044315F8013F203B02FA13
:102AA00003F00842F7D128782A2810D06FF02F02BF
:102AB0002878A0F13001092914D80AEB8A0102EB29
:102AC000410144F0020400EB010A6D1CF0E701CF64
:102AD0005FEA000A03D544F40054CAF1000A44F046
:102AE00002046D1C28782E2817D115F8010F44F028
:102AF00004042A280ED06FF02F022878A0F13001AC
:102B000009290AD809EB890102EB410100EB01090F
:102B10006D1CF2E757F8049B6D1C28786C280FD0C9
:102B200006DC4C2817D068280DD06A2814D104E0A0
:102B3000742810D07A280FD10DE044F400140AE074
:102B400044F4801401E044F440146978814202D1D5
:102B500004F580146D1C6D1C2A786E2A1FD00CDCC5
:102B6000632A31D004DC002A8BD0582A11D1A3E08B
:102B7000642A68D0692A0CD165E0732A2ED004DC5F
:102B80006F2A73D0702A04D19BE0752A6FD0782AFF
:102B90006ED01046DDE90F129047761C50E1C4F369
:102BA0000250022806D0032809D0042801CF09D0FA
:102BB000066045E101CFF117C0E9006140E101CFB6
:102BC00006803DE106703BE117F8040B8DF800002C
:102BD00000208DF80100EB46012003E057F804BB0C
:102BE0004FF0FF3061074FF0000102D40DE008F113
:102BF0000101884649450FDA8045F8DB1BF80810CB
:102C00000029F4D108E008F1010188468142FADB8D
:102C10001BF808100029F6D1DDE90F23AAEB080004
:102C20008146214600F036F9304400EB080604E006
:102C3000DDE90F121BF8010B9047B8F10108F7D23C
:102C400021464846F7E00A21C4F302534FF0000B37
:102C50000891022B04D001CFC117032B09D00AE041
:102C6000FF1D27F00707F7E8020108E032E01FE048
:102C700020E000B2C117042B01D140B2C117031EDE
:102C800071F1000307DA4FF0000CD0EB0C006CEB95
:102C900001012D2302E0230504D52B238DF82430D8
:102CA000012303E0E30701D02023F7E7984658E02B
:102CB0000A2110E010210EE010204FF0000B0890C8
:102CC0000CE010214FF0000B44F004044FF0080911
:102CD000089103E008214FF0000B0891C4F3025360
:102CE000022B04D001CF0021032B06D006E0FF1DEC
:102CF00027F00707F7E8020103E080B2042B00D1B8
:102D0000C0B24FF0000823072BD5702A07D0DDF89A
:102D100020C08CF0100C5CEA0B0C05D00EE04023B8
:102D20008DF82430012308E050EA010306D0302357
:102D30008DF824308DF8252002239846DDF820C038
:102D40008CF0080C5CEA0B0C0BD150EA010301D1AA
:102D5000630706D530238DF824304FF00108A9F120
:102D60000109582A04D038A20B9208AA0A920BE053
:102D70003AA2F9E75B46089AFDF710FB0B9B9B5CB8
:102D80000A9A521E0A92137050EA0102F2D10A986E
:102D9000ADEB000000F1200B600702D524F4803475
:102DA00001E04FF00109D94502DDA9EB0B0000E07D
:102DB000002000EB0B0141440890AAEB010AE0035C
:102DC00006D4DDE90F232146504600F063F806449F
:102DD0004FF0000908E009A911F80900DDE90F1218
:102DE000904709F10109761CC145F4DBE0030CD5DD
:102DF000DDE90F232146504600F04CF8064404E07C
:102E0000DDE90F1230209047761C0899481E089083
:102E10000029F5DC08E00A980A990078491C0A9113
:102E2000DDE90F129047761CBBF10001ABF1010BFD
:102E3000F1DC21465046DDE90F2300F019F8064485
:102E40006D1C1BE60928010030313233343536372A
:102E500038396162636465660000000030313233E6
:102E60003435363738394142434445460000000086
:102E70002DE9F041044600251E461746880404D477
:102E800005E039462020B0476D1C641EF9D5284660
:102E9000BDE8F0812DE9F041044600251E4690462C
:102EA000C80301D5302700E02027880404D505E0B9
:102EB00041463846B0476D1C641EF9D52846BDE82A
:102EC000F0810A68531C0B601070704710B50B48F6
:102ED0000B490068B0FBF1F0C4B26FF00400FFF7DB
:102EE0000BF80849E008087000EB4002C2EBC01084
:102EF0004FF6FF7202EAC000488010BD00000020BB
:102F000040420F00280000200849498848434FF0FC
:102F1000E021486100238B61012008610869C20734
:102F200001D0C003FAD50B618B61704728000020E7
:102F300010B5FEF703FFA0F56F4116390ED0002142
:102F40004FF4FA7253000020401C80B29042FBD331
:102F5000491C89B29942F6D3012010BD002010BD52
:102F60000EB50020FEF77EFE112200210C48FEF770
:102F700019FF11210A48FDF710F911220021084814
:102F8000FEF7B4FE10214FF6FF72CDE900210020BC
:102F900003460290024A1E210A20FDF7D7FF0EBD0C
:102FA0006400002008B501210820FEF7CDFC1020A8
:102FB000ADF800008DF8030002208DF8020069468C
:102FC0000348FDF7A7FC10210248FDF72CFD08BDC2
:102FD00000100140000C0140FDF77AFA204C40F24D
:102FE000B6354FF47A764FF42F770020FDF720FDA9
:102FF00028B1D4F8900178B30020C4F89001FDF70F
:103000006BFCFEF70DFA002229460120FEF7E6F8D8
:103010003046FFF779FF002229460220FEF7DEF84E
:103020003046FFF771FF002239460520FEF7D6F83B
:103030003046FFF769FF002239460620FEF7CEF83A
:103040003046FFF761FF002211461046FEF7C6F832
:103050003046FFF759FFC8E7FFE70120CDE7000042
:103060000080214270B588B016A004AC90E80E0034
:10307000C0680EC40790FFF75BFF002610244FF6D0
:10308000FF7570B113A104A8FFF7C6FCCDE9014696
:10309000002304AA0F210A200095FDF757FF08B06E
:1030A00070BD11A104A8FFF7B7FCCDE901460023CC
:1030B00004AA0F210A200095FDF748FFFFF750FFF3
:1030C000EDE70000546869732069732074657374B8
:1030D00000000000573235513634206661696C2E8D
:1030E0002E2E2E2100000000573235513634206E2E
:1030F0006F726D616C210000000000000000000094
:1031000000000000000004040404040000040000A7
:1031100014140A00000000000000000000000A0A69
:103120001F0A0A1F0A0A000000040E1505060C14E7
:10313000150E0400000012150D152E2C2A12000089
:103140000000040A0A3615152916000002020100C3
:10315000000000000000000010080804040404043B
:103160000808100002040408080808080404020003
:1031700000000004150E0E150400000000000008F9
:10318000083E0808000000000000000000000000E9
:103190000202010000000000003F000000000000EB
:1031A00000000000000000000002000000201010DD
:1031B000080804040202010000000E11111111118F
:1031C000110E00000000040604040404040E0000B4
:1031D00000000E1111080402011F000000000E1172
:1031E000100C1010110E00000000080C0C0A091F32
:1031F000081C000000001F01010F1110110E00003B
:1032000000000C12010D1311110E000000001E1021
:10321000080804040404000000000E11110E11112E
:10322000110E000000000E11111916100906000001
:103230000000000004000000000400000000000086
:10324000000400000004040000001008040202044E
:1032500008100000000000003F003F0000000000D8
:1032600000000204081010080402000000000E1103
:10327000110804040004000000001C22292D2D1D4B
:10328000221C0000000004040C0A0A1E1233000075
:1032900000000F12120E1212120F000000001E1179
:1032A00001010101110E000000000F121212121292
:1032B000120F000000001F120A0E0A02121F000067
:1032C00000001F120A0E0A020207000000001C1272
:1032D00001013911120C000000003312121E1212EB
:1032E0001233000000001F0404040404041F000043
:1032F00000003E08080808080808090700003712FF
:103300000A060A1212370000000007020202020237
:10331000223F000000003B1B1B1B1515153500004C
:1033200000003B1216161A1A1217000000000E11A8
:1033300011111111110E000000000F12120E0202E5
:103340000207000000000E1111111117190E1800CC
:1033500000000F12120E0A121237000000001E1198
:1033600001060810110F000000001F1504040404DA
:10337000040E00000000331212121212120C000090
:1033800000003312120A0A0C040400000000151594
:1033900015150E0A0A0A000000001B0A0A04040A96
:1033A0000A1B000000001B0A0A0A0404040E0000A5
:1033B00000001F0908040402121F00001C0404047A
:1033C0000404040404041C000002020404040808A9
:1033D000081010000E0808080808080808080E0061
:1033E000040A0000000000000000000000000000CF
:1033F000000000000000003F020400000000000088
:103400000000000000000000000C121C123C000034
:1034100000030202020E1212120E00000000000051
:10342000001C1202120C000000181010101C1212C6
:10343000123C000000000000000C121E021C0000E4
:1034400000182404041E0404041E000000000000F0
:10345000003C120C021C221C00030202020E12127B
:10346000123700000004040000060404040E0000EB
:1034700000080800000C08080808080700030202FA
:10348000021A0A060A1300000007040404040404D4
:10349000041F000000000000000F151515150000A6
:1034A00000000000000F12121237000000000000A0
:1034B000000C1212120C000000000000000F12128B
:1034C000120E020700000000001C1212121C10381D
:1034D00000000000001B06020207000000000000C0
:1034E000001E020C101E000000000004041E040454
:1034F000041C000000000000001B1212123C00001F
:1035000000000000001B0A0A040400000000000084
:103510000015150E0A0A000000000000001B0A0436
:103520000A1B000000000000003312120C08040304
:1035300000000000001E0804041E0000180808080F
:10354000080C0808080818000808080808080808EF
:103550000808080806040404040804040404060017
:10356000160900000000000000000000000000003C
:103570000000000000000000000000000000000843
:1035800008080808080800001818000000486C2403
:1035900012000000000000000000000000000024F5
:1035A00024247F1212127F12121200000000081C45
:1035B0002A2A0A0C1828282A2A1C08080000002297
:1035C000251515152A585454542200000000000CEB
:1035D0001212120A76252911916E000000060604C7
:1035E0000300000000000000000000000040201068
:1035F00010080808080808101020400000020408FD
:10360000081010101010100808040200000000003C
:1036100008086B1C1C6B080800000000000000007C
:10362000080808087F0808080800000000000000DB
:103630000000000000000000060604030000000077
:1036400000000000FE00000000000000000000007C
:10365000000000000000000006060000000080409E
:103660004020201010080804040202000000001886
:103670002442424242424242241800000000000814
:103680000E08080808080808083E00000000003C72
:103690004242422020100804427E00000000003C0C
:1036A0004242201820404042221C0000000000201E
:1036B0003028242422227E20207800000000007E72
:1036C0000202021A26404042221C0000000000387C
:1036D0002402021A26424242241800000000007E02
:1036E0002222101008080808080800000000003C0A
:1036F0004242422418244242423C0000000000188A
:103700002442424264584040241C00000000000053
:103710000000181800000000181800000000000049
:10372000000000080000000000080804000000403D
:1037300020100804020408102040000000000000CF
:1037400000007F0000007F00000000000000000279
:103750000408102040201008040200000000003C73
:103760004242464020101000181800000000001CC3
:10377000225A555555552D42221C000000000008C4
:1037800008181414243C224242E700000000001FE5
:103790002222221E22424242221F00000000007C00
:1037A0004242010101010142221C00000000001FF1
:1037B0002242424242424242221F00000000003F99
:1037C0004212121E12120242423F00000000003F4D
:1037D0004212121E12120202020700000000003CF8
:1037E0002222010101712122221C0000000000E7B9
:1037F000424242427E42424242E700000000003E16
:103800000808080808080808083E00000000007CB6
:1038100010101010101010101010110F0000007771
:1038200022120A0E0A12122222770000000000075C
:103830000202020202020202427F00000000007740
:10384000363636362A2A2A2A2A6B0000000000E380
:1038500046464A4A52525262624700000000001C2B
:103860002241414141414141221C00000000003FF2
:10387000424242423E020202020700000000001CD7
:103880002241414141414D53321C60000000003F44
:103890004242423E1212222242C700000000007C37
:1038A0004242020418204042423E00000000007FD5
:1038B0004908080808080808081C0000000000E77C
:1038C0004242424242424242423C0000000000E783
:1038D0004242222424141418080800000000006B3F
:1038E000494949495555362222220000000000E787
:1038F000422424181818242442E70000000000770E
:103900002222141408080808081C00000000007E89
:103910002120101008040442423F000000780808EB
:1039200008080808080808080808780000000202CB
:10393000040408080810102020204040001E101029
:10394000101010101010101010101E00003844003D
:103950000000000000000000000000000000000067
:103960000000000000000000000000FF000608004A
:103970000000000000000000000000000000000047
:103980000000003C4278444242FC0000000000037A
:103990000202021A26424242261A000000000000DB
:1039A00000000038440202024438000000000060B9
:1039B000404040784442424264D800000000000089
:1039C0000000003C427E0202423C0000000000F089
:1039D0008808087E08080808083E0000000000006B
:1039E0000000007C22221C023C42423C00000003FA
:1039F0000202023A4642424242E700000000000C46
:103A00000C00000E08080808083E00000000003006
:103A100030000038202020202020221E000000033B
:103A200002020272120A1612227700000000000E33
:103A30000808080808080808083E00000000000000
:103A40000000007F9292929292B700000000000066
:103A50000000003B4642424242E7000000000000F6
:103A60000000003C42424242423C00000000000094
:103A70000000001B26424242221E020700000000F6
:103A80000000007844424242447840E000000000D8
:103A9000000000774C040404041F00000000000034
:103AA0000000007C42023C40423E0000000000005A
:103AB0000008083E08080808083000000000000060
:103AC000000000634242424262DC0000000000004D
:103AD000000000E742242414080800000000000051
:103AE000000000EB4949555522220000000000006B
:103AF0000000007624181818246E00000000000052
:103B0000000000E742242414180808070000000001
:103B10000000007E22100808447E000000C0202023
:103B200020202010202020202020C0001010101065
:103B300010101010101010101010101000060808AF
:103B40000808081008080808080806000C32C20017
:103B50000000000000000000000000000000000065
:103B60000000000000000000000000000000000055
:103B70000000000000000000000000000000000045
:103B80000000000000000000000000000000000035
:103B900000000000600060006000600060006000E5
:103BA0006000400020002000200000000000000015
:103BB00060006000600000000000000000000000E5
:103BC0006006600630039801880044000000000091
:103BD00000000000000000000000000000000000E5
:103BE00000000000000000000000000000000000D5
:103BF000000000001002100210021002FE07FE0773
:103C000008020801080108010801FE07FE07040177
:103C10000401040104010000000000000000000095
:103C2000000040004000F00158034C03CC034C005E
:103C300058007000E000C001C00140034C035C0369
:103C40004C034801F000400040000000000000006C
:103C5000000000000E010A01910091009100510046
:103C600051003A00AE03A002500450044804480436
:103C700048048402840300000000000000000000EB
:103C80000000000038006C006C006C006C006C00E0
:103C90002C0098071C011A01330133016301E30072
:103CA000C308C6093C070000000000000000000037
:103CB0000C001C00100010000800040000000000B0
:103CC00000000000000000000000000000000000F4
:103CD00000000000000000000000000000000000E4
:103CE000000400020001800080004000400020002D
:103CF0002000200020002000200020004000400084
:103D000080008000000100020004000000000000AC
:103D100002000400080010001000200020004000F5
:103D200040004000400040004000400020002000D3
:103D30001000100008000400020000000000000055
:103D400000000000000000004000C0004000460CE1
:103D50004E0FD001F0015E0F460C400040004000C5
:103D60000000000000000000000000000000000053
:103D70000000000000000000000040004000400083
:103D800040004000FE0F4000400040004000400066
:103D90000000000000000000000000000000000023
:103DA0000000000000000000000000000000000013
:103DB0000000000000000000000000000000000003
:103DC0000C001C001000100008000400000000009F
:103DD00000000000000000000000000000000000E3
:103DE00000000000FE0700000000000000000000CE
:103DF00000000000000000000000000000000000C3
:103E000000000000000000000000000000000000B2
:103E100000000000000000000000000000000000A2
:103E20001C001C001C00000000000000000000003E
:103E30000004000600020003000100018000800071
:103E4000400040006000200020001000100008002A
:103E500008000C0004000600020000000000000042
:103E6000000000000000F00098010C030C0306069F
:103E700006060606060606060606060606060C03DF
:103E80000C039801F000000000000000000000009A
:103E900000000000000040007C0060006000600046
:103EA0006000600060006000600060006000600012
:103EB00060006000FC030000000000000000000043
:103EC000000000000000F80084010203060306035E
:103ED000000300018001C000600020001000080203
:103EE00004020602FE0300000000000000000000C3
:103EF0000000000000007800C600860186018001F5
:103F00008001C0007000800100010003000306036F
:103F100006038601F8000000000000000000000019
:103F200000000000000080018001C001A001A0018C
:103F300090018801880184018201FE0F80018001C7
:103F400080018001E0070000000000000000000088
:103F5000000000000000FC03040004000400040052
:103F60000400F4008C0104030003000306030603AD
:103F700082018401F8000000000000000000000041
:103F8000000000000000E00118030C030C00040016
:103F90000600E60116030E060606060606060406D9
:103FA0000C021803F00000000000000000000000F8
:103FB000000000000000F8070C06040204010001E4
:103FC0000001800080004000400040006000600070
:103FD00060006000600000000000000000000000C1
:103FE000000000000000F8010C03060606060606A5
:103FF0000C021C03F000C8010C03060606060606A8
:1040000006060C03F00100000000000000000000A4
:10401000000000000000F0000C010C030602060680
:104020000606060606078C0678060006000300034F
:104030000C018C017800000000000000000000006E
:104040000000000000000000000000000000000070
:10405000E000E000E00000000000000000000000C0
:10406000E000E000E00000000000000000000000B0
:104070000000000000000000000000000000000040
:104080006000600000000000000000000000000070
:1040900000006000600040002000200000000000E0
:1040A0000000000000040002000180004000200029
:1040B00010000800040008001000200040008000EC
:1040C00000010002000400000000000000000000E9
:1040D00000000000000000000000000000000000E0
:1040E000FE07000000000000FE07000000000000C6
:1040F00000000000000000000000000000000000C0
:1041000000000000040008001000200040008000B3
:1041100000010002000400020001800040002000B5
:104120001000080004000000000000000000000073
:10413000000000000000E0031806040C040C0C0C46
:104140000C0C00078001400040004000000000000F
:10415000E000E000E00000000000000000000000BF
:1041600000000000E00018030C02CC0564056605A1
:10417000A605B604B604B604B604B602E4010C04FF
:104180000C021803F0000000000000000000000016
:10419000000000000000600060005000D0009000AF
:1041A0009000880088010801F80104030403040258
:1041B000020202060F0F00000000000000000000D5
:1041C000000000000000FE008C030C030C030C0335
:1041D0000C038C01FC000C030C020C060C060C06F4
:1041E0000C060C03FE0100000000000000000000AF
:1041F000000000000000E00318030C060C04040497
:1042000006000600060006000600060006040C0470
:104210000C021803F0000000000000000000000085
:104220000000000000007F008C010C030C030C0652
:104230000C060C060C060C060C060C060C060C03F1
:104240000C038C017F000000000000000000000053
:10425000000000000000FF03060306040604060039
:1042600086008600FE0086008600860006000604A2
:1042700006040602FF03000000000000000000002A
:10428000000000000000FF03060306040604060009
:1042900086008600FE008600860086000600060076
:1042A000060006001F0000000000000000000000E3
:1042B000000000000000F00018010C020C020402D3
:1042C0000600060006000600C60F060306030C03E0
:1042D0000C031803F00000000000000000000000C4
:1042E0000000000000000F0F060606060606060680
:1042F00006060606FE070606060606060606060665
:10430000060606060F0F0000000000000000000077
:10431000000000000000FC0360006000600060001E
:10432000600060006000600060006000600060008D
:1043300060006000FC0300000000000000000000BE
:10434000000000000000F807C000C000C000C0006E
:10435000C000C000C000C000C000C000C000C0005D
:10436000C000C000C000C60066003C0000000000A5
:10437000000000000000CF038601C60046002600B2
:10438000160036002E006E004600C600860086012C
:10439000060106038F070000000000000000000077
:1043A0000000000000001F000600060006000600D6
:1043B00006000600060006000600060006000604C9
:1043C00006040602FF0300000000000000000000D9
:1043D0000000000000000707860386038E038E039B
:1043E0004E034E034A035A035A033A03320332037D
:1043F00032031203870700000000000000000000E5
:104400000000000000008E0F0C021C021C0234028F
:104410003402640264024402C402840284038403FA
:10442000040304031F02000000000000000000005D
:10443000000000000000F00098010C030C020606CA
:1044400006060606060606060606060606060C020A
:104450000C039801F00000000000000000000000C4
:10446000000000000000FF00060306060606060620
:10447000060606068603FE00060006000600060085
:10448000060006001F000000000000000000000001
:10449000000000000000F00098010C030C0206066A
:1044A00006060606060606060606060676064C02FA
:1044B000CC039801F000800700030000000000001A
:1044C000000000000000FF010603060606060606BF
:1044D00006060603FE004600C600860086010603A7
:1044E000060306060F0E000000000000000000009A
:1044F000000000000000F8020C030602060206009D
:104500000E003C00F800E0038003000702060206EC
:1045100006060C03F001000000000000000000008F
:10452000000000000000FE076204610861086000EE
:10453000600060006000600060006000600060007B
:1045400060006000F80100000000000000000000B2
:104550000000000000001E070C020C020C020C02FE
:104560000C020C020C020C020C020C020C020C02DB
:104570000C021801F0000000000000000000000024
:104580000000000000000F070602040104010C01F6
:104590000C018800880098009800500050007000BE
:1045A000300020002000000000000000000000009B
:1045B000000000000000F70E6204420446044604B6
:1045C00064026402E402E4029C029C0198019801E6
:1045D0008801880088000000000000000000000042
:1045E0000000000000009E070C0108011801900067
:1045F000B0006000200060006000D00090008801E2
:10460000080104038E070000000000000000000005
:104610000000000000000F0F060404020C02080155
:104620001801B800B0007000600060006000600019
:1046300060006000F80100000000000000000000C1
:10464000000000000000FC070C02060302018001CC
:1046500080004000400020002000100018000804E6
:104660000C040402FE030000000000000000000033
:10467000E003200020002000200020002000200077
:10468000200020002000200020002000200020002A
:104690002000200020002000E003000000000000B7
:1046A00000000000040004000800080010001000D2
:1046B00010002000200040004000C000800080006A
:1046C00000010001000200020002000400000000DE
:1046D0007C0040004000400040004000400040009E
:1046E00040004000400040004000400040004000CA
:1046F00040004000400040007C00000000006000DE
:104700009000080100000000000000000000000010
:104710000000000000000000000000000000000099
:104720000000000000000000000000000000000089
:104730000000000000000000000000000000000079
:104740000000000000000000000000000000000069
:1047500000000000000000000000FF0F000000004B
:1047600018006000000000000000000000000000D1
:104770000000000000000000000000000000000039
:104780000000000000000000000000000000000029
:104790000000000000000000000000000000000019
:1047A000F0010C030C030003E0031C030E030603DB
:1047B00006038E0B7C0E00000000000000000000CD
:1047C0000000000008000E000C000C000C000C00A3
:1047D000CC013C031C060C060C060C060C060C0651
:1047E0000C021C03E40100000000000000000000B7
:1047F00000000000000000000000000000000000B9
:10480000F0008C018C0186010600060006000602FD
:104810000C020C01F000000000000000000000008D
:10482000000000000002C0030003000300030003B7
:1048300078038C030C030603060306030603060332
:1048400004038C0778010000000000000000000055
:104850000000000000000000000000000000000058
:10486000E001180308020C060C06FC070C000C0003
:1048700018041802E0010000000000000000000021
:10488000000000000000C003600630063000300069
:10489000FE013000300030003000300030003000C9
:1048A00030003000FC0100000000000000000000AB
:1048B00000000000000000000000000000000000F8
:1048C000F007D8068C018C018C019801F8000C00CF
:1048D000FC00CC03060306038E03F8000000000072
:1048E0000000000008000E000C000C000C000C0082
:1048F000EC011C030C030C030C030C030C030C0352
:104900000C030C039E0700000000000000000000E4
:104910000000000000006000600000000000400097
:104920007C0060006000600060006000600060006B
:1049300060006000FC0300000000000000000000B8
:10494000000000000000C001C001000000000001E4
:10495000F0018001800180018001800180018001DF
:104960008001800180018001CC007C0000000000FB
:104970000000000008000E000C000C000C000C00F1
:104980008C038C008C004C006C005C008C008C0153
:104990000C010C039E070000000000000000000056
:1049A0000000000040007C006000600060006000CB
:1049B00060006000600060006000600060006000F7
:1049C00060006000FC030000000000000000000028
:1049D00000000000000000000000000000000000D7
:1049E0003707EE066606660666066606660666060D
:1049F00066066606FF0F00000000000000000000D1
:104A000000000000000000000000000000000000A6
:104A1000EE011C030C030C030C030C030C030C032E
:104A20000C030C039E0700000000000000000000C3
:104A30000000000000000000000000000000000076
:104A4000F00098010C030606060606060606060692
:104A50000C030C03F0000000000000000000000048
:104A60000000000000000000000000000000000046
:104A7000EE011C030C060C060C060C060C060C06BC
:104A80000C031C03EC010C000C003E0000000000B5
:104A90000000000000000000000000000000000016
:104AA00078028C030C0306030603060306030603C1
:104AB00004038C03780300030003C0070000000018
:104AC00000000000000000000000000000000000E6
:104AD0009F03580638061800180018001800180020
:104AE00018001800FF000000000000000000000097
:104AF00000000000000000000000000000000000B6
:104B0000F0031C030C020C023800F000C003040385
:104B100004038C03FC010000000000000000000002
:104B200000000000000000002000200030003000E5
:104B3000FE01300030003000300030003000300026
:104B400030023002E0010000000000000000000020
:104B5000000000000000000000000000000008024B
:104B60008E030C030C030C030C030C030C030C034B
:104B70000C039C077801000000000000000000000A
:104B80000000000000000000000000000000000025
:104B90001E070C020801080118019000B000B000C7
:104BA0006000600020000000000000000000000025
:104BB00000000000000000000000000000000000F5
:104BC000F70E6204460464026402EC029C01980140
:104BD000980198010800000000000000000000009B
:104BE00000000000000000000000000000000000C5
:104BF000BC0718011001B00060006000E0009000E8
:104C0000080108039E0700000000000000000000EB
:104C10000000000000000000000000000000000094
:104C20009E0708010801080190009000B000600094
:104C3000600060002000200024001C000000000034
:104C40000000000000000000000000000000000064
:104C5000FC018401C4004400600020003000180200
:104C600008020C03FC01000000000000000000002E
:104C700000038000800080008000800080008000B1
:104C80008000400020004000800080008000800004
:104C90008000800080008000000300004000400091
:104CA0004000400040004000400040004000400004
:104CB00040004000400040004000400040004000F4
:104CC0004000400040004000400040000000000064
:104CD0000C00100010001000100010001000100058
:104CE00010002000400020001000100010001000F4
:104CF00010001000100010000C00000000001C004C
:104D00002204C20480030000000000000000000034
:104D10000000000000000000000000000000000093
:104D20000000000000000000000000000000000083
:104D30000000000000000000000000000000000073
:104D40000000000000000000000000000000000063
:104D50000000000000000000000000000000000053
:104D60000000000000000000000000000000000043
:104D7000000000000000C001C001C001C001C0016E
:104D8000C001C001800080008000800080008000A1
:104D9000800000000000000000008001C003C0038C
:104DA0008001000000000000000000000000000082
:104DB0000000E01CE01CF01E700E3807180308010C
:104DC000840000000000000000000000000000005F
:104DD00000000000000000000000000000000000D3
:104DE00000000000000000000000000000000000C3
:104DF00000000000000000002010201020102010F3
:104E00002010FE7FFE7F1008100810081008100800
:104E100010081008FE7FFE7F080408040804080438
:104E20000804000000000000000000000000000076
:104E30000000000000010001C007601910311831A6
:104E40001839183938017001E001C0038007000FDC
:104E5000001D003900311C311C310C310C11180DB2
:104E6000E007000100010001000000000000000058
:104E700000000000000000001C1036186308630CDE
:104E800063046304630263026301361D9C3780225E
:104E900080634063406320632063306310221836D0
:104EA000081C0000000000000000000000000000DE
:104EB0000000000000000000F00098018C018C014F
:104EC0008C018C018C00CC007800183E1C08360840
:104ED000320863046304C304C303834306438E267A
:104EE000781C00000000000000000000000000002E
:104EF00000001C003C003C003000300010000C00A2
:104F0000060000000000000000000000000000009B
:104F10000000000000000000000000000000000091
:104F20000000000000000000000000000000000081
:104F300000000040002000100008000C00040006E3
:104F400000030003000380018001800180018001D3
:104F500080018001800100030003000300060006B9
:104F6000000C0008001000200040000000000000BD
:104F70000000020004000800100030002000600063
:104F8000C000C000C000800180018001800180015C
:104F9000800180018001C000C000C000600060008E
:104FA00030001000080004000200000000000000B3
:104FB000000000000000000000000000000180036D
:104FC000800300011C713C79783DC0070001C007D7
:104FD000783D3C791C710001800380038001000052
:104FE00000000000000000000000000000000000C1
:104FF00000000000000000000000000000000001B0
:10500000000100010001000100010001FC7F00011E
:10501000000100010001000100010001000000008A
:105020000000000000000000000000000000000080
:105030000000000000000000000000000000000070
:105040000000000000000000000000000000000060
:105050000000000000000000000000001C003C00F8
:105060003C003000300010000C0006000000000082
:105070000000000000000000000000000000000030
:10508000000000000000000000000000FE7F0000A3
:105090000000000000000000000000000000000010
:1050A0000000000000000000000000000000000000
:1050B00000000000000000000000000000000000F0
:1050C00000000000000000000000000000000000E0
:1050D0000000000000000000000018003C003C0040
:1050E00018000000000000000000000000000000A8
:1050F0000000004000600020003000100018000890
:10510000000C000400060002000300018001800082
:10511000C0004000600020003000100018000800AF
:105120000C00040006000200000000000000000067
:105130000000000000000000C007600C30181830AC
:10514000183018200C600C600C600C600C600C6057
:105150000C600C600C601820183018303018600C8F
:10516000C007000000000000000000000000000078
:10517000000000000000000000018001F801800133
:105180008001800180018001800180018001800117
:105190008001800180018001800180018001C003C5
:1051A000F81F0000000000000000000000000000E8
:1051B0000000000000000000E007101C0818043088
:1051C00004300C300C3000300018000800040002DD
:1051D0000001800040002020102008200430FC1F27
:1051E000FC1F0000000000000000000000000000A4
:1051F0000000000000000000E003180E0C0C0C186A
:105200000C180C180018000C0006C003000E001843
:105210000010003000300C300C300C100C18180C42
:10522000E00300000000000000000000000000009B
:105230000000000000000000000C000E000E000F37
:10524000800E800E400E600E200E100E100E080E06
:10525000040E040EFE7F000E000E000E000E000E67
:10526000000EC07F000000000000000000000000F1
:105270000000000000000000F03FF03F10001000B0
:10528000100008000800C807280C18180810003083
:105290000030003000300C300C3004180418080CBA
:1052A000F00300000000000000000000000000000B
:1052B0000000000000000000800FC01020301030FF
:1052C0001800180008000C008C0F6C183C301C6093
:1052D0000C600C600C600C60186018203030601896
:1052E000C0070000000000000000000000000000F7
:1052F0000000000000000000F83FF83F1C100C0800
:10530000040804040004000200020001000100017E
:10531000800080008000C000C000C000C000C0004D
:10532000C0000000000000000000000000000000BD
:105330000000000000000000E007300C18180C30DE
:105340000C300C301C3038187008E007B007180E0D
:105350000C1C063806300630063006300C18180CC7
:10536000E00300000000000000000000000000005A
:105370000000000000000000E00318040C080C18F6
:105380000610063006300630063006380C3C18365B
:10539000F03100300018001800180C0C0C060C033B
:1053A000F00100000000000000000000000000000C
:1053B00000000000000000000000000000000000ED
:1053C0000000000000008001C003C0038001000055
:1053D000000000000000000000008001C003C003C6
:1053E000800100000000000000000000000000003C
:1053F00000000000000000000000000000000000AD
:10540000000000000000C000C0000000000000001C
:105410000000000000000000000000000000C000CC
:10542000C00080008000400040000000000000003C
:10543000000000000000002000100008000400062A
:1054400000038001C0006000300018000C0018004C
:1054500030006000C0008001000300060004000866
:10546000001000200000000000000000000000000C
:10547000000000000000000000000000000000002C
:10548000000000000000FE7F00000000000000009F
:105490000000FE7F0000000000000000000000008F
:1054A00000000000000000000000000000000000FC
:1054B0000000000000000400080010002000600050
:1054C000C000800100030006000C00180030001826
:1054D000000C000600038001C000600020001000E6
:1054E00008000400000000000000000000000000B0
:1054F000000000000000C0073018083008600C6091
:105500001C601C601C600030001C00060001800054
:10551000800080008000000000008001C003C00304
:1055200080010000000000000000000000000000FA
:105530000000000000000000C007601810301820B4
:105540000C2F8C4D864CC64CC64C664C664466444B
:10555000662666266615CC1C0C40082018303018CC
:10556000C007000000000000000000000000000074
:105570000000000000000001C001C001C0014001A6
:1055800060032003200320033006100610061006D7
:10559000F80F080C080C080C0C0C0418041806185A
:1055A0001F7C000000000000000000000000000060
:1055B0000000000000000000FE07181C183818301A
:1055C0001830183018301818180CF8071818183038
:1055D00018201860186018601860186018301818C3
:1055E000FE0F0000000000000000000000000000AE
:1055F0000000000000000000C027603810301820B4
:105600000C400C40040006000600060006000600E0
:105610000600060006000C400C400C201830301824
:10562000C0070000000000000000000000000000B3
:105630000000000000000000FE03180E18181830CB
:1056400018301830186018601860186018601860FA
:105650001860186018601830183018101818180ED4
:10566000FE03000000000000000000000000000039
:105670000000000000000000FE3F183018201860F5
:105680001840180018081808180CF80F180C1808FB
:105690001808180018001800184018401820183072
:1056A000FE3F0000000000000000000000000000BD
:1056B0000000000000000000FE7F1870184018C0B5
:1056C00018801800181018101818F81F181818103B
:1056D00018101800180018001800180018001800FA
:1056E0007E0000000000000000000000000000003C
:1056F0000000000000000000C013701C1010181003
:105700000C200C200400060006000600060006001F
:1057100006FC063006300C300C30183018303008DB
:10572000C0070000000000000000000000000000B2
:1057300000000000000000003F7E0C180C180C1840
:105740000C180C180C180C180C180C18FC1F0C1842
:105750000C180C180C180C180C180C180C180C1829
:105760003F7E00000000000000000000000000007C
:105770000000000000000000F81F8001800180018F
:105780008001800180018001800180018001800111
:105790008001800180018001800180018001800101
:1057A000F81F0000000000000000000000000000E2
:1057B0000000000000000000E07F00060006000678
:1057C00000060006000600060006000600060006A9
:1057D0000006000600060006000600060006000699
:1057E000000600060E060E038E01FC0000000000FD
:1057F00000000000000000007E7C18181808180443
:1058000018061802180198019801D801B803380346
:1058100018071806180E180C181C1818183018300D
:105820007EFC0000000000000000000000000000FE
:1058300000000000000000007E00180018001800A2
:105840001800180018001800180018001800180098
:1058500018001800180018001840184018201830B8
:10586000FE3F0000000000000000000000000000FB
:1058700000000000000000001FF81C381C381C3815
:105880001C3C34343434343434367432643264324C
:1058900064326431C431C431C431C430C430843062
:1058A0009FFC00000000000000000000000000005D
:1058B00000000000000000001F7C1C103C10341091
:1058C000341074106410E410C410C41184118413D3
:1058D000041304170416041E041C041C041C0418DE
:1058E0001F18000000000000000000000000000081
:1058F0000000000000000000C003300C1818081061
:105900000C300C30066006600660066006600660BB
:105910000660066006600C200C3008101818300C69
:10592000C0030000000000000000000000000000B4
:105930000000000000000000FE0F1818183018606A
:10594000186018601860186018301818F80F1800E0
:105950001800180018001800180018001800180087
:105960007E000000000000000000000000000000B9
:105970000000000000000000C003300C18180C10DC
:105980000C300C200660066006600660066006604B
:10599000066006600660E4612C331C321816300E77
:1059A000C007004C007C0038000000000000000030
:1059B0000000000000000000FE07181C1838183016
:1059C0001830183018301818180CF80798031803F6
:1059D000180718061806180E180C180C181C18189A
:1059E0007E780000000000000000000000000000C1
:1059F0000000000000000000E027303818300C20C4
:105A00000C200C000C0018007800E003800F001E32
:105A100000380070006004600460086018303818B6
:105A2000C80F00000000000000000000000000009F
:105A30000000000000000000FC3F8C2184618241D6
:105A4000824180018001800180018001800180010C
:105A5000800180018001800180018001800180013E
:105A6000E00700000000000000000000000000004F
:105A700000000000000000003F7C0C100C100C1017
:105A80000C100C100C100C100C100C100C100C1036
:105A90000C100C100C100C100C100C100808380412
:105AA000E003000000000000000000000000000013
:105AB00000000000000000003EF818201820182008
:105AC0003010301030103010600860086008E00CB2
:105AD000C004C004C004800380038003800300016D
